{
  "contractName": "Params",
  "abi": [
    {
      "inputs": [],
      "name": "MaxValidators",
      "outputs": [
        {
          "internalType": "uint16",
          "name": "",
          "type": "uint16"
        }
      ],
      "stateMutability": "view",
      "type": "function"
    },
    {
      "inputs": [],
      "name": "MinimalStakingCoin",
      "outputs": [
        {
          "internalType": "uint256",
          "name": "",
          "type": "uint256"
        }
      ],
      "stateMutability": "view",
      "type": "function"
    },
    {
      "inputs": [],
      "name": "ProposalAddr",
      "outputs": [
        {
          "internalType": "address",
          "name": "",
          "type": "address"
        }
      ],
      "stateMutability": "view",
      "type": "function"
    },
    {
      "inputs": [],
      "name": "PunishContractAddr",
      "outputs": [
        {
          "internalType": "address",
          "name": "",
          "type": "address"
        }
      ],
      "stateMutability": "view",
      "type": "function"
    },
    {
      "inputs": [],
      "name": "StakingLockPeriod",
      "outputs": [
        {
          "internalType": "uint64",
          "name": "",
          "type": "uint64"
        }
      ],
      "stateMutability": "view",
      "type": "function"
    },
    {
      "inputs": [],
      "name": "ValidatorContractAddr",
      "outputs": [
        {
          "internalType": "address",
          "name": "",
          "type": "address"
        }
      ],
      "stateMutability": "view",
      "type": "function"
    },
    {
      "inputs": [],
      "name": "WithdrawProfitPeriod",
      "outputs": [
        {
          "internalType": "uint64",
          "name": "",
          "type": "uint64"
        }
      ],
      "stateMutability": "view",
      "type": "function"
    },
    {
      "inputs": [],
      "name": "initialized",
      "outputs": [
        {
          "internalType": "bool",
          "name": "",
          "type": "bool"
        }
      ],
      "stateMutability": "view",
      "type": "function"
    }
  ],
  "bytecode": "0x608060405234801561001057600080fd5b506101b3806100206000396000f3fe608060405234801561001057600080fd5b50600436106100885760003560e01c8063be6456921161005b578063be645692146100dd578063c967f90f146100f7578063db78dd2814610116578063efd8d8e21461013b57610088565b8063158ef93e1461008d5780631b5e358c146100a95780633a061bd3146100cd5780636233be5d146100d5575b600080fd5b610095610143565b604080519115158252519081900360200190f35b6100b161014c565b604080516001600160a01b039092168252519081900360200190f35b6100b1610152565b6100b1610158565b6100e561015e565b60408051918252519081900360200190f35b6100ff61016b565b6040805161ffff9092168252519081900360200190f35b61011e610170565b6040805167ffffffffffffffff9092168252519081900360200190f35b61011e610177565b60005460ff1681565b61f00181565b61f00081565b61f00281565b6801bc16d674ec80000081565b601581565b6201518081565b6170808156fea264697066735822122071715ac4994f1afec20f337d6f6bad11cddfe1267d7242884b9453fd3d99d94264736f6c63430006010033",
  "source": "pragma solidity >=0.6.0 <0.8.0;\n\ncontract Params {\n    bool public initialized;\n\n    // System contracts\n    address\n        public constant ValidatorContractAddr = 0x000000000000000000000000000000000000f000;\n    address\n        public constant PunishContractAddr = 0x000000000000000000000000000000000000F001;\n    address\n        public constant ProposalAddr = 0x000000000000000000000000000000000000F002;\n\n    // System params\n    uint16 public constant MaxValidators = 21;\n    // Validator have to wait StakingLockPeriod blocks to withdraw staking\n    uint64 public constant StakingLockPeriod = 86400;\n    // Validator have to wait WithdrawProfitPeriod blocks to withdraw his profits\n    uint64 public constant WithdrawProfitPeriod = 28800;\n    uint256 public constant MinimalStakingCoin = 32 ether;\n\n    modifier onlyMiner() {\n        require(msg.sender == block.coinbase, \"Miner only\");\n        _;\n    }\n\n    modifier onlyNotInitialized() {\n        require(!initialized, \"Already initialized\");\n        _;\n    }\n\n    modifier onlyInitialized() {\n        require(initialized, \"Not init yet\");\n        _;\n    }\n\n    modifier onlyPunishContract() {\n        require(msg.sender == PunishContractAddr, \"Punish contract only\");\n        _;\n    }\n\n    modifier onlyBlockEpoch(uint256 epoch) {\n        require(block.number % epoch == 0, \"Block epoch only\");\n        _;\n    }\n\n    modifier onlyValidatorsContract() {\n        require(\n            msg.sender == ValidatorContractAddr,\n            \"Validators contract only\"\n        );\n        _;\n    }\n\n    modifier onlyProposalContract() {\n        require(msg.sender == ProposalAddr, \"Proposal contract only\");\n        _;\n    }\n}\n",
  "sourcePath": "/Users/lisheng/Downloads/hscchains/huobi-eco-contracts-master/contracts/Params.sol",
  "compiler": {
    "name": "solc",
    "version": "0.6.1+commit.e6f7d5a4.Emscripten.clang"
  },
  "schemaVersion": "3.0.23",
  "updatedAt": "2021-04-19T02:54:53.373Z",
  "devdoc": {
    "methods": {}
  },
  "userdoc": {
    "methods": {}
  }
}