{
  "contractName": "Proposal",
  "abi": [
    {
      "anonymous": false,
      "inputs": [
        {
          "indexed": true,
          "internalType": "bytes32",
          "name": "id",
          "type": "bytes32"
        },
        {
          "indexed": true,
          "internalType": "address",
          "name": "proposer",
          "type": "address"
        },
        {
          "indexed": true,
          "internalType": "address",
          "name": "dst",
          "type": "address"
        },
        {
          "indexed": false,
          "internalType": "uint256",
          "name": "time",
          "type": "uint256"
        }
      ],
      "name": "LogCreateProposal",
      "type": "event"
    },
    {
      "anonymous": false,
      "inputs": [
        {
          "indexed": true,
          "internalType": "bytes32",
          "name": "id",
          "type": "bytes32"
        },
        {
          "indexed": true,
          "internalType": "address",
          "name": "dst",
          "type": "address"
        },
        {
          "indexed": false,
          "internalType": "uint256",
          "name": "time",
          "type": "uint256"
        }
      ],
      "name": "LogPassProposal",
      "type": "event"
    },
    {
      "anonymous": false,
      "inputs": [
        {
          "indexed": true,
          "internalType": "bytes32",
          "name": "id",
          "type": "bytes32"
        },
        {
          "indexed": true,
          "internalType": "address",
          "name": "dst",
          "type": "address"
        },
        {
          "indexed": false,
          "internalType": "uint256",
          "name": "time",
          "type": "uint256"
        }
      ],
      "name": "LogRejectProposal",
      "type": "event"
    },
    {
      "anonymous": false,
      "inputs": [
        {
          "indexed": true,
          "internalType": "address",
          "name": "val",
          "type": "address"
        },
        {
          "indexed": false,
          "internalType": "uint256",
          "name": "time",
          "type": "uint256"
        }
      ],
      "name": "LogSetUnpassed",
      "type": "event"
    },
    {
      "anonymous": false,
      "inputs": [
        {
          "indexed": true,
          "internalType": "bytes32",
          "name": "id",
          "type": "bytes32"
        },
        {
          "indexed": true,
          "internalType": "address",
          "name": "voter",
          "type": "address"
        },
        {
          "indexed": false,
          "internalType": "bool",
          "name": "auth",
          "type": "bool"
        },
        {
          "indexed": false,
          "internalType": "uint256",
          "name": "time",
          "type": "uint256"
        }
      ],
      "name": "LogVote",
      "type": "event"
    },
    {
      "inputs": [],
      "name": "MaxValidators",
      "outputs": [
        {
          "internalType": "uint16",
          "name": "",
          "type": "uint16"
        }
      ],
      "stateMutability": "view",
      "type": "function"
    },
    {
      "inputs": [],
      "name": "MinimalStakingCoin",
      "outputs": [
        {
          "internalType": "uint256",
          "name": "",
          "type": "uint256"
        }
      ],
      "stateMutability": "view",
      "type": "function"
    },
    {
      "inputs": [],
      "name": "ProposalAddr",
      "outputs": [
        {
          "internalType": "address",
          "name": "",
          "type": "address"
        }
      ],
      "stateMutability": "view",
      "type": "function"
    },
    {
      "inputs": [],
      "name": "PunishContractAddr",
      "outputs": [
        {
          "internalType": "address",
          "name": "",
          "type": "address"
        }
      ],
      "stateMutability": "view",
      "type": "function"
    },
    {
      "inputs": [],
      "name": "StakingLockPeriod",
      "outputs": [
        {
          "internalType": "uint64",
          "name": "",
          "type": "uint64"
        }
      ],
      "stateMutability": "view",
      "type": "function"
    },
    {
      "inputs": [],
      "name": "ValidatorContractAddr",
      "outputs": [
        {
          "internalType": "address",
          "name": "",
          "type": "address"
        }
      ],
      "stateMutability": "view",
      "type": "function"
    },
    {
      "inputs": [],
      "name": "WithdrawProfitPeriod",
      "outputs": [
        {
          "internalType": "uint64",
          "name": "",
          "type": "uint64"
        }
      ],
      "stateMutability": "view",
      "type": "function"
    },
    {
      "inputs": [],
      "name": "initialized",
      "outputs": [
        {
          "internalType": "bool",
          "name": "",
          "type": "bool"
        }
      ],
      "stateMutability": "view",
      "type": "function"
    },
    {
      "inputs": [
        {
          "internalType": "address",
          "name": "",
          "type": "address"
        }
      ],
      "name": "pass",
      "outputs": [
        {
          "internalType": "bool",
          "name": "",
          "type": "bool"
        }
      ],
      "stateMutability": "view",
      "type": "function"
    },
    {
      "inputs": [],
      "name": "proposalLastingPeriod",
      "outputs": [
        {
          "internalType": "uint256",
          "name": "",
          "type": "uint256"
        }
      ],
      "stateMutability": "view",
      "type": "function"
    },
    {
      "inputs": [
        {
          "internalType": "bytes32",
          "name": "",
          "type": "bytes32"
        }
      ],
      "name": "proposals",
      "outputs": [
        {
          "internalType": "address",
          "name": "proposer",
          "type": "address"
        },
        {
          "internalType": "address",
          "name": "dst",
          "type": "address"
        },
        {
          "internalType": "string",
          "name": "details",
          "type": "string"
        },
        {
          "internalType": "uint256",
          "name": "createTime",
          "type": "uint256"
        },
        {
          "internalType": "uint16",
          "name": "agree",
          "type": "uint16"
        },
        {
          "internalType": "uint16",
          "name": "reject",
          "type": "uint16"
        },
        {
          "internalType": "bool",
          "name": "resultExist",
          "type": "bool"
        }
      ],
      "stateMutability": "view",
      "type": "function"
    },
    {
      "inputs": [
        {
          "internalType": "address",
          "name": "",
          "type": "address"
        },
        {
          "internalType": "bytes32",
          "name": "",
          "type": "bytes32"
        }
      ],
      "name": "votes",
      "outputs": [
        {
          "internalType": "address",
          "name": "voter",
          "type": "address"
        },
        {
          "internalType": "uint256",
          "name": "voteTime",
          "type": "uint256"
        },
        {
          "internalType": "bool",
          "name": "auth",
          "type": "bool"
        }
      ],
      "stateMutability": "view",
      "type": "function"
    },
    {
      "inputs": [
        {
          "internalType": "address[]",
          "name": "vals",
          "type": "address[]"
        }
      ],
      "name": "initialize",
      "outputs": [],
      "stateMutability": "nonpayable",
      "type": "function"
    },
    {
      "inputs": [
        {
          "internalType": "address",
          "name": "dst",
          "type": "address"
        },
        {
          "internalType": "string",
          "name": "details",
          "type": "string"
        }
      ],
      "name": "createProposal",
      "outputs": [
        {
          "internalType": "bool",
          "name": "",
          "type": "bool"
        }
      ],
      "stateMutability": "nonpayable",
      "type": "function"
    },
    {
      "inputs": [
        {
          "internalType": "bytes32",
          "name": "id",
          "type": "bytes32"
        },
        {
          "internalType": "bool",
          "name": "auth",
          "type": "bool"
        }
      ],
      "name": "voteProposal",
      "outputs": [
        {
          "internalType": "bool",
          "name": "",
          "type": "bool"
        }
      ],
      "stateMutability": "nonpayable",
      "type": "function"
    },
    {
      "inputs": [
        {
          "internalType": "address",
          "name": "val",
          "type": "address"
        }
      ],
      "name": "setUnpassed",
      "outputs": [
        {
          "internalType": "bool",
          "name": "",
          "type": "bool"
        }
      ],
      "stateMutability": "nonpayable",
      "type": "function"
    }
  ],
  "bytecode": "0x608060405234801561001057600080fd5b5061130e806100206000396000f3fe608060405234801561001057600080fd5b50600436106101005760003560e01c806382c4b3b211610097578063c967f90f11610066578063c967f90f146103fc578063db78dd281461041b578063e823c81414610440578063efd8d8e21461044857610100565b806382c4b3b214610327578063a224cee71461034d578063a4c4d922146103bd578063be645692146103e257610100565b80631f4f7d29116100d35780631f4f7d29146101c157806332ed5b121461023f5780633a061bd3146103175780636233be5d1461031f57610100565b8063158ef93e1461010557806315ea2781146101215780631b5e358c146101475780631db5ade81461016b575b600080fd5b61010d610450565b604080519115158252519081900360200190f35b61010d6004803603602081101561013757600080fd5b50356001600160a01b0316610459565b61014f61050e565b604080516001600160a01b039092168252519081900360200190f35b6101976004803603604081101561018157600080fd5b506001600160a01b038135169060200135610514565b604080516001600160a01b0390941684526020840192909252151582820152519081900360600190f35b61010d600480360360408110156101d757600080fd5b6001600160a01b038235169190810190604081016020820135600160201b81111561020157600080fd5b82018360208201111561021357600080fd5b803590602001918460018302840111600160201b8311171561023457600080fd5b50909250905061054d565b61025c6004803603602081101561025557600080fd5b5035610827565b604080516001600160a01b03808a16825288166020808301919091526060820187905261ffff8087166080840152851660a083015283151560c083015260e0928201838152885193830193909352875191929161010084019189019080838360005b838110156102d65781810151838201526020016102be565b50505050905090810190601f1680156103035780820380516001836020036101000a031916815260200191505b509850505050505050505060405180910390f35b61014f610906565b61014f61090c565b61010d6004803603602081101561033d57600080fd5b50356001600160a01b0316610912565b6103bb6004803603602081101561036357600080fd5b810190602081018135600160201b81111561037d57600080fd5b82018360208201111561038f57600080fd5b803590602001918460208302840111600160201b831117156103b057600080fd5b509092509050610927565b005b61010d600480360360408110156103d357600080fd5b50803590602001351515610a72565b6103ea61118f565b60408051918252519081900360200190f35b61040461119c565b6040805161ffff9092168252519081900360200190f35b6104236111a1565b6040805167ffffffffffffffff9092168252519081900360200190f35b6103ea6111a8565b6104236111ae565b60005460ff1681565b60003361f000146104b1576040805162461bcd60e51b815260206004820152601860248201527f56616c696461746f727320636f6e7472616374206f6e6c790000000000000000604482015290519081900360640190fd5b6001600160a01b038216600081815260026020908152604091829020805460ff19169055815142815291517f4e0b191f7f5c32b1b5e3704b68874b1a3980147cae00be8ece271bfb5b92c07a9281900390910190a2506001919050565b61f00181565b60046020908152600092835260408084209091529082529020805460018201546002909201546001600160a01b03909116919060ff1683565b6001600160a01b03831660009081526002602052604081205460ff16156105a55760405162461bcd60e51b815260040180806020018281038252602981526020018061128d6029913960400191505060405180910390fd5b6000338585854260405160200180866001600160a01b03166001600160a01b031660601b8152601401856001600160a01b03166001600160a01b031660601b81526014018484808284379190910192835250506040805180830381526020928301909152805191012094505050610bb885111591506106609050576040805162461bcd60e51b815260206004820152601060248201526f44657461696c7320746f6f206c6f6e6760801b604482015290519081900360640190fd5b60008181526003602081905260409091200154156106c5576040805162461bcd60e51b815260206004820152601760248201527f50726f706f73616c20616c726561647920657869737473000000000000000000604482015290519081900360640190fd5b6106cd6111b4565b3381526001600160a01b03861660208083019190915260408051601f870183900483028101830190915285815290869086908190840183828082843760009201829052506040808701958652426060880152878252600360209081529120865181546001600160a01b039182166001600160a01b031991821617835583890151600184018054919093169116179055945180518796955061077794506002860193509101906111f1565b506060820151600382015560808201516004909101805460a084015160c09094015161ffff1990911661ffff9384161763ffff000019166201000093909416929092029290921764ff000000001916600160201b911515919091021790556040805142815290516001600160a01b03881691339185917fc10f2f4d53a0e342536c6af3cce9c6ee25c32dbb323521ce0e1d4494a3e362e8916020918190039190910190a450600195945050505050565b60036020908152600091825260409182902080546001808301546002808501805488516101009582161595909502600019011691909104601f81018790048702840187019097528683526001600160a01b03938416969390911694919290918301828280156108d75780601f106108ac576101008083540402835291602001916108d7565b820191906000526020600020905b8154815290600101906020018083116108ba57829003601f168201915b50505050600383015460049093015491929161ffff80821692506201000082041690600160201b900460ff1687565b61f00081565b61f00281565b60026020526000908152604090205460ff1681565b60005460ff1615610975576040805162461bcd60e51b8152602060048201526013602482015272105b1c9958591e481a5b9a5d1a585b1a5e9959606a1b604482015290519081900360640190fd5b62093a80600155600580546001600160a01b03191661f00017905560005b81811015610a605760008383838181106109a957fe5b905060200201356001600160a01b03166001600160a01b03161415610a15576040805162461bcd60e51b815260206004820152601960248201527f496e76616c69642076616c696461746f72206164647265737300000000000000604482015290519081900360640190fd5b600160026000858585818110610a2757fe5b602090810292909201356001600160a01b0316835250810191909152604001600020805460ff1916911515919091179055600101610993565b50506000805460ff1916600117905550565b60055460408051631015428760e21b815233600482015290516000926001600160a01b0316916340550a1c916024808301926020929190829003018186803b158015610abd57600080fd5b505afa158015610ad1573d6000803e3d6000fd5b505050506040513d6020811015610ae757600080fd5b5051610b2b576040805162461bcd60e51b815260206004820152600e60248201526d56616c696461746f72206f6e6c7960901b604482015290519081900360640190fd5b60008381526003602081905260409091200154610b84576040805162461bcd60e51b8152602060048201526012602482015271141c9bdc1bdcd85b081b9bdd08195e1a5cdd60721b604482015290519081900360640190fd5b33600090815260046020908152604080832086845290915290206001015415610bde5760405162461bcd60e51b81526004018080602001828103825260238152602001806112b66023913960400191505060405180910390fd5b60015460008481526003602081905260409091200154014210610c3b576040805162461bcd60e51b815260206004820152601060248201526f141c9bdc1bdcd85b08195e1c1a5c995960821b604482015290519081900360640190fd5b336000818152600460209081526040808320878452825291829020426001820181905581546001600160a01b031916851782556002909101805460ff1916871515908117909155835190815291820152815186927f6c59bda68cac318717c60c7c9635a78a0f0613f9887cc18a7157f5745a86d14e928290030190a38115610ce9576000838152600360205260409020600401805461ffff8082166001011661ffff19909116179055610d1d565b60008381526003602052604090206004018054600161ffff62010000808404821692909201160263ffff0000199091161790555b6000838152600360209081526040808320600101546001600160a01b03168352600290915290205460ff1680610d6b5750600083815260036020526040902060040154600160201b900460ff165b15610d7857506001611189565b600554604080516313bce04b60e31b815290516002926001600160a01b031691639de70258916004808301926000929190829003018186803b158015610dbd57600080fd5b505afa158015610dd1573d6000803e3d6000fd5b505050506040513d6000823e601f3d908101601f191682016040526020811015610dfa57600080fd5b8101908080516040519392919084600160201b821115610e1957600080fd5b908301906020820185811115610e2e57600080fd5b82518660208202830111600160201b82111715610e4a57600080fd5b82525081516020918201928201910280838360005b83811015610e77578181015183820152602001610e5f565b505050509050016040525050505181610e8c57fe5b60008581526003602052604090206004015491900460010161ffff90911610610fd4576000838152600360208181526040808420600181810180546001600160a01b03908116885260028652848820805460ff19169093179092558987529484526004918201805464ff000000001916600160201b1790556005549454835163415e9ec960e11b815290821692810192909252915193909116936382bd3d9293602480840194939192918390030190829087803b158015610f4c57600080fd5b505af1158015610f60573d6000803e3d6000fd5b505050506040513d6020811015610f7657600080fd5b505060008381526003602090815260409182902060010154825142815292516001600160a01b039091169286927fc9d96d61eb62031865c523ae107f3c22f5ed445af237636bcd88bea1705c70d592918290030190a3506001611189565b600554604080516313bce04b60e31b815290516002926001600160a01b031691639de70258916004808301926000929190829003018186803b15801561101957600080fd5b505afa15801561102d573d6000803e3d6000fd5b505050506040513d6000823e601f3d908101601f19168201604052602081101561105657600080fd5b8101908080516040519392919084600160201b82111561107557600080fd5b90830190602082018581111561108a57600080fd5b82518660208202830111600160201b821117156110a657600080fd5b82525081516020918201928201910280838360005b838110156110d35781810151838201526020016110bb565b5050505090500160405250505051816110e857fe5b046001016003600085815260200190815260200160002060040160029054906101000a900461ffff1661ffff16106111855760008381526003602090815260409182902060048101805464ff000000001916600160201b17905560010154825142815292516001600160a01b039091169286927fec955d77e6e7d74e18b1c91977ef0f6fd5a6d02a28d1979686339fe69399782592918290030190a35b5060015b92915050565b6801bc16d674ec80000081565b601581565b6201518081565b60015481565b61708081565b6040805160e08101825260008082526020820181905260609282018390529181018290526080810182905260a0810182905260c081019190915290565b828054600181600116156101000203166002900490600052602060002090601f016020900481019282601f1061123257805160ff191683800117855561125f565b8280016001018555821561125f579182015b8281111561125f578251825591602001919060010190611244565b5061126b92915061126f565b5090565b61128991905b8082111561126b5760008155600101611275565b9056fe44737420616c7265616479207061737365642c20596f752063616e207374617274207374616b696e67596f752063616e277420766f746520666f7220612070726f706f73616c207477696365a2646970667358221220c0a926df789184a29f59d941e94c5c19b1bd7ee69e3908140253c49f9f6fee2a64736f6c63430006010033",
  "source": "pragma solidity >=0.6.0 <0.8.0;\n\nimport \"./Params.sol\";\nimport \"./Validators.sol\";\n\ncontract Proposal is Params {\n    // How long a proposal will exist\n    uint256 public proposalLastingPeriod;\n\n    // record\n    mapping(address => bool) public pass;\n\n    struct ProposalInfo {\n        // who propose this proposal\n        address proposer;\n        // propose who to be a validator\n        address dst;\n        // optional detail info of proposal\n        string details;\n        // time create proposal\n        uint256 createTime;\n        //\n        // vote info\n        //\n        // number agree this proposal\n        uint16 agree;\n        // number reject this proposal\n        uint16 reject;\n        // means you can get proposal of current vote.\n        bool resultExist;\n    }\n\n    struct VoteInfo {\n        address voter;\n        uint256 voteTime;\n        bool auth;\n    }\n\n    mapping(bytes32 => ProposalInfo) public proposals;\n    mapping(address => mapping(bytes32 => VoteInfo)) public votes;\n\n    Validators validators;\n\n    event LogCreateProposal(\n        bytes32 indexed id,\n        address indexed proposer,\n        address indexed dst,\n        uint256 time\n    );\n    event LogVote(\n        bytes32 indexed id,\n        address indexed voter,\n        bool auth,\n        uint256 time\n    );\n    event LogPassProposal(\n        bytes32 indexed id,\n        address indexed dst,\n        uint256 time\n    );\n    event LogRejectProposal(\n        bytes32 indexed id,\n        address indexed dst,\n        uint256 time\n    );\n    event LogSetUnpassed(address indexed val, uint256 time);\n\n    modifier onlyValidator() {\n        require(validators.isActiveValidator(msg.sender), \"Validator only\");\n        _;\n    }\n\n    function initialize(address[] calldata vals) external onlyNotInitialized {\n        proposalLastingPeriod = 7 days;\n        validators = Validators(ValidatorContractAddr);\n\n        for (uint256 i = 0; i < vals.length; i++) {\n            require(vals[i] != address(0), \"Invalid validator address\");\n            pass[vals[i]] = true;\n        }\n\n        initialized = true;\n    }\n\n    function createProposal(address dst, string calldata details)\n        external\n        returns (bool)\n    {\n        require(!pass[dst], \"Dst already passed, You can start staking\"); \n\n        // generate proposal id\n        bytes32 id = keccak256(\n            abi.encodePacked(msg.sender, dst, details, block.timestamp)\n        );\n        require(bytes(details).length <= 3000, \"Details too long\");\n        require(proposals[id].createTime == 0, \"Proposal already exists\");\n\n        ProposalInfo memory proposal;\n        proposal.proposer = msg.sender;\n        proposal.dst = dst;\n        proposal.details = details;\n        proposal.createTime = block.timestamp;\n\n        proposals[id] = proposal;\n        emit LogCreateProposal(id, msg.sender, dst, block.timestamp);\n        return true;\n    }\n\n    function voteProposal(bytes32 id, bool auth)\n        external\n        onlyValidator\n        returns (bool)\n    {\n        require(proposals[id].createTime != 0, \"Proposal not exist\");\n        require(\n            votes[msg.sender][id].voteTime == 0,\n            \"You can't vote for a proposal twice\"\n        );\n        require(\n            block.timestamp < proposals[id].createTime + proposalLastingPeriod,\n            \"Proposal expired\"\n        );\n\n        votes[msg.sender][id].voteTime = block.timestamp;\n        votes[msg.sender][id].voter = msg.sender;\n        votes[msg.sender][id].auth = auth;\n        emit LogVote(id, msg.sender, auth, block.timestamp);\n\n        // update dst status if proposal is passed\n        if (auth) {\n            proposals[id].agree = proposals[id].agree + 1;\n        } else {\n            proposals[id].reject = proposals[id].reject + 1;\n        }\n\n        if (pass[proposals[id].dst] || proposals[id].resultExist) {\n            // do nothing if dst already passed or rejected.\n            return true;\n        }\n\n        if (\n            proposals[id].agree >=\n            validators.getActiveValidators().length / 2 + 1\n        ) {\n            pass[proposals[id].dst] = true;\n            proposals[id].resultExist = true;\n\n            // try to reactive validator if it isn't the first time\n            validators.tryReactive(proposals[id].dst);\n            emit LogPassProposal(id, proposals[id].dst, block.timestamp);\n\n            return true;\n        }\n\n        if (\n            proposals[id].reject >=\n            validators.getActiveValidators().length / 2 + 1\n        ) {\n            proposals[id].resultExist = true;\n            emit LogRejectProposal(id, proposals[id].dst, block.timestamp);\n        }\n\n        return true;\n    }\n\n    function setUnpassed(address val)\n        external\n        onlyValidatorsContract\n        returns (bool)\n    {\n        // set validator unpass\n        pass[val] = false;\n\n        emit LogSetUnpassed(val, block.timestamp);\n        return true;\n    }\n}\n",
  "sourcePath": "/Users/lisheng/Downloads/hscchains/huobi-eco-contracts-master/contracts/Proposal.sol",
  "compiler": {
    "name": "solc",
    "version": "0.6.1+commit.e6f7d5a4.Emscripten.clang"
  },
  "schemaVersion": "3.0.23",
  "updatedAt": "2021-04-19T02:54:53.374Z",
  "devdoc": {
    "methods": {}
  },
  "userdoc": {
    "methods": {}
  }
}