{
  "contractName": "Punish",
  "abi": [
    {
      "anonymous": false,
      "inputs": [],
      "name": "LogDecreaseMissedBlocksCounter",
      "type": "event"
    },
    {
      "anonymous": false,
      "inputs": [
        {
          "indexed": true,
          "internalType": "address",
          "name": "val",
          "type": "address"
        },
        {
          "indexed": false,
          "internalType": "uint256",
          "name": "time",
          "type": "uint256"
        }
      ],
      "name": "LogPunishValidator",
      "type": "event"
    },
    {
      "inputs": [],
      "name": "MaxValidators",
      "outputs": [
        {
          "internalType": "uint16",
          "name": "",
          "type": "uint16"
        }
      ],
      "stateMutability": "view",
      "type": "function"
    },
    {
      "inputs": [],
      "name": "MinimalStakingCoin",
      "outputs": [
        {
          "internalType": "uint256",
          "name": "",
          "type": "uint256"
        }
      ],
      "stateMutability": "view",
      "type": "function"
    },
    {
      "inputs": [],
      "name": "ProposalAddr",
      "outputs": [
        {
          "internalType": "address",
          "name": "",
          "type": "address"
        }
      ],
      "stateMutability": "view",
      "type": "function"
    },
    {
      "inputs": [],
      "name": "PunishContractAddr",
      "outputs": [
        {
          "internalType": "address",
          "name": "",
          "type": "address"
        }
      ],
      "stateMutability": "view",
      "type": "function"
    },
    {
      "inputs": [],
      "name": "StakingLockPeriod",
      "outputs": [
        {
          "internalType": "uint64",
          "name": "",
          "type": "uint64"
        }
      ],
      "stateMutability": "view",
      "type": "function"
    },
    {
      "inputs": [],
      "name": "ValidatorContractAddr",
      "outputs": [
        {
          "internalType": "address",
          "name": "",
          "type": "address"
        }
      ],
      "stateMutability": "view",
      "type": "function"
    },
    {
      "inputs": [],
      "name": "WithdrawProfitPeriod",
      "outputs": [
        {
          "internalType": "uint64",
          "name": "",
          "type": "uint64"
        }
      ],
      "stateMutability": "view",
      "type": "function"
    },
    {
      "inputs": [],
      "name": "decreaseRate",
      "outputs": [
        {
          "internalType": "uint256",
          "name": "",
          "type": "uint256"
        }
      ],
      "stateMutability": "view",
      "type": "function"
    },
    {
      "inputs": [],
      "name": "initialized",
      "outputs": [
        {
          "internalType": "bool",
          "name": "",
          "type": "bool"
        }
      ],
      "stateMutability": "view",
      "type": "function"
    },
    {
      "inputs": [],
      "name": "punishThreshold",
      "outputs": [
        {
          "internalType": "uint256",
          "name": "",
          "type": "uint256"
        }
      ],
      "stateMutability": "view",
      "type": "function"
    },
    {
      "inputs": [
        {
          "internalType": "uint256",
          "name": "",
          "type": "uint256"
        }
      ],
      "name": "punishValidators",
      "outputs": [
        {
          "internalType": "address",
          "name": "",
          "type": "address"
        }
      ],
      "stateMutability": "view",
      "type": "function"
    },
    {
      "inputs": [],
      "name": "removeThreshold",
      "outputs": [
        {
          "internalType": "uint256",
          "name": "",
          "type": "uint256"
        }
      ],
      "stateMutability": "view",
      "type": "function"
    },
    {
      "inputs": [],
      "name": "initialize",
      "outputs": [],
      "stateMutability": "nonpayable",
      "type": "function"
    },
    {
      "inputs": [
        {
          "internalType": "address",
          "name": "val",
          "type": "address"
        }
      ],
      "name": "punish",
      "outputs": [],
      "stateMutability": "nonpayable",
      "type": "function"
    },
    {
      "inputs": [
        {
          "internalType": "uint256",
          "name": "epoch",
          "type": "uint256"
        }
      ],
      "name": "decreaseMissedBlocksCounter",
      "outputs": [],
      "stateMutability": "nonpayable",
      "type": "function"
    },
    {
      "inputs": [
        {
          "internalType": "address",
          "name": "val",
          "type": "address"
        }
      ],
      "name": "cleanPunishRecord",
      "outputs": [
        {
          "internalType": "bool",
          "name": "",
          "type": "bool"
        }
      ],
      "stateMutability": "nonpayable",
      "type": "function"
    },
    {
      "inputs": [],
      "name": "getPunishValidatorsLen",
      "outputs": [
        {
          "internalType": "uint256",
          "name": "",
          "type": "uint256"
        }
      ],
      "stateMutability": "view",
      "type": "function"
    },
    {
      "inputs": [
        {
          "internalType": "address",
          "name": "val",
          "type": "address"
        }
      ],
      "name": "getPunishRecord",
      "outputs": [
        {
          "internalType": "uint256",
          "name": "",
          "type": "uint256"
        }
      ],
      "stateMutability": "view",
      "type": "function"
    }
  ],
  "bytecode": "0x608060405234801561001057600080fd5b50610bd9806100206000396000f3fe608060405234801561001057600080fd5b50600436106101165760003560e01c8063be645692116100a2578063db78dd2811610071578063db78dd281461022f578063e0d8ea5314610254578063ea7221a11461025c578063efd8d8e214610282578063f62af26c1461028a57610116565b8063be645692146101e3578063c967f90f146101eb578063cb1ea7251461020a578063d93d2cb91461021257610116565b80633a061bd3116100e95780633a061bd31461019b57806344c1aa99146101a35780636233be5d146101ab57806363e1d451146101b35780638129fc1c146101d957610116565b8063158ef93e1461011b5780631b5e358c146101375780632897183d1461015b57806332f3c17f14610175575b600080fd5b6101236102a7565b604080519115158252519081900360200190f35b61013f6102b0565b604080516001600160a01b039092168252519081900360200190f35b6101636102b6565b60408051918252519081900360200190f35b6101636004803603602081101561018b57600080fd5b50356001600160a01b03166102bc565b61013f6102d7565b6101636102dd565b61013f6102e3565b610123600480360360208110156101c957600080fd5b50356001600160a01b03166102e9565b6101e1610515565b005b610163610598565b6101f36105a5565b6040805161ffff9092168252519081900360200190f35b6101636105aa565b6101e16004803603602081101561022857600080fd5b50356105b0565b610237610853565b6040805167ffffffffffffffff9092168252519081900360200190f35b61016361085a565b6101e16004803603602081101561027257600080fd5b50356001600160a01b0316610860565b610237610b76565b61013f600480360360208110156102a057600080fd5b5035610b7c565b60005460ff1681565b61f00181565b60035481565b6001600160a01b031660009081526005602052604090205490565b61f00081565b60025481565b61f00281565b6000805460ff16610330576040805162461bcd60e51b815260206004820152600c60248201526b139bdd081a5b9a5d081e595d60a21b604482015290519081900360640190fd5b3361f00014610386576040805162461bcd60e51b815260206004820152601860248201527f56616c696461746f727320636f6e7472616374206f6e6c790000000000000000604482015290519081900360640190fd5b6001600160a01b038216600090815260056020526040902054156103be576001600160a01b0382166000908152600560205260408120555b6001600160a01b03821660009081526005602052604090206002015460ff1680156103ea575060065415155b1561050d576006546001600160a01b038316600090815260056020526040902060010154600019909101146104b4576006805460009190600019810190811061042f57fe5b60009182526020808320909101546001600160a01b038681168452600590925260409092206001015460068054929093169350839291811061046d57fe5b600091825260208083209190910180546001600160a01b0319166001600160a01b039485161790558583168252600590526040808220600190810154949093168252902001555b60068054806104bf57fe5b60008281526020808220830160001990810180546001600160a01b03191690559092019092556001600160a01b038416825260059052604081206001810191909155600201805460ff191690555b506001919050565b60005460ff1615610563576040805162461bcd60e51b8152602060048201526013602482015272105b1c9958591e481a5b9a5d1a585b1a5e9959606a1b604482015290519081900360640190fd5b600480546001600160a01b03191661f0001790556018600181815560306002556003919091556000805460ff19169091179055565b6801bc16d674ec80000081565b601581565b60015481565b3341146105f1576040805162461bcd60e51b815260206004820152600a6024820152694d696e6572206f6e6c7960b01b604482015290519081900360640190fd5b4360009081526008602052604090205460ff161561064a576040805162461bcd60e51b8152602060048201526011602482015270105b1c9958591e48191958dc99585cd959607a1b604482015290519081900360640190fd5b60005460ff16610690576040805162461bcd60e51b815260206004820152600c60248201526b139bdd081a5b9a5d081e595d60a21b604482015290519081900360640190fd5b8080438161069a57fe5b06156106e0576040805162461bcd60e51b815260206004820152601060248201526f426c6f636b2065706f6368206f6e6c7960801b604482015290519081900360640190fd5b436000908152600860205260409020805460ff191660011790556006546107065761084f565b60005b600654811015610824576003546002548161072057fe5b04600560006006848154811061073257fe5b60009182526020808320909101546001600160a01b0316835282019290925260400190205411156107e3576003546002548161076a57fe5b04600560006006848154811061077c57fe5b60009182526020808320909101546001600160a01b031683528201929092526040018120546006805493909103926005929190859081106107b957fe5b60009182526020808320909101546001600160a01b0316835282019290925260400190205561081c565b600060056000600684815481106107f657fe5b60009182526020808320909101546001600160a01b031683528201929092526040019020555b600101610709565b506040517f181d51be54e8e8eaca6eae0eab32d4162099236bd519e7238d015d0870db464190600090a15b5050565b6201518081565b60065490565b3341146108a1576040805162461bcd60e51b815260206004820152600a6024820152694d696e6572206f6e6c7960b01b604482015290519081900360640190fd5b60005460ff166108e7576040805162461bcd60e51b815260206004820152600c60248201526b139bdd081a5b9a5d081e595d60a21b604482015290519081900360640190fd5b4360009081526007602052604090205460ff161561093f576040805162461bcd60e51b815260206004820152601060248201526f105b1c9958591e481c1d5b9a5cda195960821b604482015290519081900360640190fd5b436000908152600760209081526040808320805460ff191660011790556001600160a01b0384168352600590915290206002015460ff166109e857600680546001600160a01b038316600081815260056020526040812060018082018590558085019095557ff652222313e28459528d920b65115c16c04f3efc82aaedc97be59f3f377c0d3f90930180546001600160a01b0319168317905552600201805460ff191690911790555b6001600160a01b03811660009081526005602052604090208054600101908190556002549081610a1457fe5b06610aa15760048054604080516340a141ff60e01b81526001600160a01b0385811694820194909452905192909116916340a141ff9160248082019260009290919082900301818387803b158015610a6b57600080fd5b505af1158015610a7f573d6000803e3d6000fd5b5050506001600160a01b03821660009081526005602052604081205550610b34565b6001546001600160a01b03821660009081526005602052604090205481610ac457fe5b06610b345760048054604080516305dd095960e41b81526001600160a01b038581169482019490945290519290911691635dd095909160248082019260009290919082900301818387803b158015610b1b57600080fd5b505af1158015610b2f573d6000803e3d6000fd5b505050505b6040805142815290516001600160a01b038316917f770e0cca42c35d00240986ce8d3ed438be04663c91dac6576b79537d7c180f1e919081900360200190a250565b61708081565b60068181548110610b8957fe5b6000918252602090912001546001600160a01b031690508156fea26469706673582212200acf440336811a050e346a4f69047bccb8c8890c15f28aaa8c3bffb01a1d1e9464736f6c63430006010033",
  "source": "pragma solidity >=0.6.0 <0.8.0;\n\nimport \"./Params.sol\";\nimport \"./Validators.sol\";\n\ncontract Punish is Params {\n    uint256 public punishThreshold;\n    uint256 public removeThreshold;\n    uint256 public decreaseRate;\n\n    struct PunishRecord {\n        uint256 missedBlocksCounter;\n        uint256 index;\n        bool exist;\n    }\n\n    Validators validators;\n\n    mapping(address => PunishRecord) punishRecords;\n    address[] public punishValidators;\n\n    mapping(uint256 => bool) punished;\n    mapping(uint256 => bool) decreased;\n\n    event LogDecreaseMissedBlocksCounter();\n    event LogPunishValidator(address indexed val, uint256 time);\n\n    modifier onlyNotPunished() {\n        require(!punished[block.number], \"Already punished\");\n        _;\n    }\n\n    modifier onlyNotDecreased() {\n        require(!decreased[block.number], \"Already decreased\");\n        _;\n    }\n\n    function initialize() external onlyNotInitialized {\n        validators = Validators(ValidatorContractAddr);\n        punishThreshold = 24;\n        removeThreshold = 48;\n        decreaseRate = 24;\n\n        initialized = true;\n    }\n\n    function punish(address val)\n        external\n        onlyMiner\n        onlyInitialized\n        onlyNotPunished\n    {\n        punished[block.number] = true;\n        if (!punishRecords[val].exist) {\n            punishRecords[val].index = punishValidators.length;\n            punishValidators.push(val);\n            punishRecords[val].exist = true;\n        }\n        punishRecords[val].missedBlocksCounter++;\n\n        if (punishRecords[val].missedBlocksCounter % removeThreshold == 0) {\n            validators.removeValidator(val);\n            // reset validator's missed blocks counter\n            punishRecords[val].missedBlocksCounter = 0;\n        } else if (\n            punishRecords[val].missedBlocksCounter % punishThreshold == 0\n        ) {\n            validators.removeValidatorIncoming(val);\n        }\n\n        emit LogPunishValidator(val, block.timestamp);\n    }\n\n    function decreaseMissedBlocksCounter(uint256 epoch)\n        external\n        onlyMiner\n        onlyNotDecreased\n        onlyInitialized\n        onlyBlockEpoch(epoch)\n    {\n        decreased[block.number] = true;\n        if (punishValidators.length == 0) {\n            return;\n        }\n\n        for (uint256 i = 0; i < punishValidators.length; i++) {\n            if (\n                punishRecords[punishValidators[i]].missedBlocksCounter >\n                removeThreshold / decreaseRate\n            ) {\n                punishRecords[punishValidators[i]].missedBlocksCounter =\n                    punishRecords[punishValidators[i]].missedBlocksCounter -\n                    removeThreshold /\n                    decreaseRate;\n            } else {\n                punishRecords[punishValidators[i]].missedBlocksCounter = 0;\n            }\n        }\n\n        emit LogDecreaseMissedBlocksCounter();\n    }\n\n    // clean validator's punish record if one restake in\n    function cleanPunishRecord(address val)\n        public\n        onlyInitialized\n        onlyValidatorsContract\n        returns (bool)\n    {\n        if (punishRecords[val].missedBlocksCounter != 0) {\n            punishRecords[val].missedBlocksCounter = 0;\n        }\n\n        // remove it out of array if exist\n        if (punishRecords[val].exist && punishValidators.length > 0) {\n            if (punishRecords[val].index != punishValidators.length - 1) {\n                address uval = punishValidators[punishValidators.length - 1];\n                punishValidators[punishRecords[val].index] = uval;\n\n                punishRecords[uval].index = punishRecords[val].index;\n            }\n            punishValidators.pop();\n            punishRecords[val].index = 0;\n            punishRecords[val].exist = false;\n        }\n\n        return true;\n    }\n\n    function getPunishValidatorsLen() public view returns (uint256) {\n        return punishValidators.length;\n    }\n\n    function getPunishRecord(address val) public view returns (uint256) {\n        return punishRecords[val].missedBlocksCounter;\n    }\n}\n",
  "sourcePath": "/Users/lisheng/Downloads/hscchains/huobi-eco-contracts-master/contracts/Punish.sol",
  "compiler": {
    "name": "solc",
    "version": "0.6.1+commit.e6f7d5a4.Emscripten.clang"
  },
  "schemaVersion": "3.0.23",
  "updatedAt": "2021-04-19T02:54:53.379Z",
  "devdoc": {
    "methods": {}
  },
  "userdoc": {
    "methods": {}
  }
}