{
  "contractName": "Redeem",
  "abi": [
    {
      "inputs": [
        {
          "internalType": "address",
          "name": "_token",
          "type": "address"
        }
      ],
      "stateMutability": "nonpayable",
      "type": "constructor"
    },
    {
      "anonymous": false,
      "inputs": [
        {
          "indexed": false,
          "internalType": "address",
          "name": "_claimant",
          "type": "address"
        },
        {
          "indexed": false,
          "internalType": "uint256",
          "name": "_week",
          "type": "uint256"
        },
        {
          "indexed": false,
          "internalType": "uint256",
          "name": "_balance",
          "type": "uint256"
        }
      ],
      "name": "Allocated",
      "type": "event"
    },
    {
      "anonymous": false,
      "inputs": [
        {
          "indexed": false,
          "internalType": "address",
          "name": "_claimant",
          "type": "address"
        },
        {
          "indexed": false,
          "internalType": "uint256",
          "name": "_balance",
          "type": "uint256"
        }
      ],
      "name": "Claimed",
      "type": "event"
    },
    {
      "inputs": [],
      "name": "owner",
      "outputs": [
        {
          "internalType": "address",
          "name": "",
          "type": "address"
        }
      ],
      "stateMutability": "view",
      "type": "function"
    },
    {
      "inputs": [],
      "name": "token",
      "outputs": [
        {
          "internalType": "contract IERC20",
          "name": "",
          "type": "address"
        }
      ],
      "stateMutability": "view",
      "type": "function"
    },
    {
      "inputs": [
        {
          "internalType": "address",
          "name": "",
          "type": "address"
        },
        {
          "internalType": "uint256",
          "name": "",
          "type": "uint256"
        }
      ],
      "name": "weeksWithBenefits",
      "outputs": [
        {
          "internalType": "uint256",
          "name": "",
          "type": "uint256"
        }
      ],
      "stateMutability": "view",
      "type": "function"
    },
    {
      "inputs": [
        {
          "internalType": "address",
          "name": "user",
          "type": "address"
        }
      ],
      "name": "offsetRequirementMet",
      "outputs": [
        {
          "internalType": "bool",
          "name": "",
          "type": "bool"
        }
      ],
      "stateMutability": "view",
      "type": "function"
    },
    {
      "inputs": [],
      "name": "claim",
      "outputs": [
        {
          "internalType": "bool",
          "name": "",
          "type": "bool"
        }
      ],
      "stateMutability": "nonpayable",
      "type": "function"
    },
    {
      "inputs": [
        {
          "internalType": "address",
          "name": "_liquidityProvider",
          "type": "address"
        },
        {
          "internalType": "bytes32",
          "name": "_weekBlockHash",
          "type": "bytes32"
        }
      ],
      "name": "userWeekOffset",
      "outputs": [
        {
          "internalType": "uint256",
          "name": "offset",
          "type": "uint256"
        }
      ],
      "stateMutability": "pure",
      "type": "function"
    },
    {
      "inputs": [
        {
          "internalType": "uint256",
          "name": "_week",
          "type": "uint256"
        },
        {
          "internalType": "uint256",
          "name": "_timestamp",
          "type": "uint256"
        },
        {
          "internalType": "bytes32",
          "name": "_blockHash",
          "type": "bytes32"
        }
      ],
      "name": "finishWeek",
      "outputs": [],
      "stateMutability": "nonpayable",
      "type": "function"
    },
    {
      "inputs": [
        {
          "internalType": "address",
          "name": "_liquidityProvider",
          "type": "address"
        }
      ],
      "name": "balanceOf",
      "outputs": [
        {
          "internalType": "uint256",
          "name": "",
          "type": "uint256"
        }
      ],
      "stateMutability": "view",
      "type": "function"
    },
    {
      "inputs": [
        {
          "internalType": "uint256",
          "name": "_week",
          "type": "uint256"
        },
        {
          "internalType": "address[]",
          "name": "_liquidityProviders",
          "type": "address[]"
        },
        {
          "internalType": "uint256[]",
          "name": "_balances",
          "type": "uint256[]"
        }
      ],
      "name": "seedAllocations",
      "outputs": [],
      "stateMutability": "nonpayable",
      "type": "function"
    },
    {
      "inputs": [
        {
          "internalType": "uint256",
          "name": "_week",
          "type": "uint256"
        },
        {
          "internalType": "address",
          "name": "_liquidityProvider",
          "type": "address"
        },
        {
          "internalType": "uint256",
          "name": "_bal",
          "type": "uint256"
        }
      ],
      "name": "seedAllocation",
      "outputs": [],
      "stateMutability": "nonpayable",
      "type": "function"
    }
  ],
  "bytecode": "0x608060405234801561001057600080fd5b506040516111fb3803806111fb8339818101604052602081101561003357600080fd5b8101908080519060200190929190505050806000806101000a81548173ffffffffffffffffffffffffffffffffffffffff021916908373ffffffffffffffffffffffffffffffffffffffff16021790555033600160006101000a81548173ffffffffffffffffffffffffffffffffffffffff021916908373ffffffffffffffffffffffffffffffffffffffff16021790555050611126806100d56000396000f3fe608060405234801561001057600080fd5b506004361061009e5760003560e01c806381ec12cd1161006657806381ec12cd146102b95780638da5cb5b146102fb578063d0432b5714610345578063f4e0a4511461039d578063fc0c546a146103f95761009e565b80634e71d92d146100a357806350231f46146100c557806351dd0cc81461012757806366e9a63c146101ff57806370a0823114610261575b600080fd5b6100ab610443565b604051808215151515815260200191505060405180910390f35b610111600480360360408110156100db57600080fd5b81019080803573ffffffffffffffffffffffffffffffffffffffff16906020019092919080359060200190929190505050610575565b6040518082815260200191505060405180910390f35b6101fd6004803603606081101561013d57600080fd5b81019080803590602001909291908035906020019064010000000081111561016457600080fd5b82018360208201111561017657600080fd5b8035906020019184602083028401116401000000008311171561019857600080fd5b9091929391929390803590602001906401000000008111156101b957600080fd5b8201836020820111156101cb57600080fd5b803590602001918460208302840111640100000000831117156101ed57600080fd5b90919293919293905050506105ea565b005b61024b6004803603604081101561021557600080fd5b81019080803573ffffffffffffffffffffffffffffffffffffffff1690602001909291908035906020019092919050505061086e565b6040518082815260200191505060405180910390f35b6102a36004803603602081101561027757600080fd5b81019080803573ffffffffffffffffffffffffffffffffffffffff16906020019092919050505061089c565b6040518082815260200191505060405180910390f35b6102f9600480360360608110156102cf57600080fd5b81019080803590602001909291908035906020019092919080359060200190929190505050610926565b005b610303610b47565b604051808273ffffffffffffffffffffffffffffffffffffffff1673ffffffffffffffffffffffffffffffffffffffff16815260200191505060405180910390f35b61039b6004803603606081101561035b57600080fd5b8101908080359060200190929190803573ffffffffffffffffffffffffffffffffffffffff16906020019092919080359060200190929190505050610b6d565b005b6103df600480360360208110156103b357600080fd5b81019080803573ffffffffffffffffffffffffffffffffffffffff169060200190929190505050610d73565b604051808215151515815260200191505060405180910390f35b610401610d99565b604051808273ffffffffffffffffffffffffffffffffffffffff1673ffffffffffffffffffffffffffffffffffffffff16815260200191505060405180910390f35b600080600660003373ffffffffffffffffffffffffffffffffffffffff1673ffffffffffffffffffffffffffffffffffffffff168152602001908152602001600020549050600660003373ffffffffffffffffffffffffffffffffffffffff1673ffffffffffffffffffffffffffffffffffffffff1681526020019081526020016000206000905560006104d633610d73565b9050801561056657600760003373ffffffffffffffffffffffffffffffffffffffff1673ffffffffffffffffffffffffffffffffffffffff1681526020019081526020016000205482019150600760003373ffffffffffffffffffffffffffffffffffffffff1673ffffffffffffffffffffffffffffffffffffffff168152602001908152602001600020600090555b6105703383610dbe565b505090565b6000808383604051602001808373ffffffffffffffffffffffffffffffffffffffff1673ffffffffffffffffffffffffffffffffffffffff1660601b81526014018281526020019250505060405160208183030381529060405280519060200120905062093a80810691508191505092915050565b84600060035414156105fb57600080fd5b6000801b600554141561060d57600080fd5b600160009054906101000a900473ffffffffffffffffffffffffffffffffffffffff1673ffffffffffffffffffffffffffffffffffffffff163373ffffffffffffffffffffffffffffffffffffffff16146106d0576040517f08c379a000000000000000000000000000000000000000000000000000000000815260040180806020018281038252601a8152602001807f4d7573742062652074686520636f6e7472616374206f776e657200000000000081525060200191505060405180910390fd5b82829050858590501461072e576040517f08c379a000000000000000000000000000000000000000000000000000000000815260040180806020018281038252603a8152602001806110b7603a913960400191505060405180910390fd5b600080600090505b868690508110156108525786868281811061074d57fe5b9050602002013573ffffffffffffffffffffffffffffffffffffffff16915084848281811061077857fe5b90506020020135600760008473ffffffffffffffffffffffffffffffffffffffff1673ffffffffffffffffffffffffffffffffffffffff168152602001908152602001600020819055507f9af9811abc6f1b9cf2234f8ed76daa9a577d4ffbbe0af66ec4b748cde6f4c39f82898787858181106107f157fe5b90506020020135604051808473ffffffffffffffffffffffffffffffffffffffff1673ffffffffffffffffffffffffffffffffffffffff168152602001838152602001828152602001935050505060405180910390a1600181019050610736565b50858560089190610864929190610f8d565b5050505050505050565b6002602052816000526040600020818154811061088757fe5b90600052602060002001600091509150505481565b6000600660008373ffffffffffffffffffffffffffffffffffffffff1673ffffffffffffffffffffffffffffffffffffffff16815260200190815260200160002054600760008473ffffffffffffffffffffffffffffffffffffffff1673ffffffffffffffffffffffffffffffffffffffff16815260200190815260200160002054019050919050565b600160009054906101000a900473ffffffffffffffffffffffffffffffffffffffff1673ffffffffffffffffffffffffffffffffffffffff163373ffffffffffffffffffffffffffffffffffffffff16146109e9576040517f08c379a000000000000000000000000000000000000000000000000000000000815260040180806020018281038252601a8152602001807f4d7573742062652074686520636f6e7472616374206f776e657200000000000081525060200191505060405180910390fd5b600354831115610b4257816004819055508060058190555082600381905550600080600090505b600880549050811015610b315760088181548110610a2a57fe5b9060005260206000200160009054906101000a900473ffffffffffffffffffffffffffffffffffffffff169150600760008373ffffffffffffffffffffffffffffffffffffffff1673ffffffffffffffffffffffffffffffffffffffff16815260200190815260200160002054600660008473ffffffffffffffffffffffffffffffffffffffff1673ffffffffffffffffffffffffffffffffffffffff16815260200190815260200160002060008282540192505081905550600760008373ffffffffffffffffffffffffffffffffffffffff1673ffffffffffffffffffffffffffffffffffffffff16815260200190815260200160002060009055600181019050610a10565b5060086000610b40919061102d565b505b505050565b600160009054906101000a900473ffffffffffffffffffffffffffffffffffffffff1681565b8260006003541415610b7e57600080fd5b6000801b6005541415610b9057600080fd5b600160009054906101000a900473ffffffffffffffffffffffffffffffffffffffff1673ffffffffffffffffffffffffffffffffffffffff163373ffffffffffffffffffffffffffffffffffffffff1614610c53576040517f08c379a000000000000000000000000000000000000000000000000000000000815260040180806020018281038252601a8152602001807f4d7573742062652074686520636f6e7472616374206f776e657200000000000081525060200191505060405180910390fd5b81600760008573ffffffffffffffffffffffffffffffffffffffff1673ffffffffffffffffffffffffffffffffffffffff168152602001908152602001600020819055506008839080600181540180825580915050600190039060005260206000200160009091909190916101000a81548173ffffffffffffffffffffffffffffffffffffffff021916908373ffffffffffffffffffffffffffffffffffffffff1602179055507f9af9811abc6f1b9cf2234f8ed76daa9a577d4ffbbe0af66ec4b748cde6f4c39f838584604051808473ffffffffffffffffffffffffffffffffffffffff1673ffffffffffffffffffffffffffffffffffffffff168152602001838152602001828152602001935050505060405180910390a150505050565b600080610d8283600554610575565b905060008160045401905042811092505050919050565b6000809054906101000a900473ffffffffffffffffffffffffffffffffffffffff1681565b6000811115610f1b576000809054906101000a900473ffffffffffffffffffffffffffffffffffffffff1673ffffffffffffffffffffffffffffffffffffffff1663a9059cbb83836040518363ffffffff1660e01b8152600401808373ffffffffffffffffffffffffffffffffffffffff1673ffffffffffffffffffffffffffffffffffffffff16815260200182815260200192505050602060405180830381600087803b158015610e6f57600080fd5b505af1158015610e83573d6000803e3d6000fd5b505050506040513d6020811015610e9957600080fd5b8101908080519060200190929190505050507fd8138f8a3f377c5259ca548e70e4c2de94f129f5a11036a15b69513cba2b426a8282604051808373ffffffffffffffffffffffffffffffffffffffff1673ffffffffffffffffffffffffffffffffffffffff1681526020018281526020019250505060405180910390a1610f89565b6040517f08c379a000000000000000000000000000000000000000000000000000000000815260040180806020018281038252601e8152602001807f4e6f2062616c616e636520776f756c64206265207472616e736665726564000081525060200191505060405180910390fd5b5050565b82805482825590600052602060002090810192821561101c579160200282015b8281111561101b57823573ffffffffffffffffffffffffffffffffffffffff168260006101000a81548173ffffffffffffffffffffffffffffffffffffffff021916908373ffffffffffffffffffffffffffffffffffffffff16021790555091602001919060010190610fad565b5b509050611029919061104e565b5090565b508054600082559060005260206000209081019061104b9190611091565b50565b61108e91905b8082111561108a57600081816101000a81549073ffffffffffffffffffffffffffffffffffffffff021916905550600101611054565b5090565b90565b6110b391905b808211156110af576000816000905550600101611097565b5090565b9056fe6d75737420626520616e20657175616c206e756d626572206f66206c697175696469747950726f76696465727320616e642062616c616e636573a26469706673582212209bba54092f2c179df3b1a25e7ea05f982df94f122b08118a451727944223f23264736f6c63430006000033",
  "source": "pragma solidity 0.6.0;\n\nimport \"./IERC20.sol\";\n\ncontract Redeem {\n\n  IERC20 public token;\n  address public owner;\n\n  event Allocated(address _claimant, uint256 _week, uint256 _balance);\n  event Claimed(address _claimant, uint256 _balance);\n\n  // the outstanding balances for each user (by week)\n  mapping(address => uint[]) public weeksWithBenefits;\n  \n  // Recorded weeks\n  uint latestWeek;\n  uint latestWeekTimestamp;\n  bytes32 latestWeekBlockHash;\n\n  mapping(address => uint) vestedBalances;\n  mapping(address => uint) pendingBalances;\n  address[] usersWithPendingBalances;\n\n  constructor(\n    address _token\n  ) public {\n    token = IERC20(_token);\n    owner = msg.sender;\n  }\n\n  modifier onlyOwner() {\n    require(msg.sender == owner, \"Must be the contract owner\");\n    _;\n  }\n\n  modifier requireWeekInPast(uint week) {\n    require(week <= latestWeek, \"Week cannot be in the future\");\n    _;\n  }\n\n  modifier requireWeekRecorded(uint _week) {\n    require(latestWeek != 0);\n    require(latestWeekBlockHash != 0);\n    _;\n  }\n\n  function disburse(address _liquidityProvider, uint _balance) private {\n    if (_balance > 0) {\n      token.transfer(_liquidityProvider, _balance);\n      emit Claimed(_liquidityProvider, _balance);\n    } else {\n      revert('No balance would be transfered');\n    }\n  }\n\n\n  function offsetRequirementMet(address user) view public returns (bool){\n      uint offsetSeconds = userWeekOffset(user, latestWeekBlockHash);\n\n      uint earliestClaimableTimestamp = latestWeekTimestamp + offsetSeconds;\n      return earliestClaimableTimestamp < block.timestamp;\n  }\n\n  // attempt to claim all - if this is too much gas, fallback to claim function above\n  function claim() public returns (bool)\n  {\n    uint balance = vestedBalances[msg.sender];\n    delete vestedBalances[msg.sender];\n\n    bool disburseCurrentWeek = offsetRequirementMet(msg.sender);\n    if (disburseCurrentWeek) {\n      balance += pendingBalances[msg.sender];\n      delete pendingBalances[msg.sender];\n    }\n\n    disburse(msg.sender, balance);\n  }\n\n  function userWeekOffset(address _liquidityProvider, bytes32 _weekBlockHash) pure public returns (uint offset) {\n    bytes32 hash = keccak256(abi.encodePacked(_liquidityProvider, _weekBlockHash));\n    assembly {\n      offset :=\n        mod(\n          hash,\n          604800 // seconds in a week\n        )\n    }\n    return offset;\n  }\n\n\n  function finishWeek(uint _week, uint _timestamp, bytes32 _blockHash) public\n  onlyOwner\n  {\n    if (_week > latestWeek) { // just in case we get these out of order\n      latestWeekTimestamp = _timestamp;\n      latestWeekBlockHash = _blockHash;\n\n      latestWeek = _week;\n\n      address lp;\n      for(uint i = 0; i < usersWithPendingBalances.length; i += 1) {\n        lp = usersWithPendingBalances[i];\n        vestedBalances[lp] += pendingBalances[lp];\n        delete pendingBalances[lp];\n      }\n      delete usersWithPendingBalances;\n    }\n  }\n\n  function balanceOf(address _liquidityProvider) external view returns (uint) {\n    return pendingBalances[_liquidityProvider] + vestedBalances[_liquidityProvider];\n  }\n\n  function seedAllocations(uint _week, address[] calldata _liquidityProviders, uint[] calldata _balances) external\n  requireWeekRecorded(_week)\n  onlyOwner\n  {\n    require(_liquidityProviders.length == _balances.length, \"must be an equal number of liquidityProviders and balances\");\n\n    address lp;\n    for(uint i = 0; i < _liquidityProviders.length; i += 1) {\n      lp = _liquidityProviders[i];\n      pendingBalances[lp] = _balances[i];\n\n      emit Allocated(lp, _week, _balances[i]);\n    }\n    usersWithPendingBalances = _liquidityProviders;\n  }\n\n  function seedAllocation(uint _week, address _liquidityProvider, uint _bal) external\n  requireWeekRecorded(_week)\n  onlyOwner\n  {\n    pendingBalances[_liquidityProvider] = _bal;\n    usersWithPendingBalances.push(_liquidityProvider);\n\n    emit Allocated(_liquidityProvider, _week, _bal);\n  }\n\n}\n",
  "sourcePath": "/Users/lisheng/Downloads/defi/balancer/erc20-redeemable-master/ethereum/contracts/Redeem.sol",
  "compiler": {
    "name": "solc",
    "version": "0.6.0+commit.26b70077.Emscripten.clang"
  },
  "schemaVersion": "3.0.22",
  "updatedAt": "2020-08-23T06:29:41.721Z",
  "devdoc": {
    "methods": {}
  },
  "userdoc": {
    "methods": {}
  }
}