{
  "contractName": "MerkleRedeem",
  "abi": [
    {
      "inputs": [],
      "stateMutability": "nonpayable",
      "type": "constructor"
    },
    {
      "anonymous": false,
      "inputs": [
        {
          "indexed": false,
          "internalType": "address",
          "name": "_claimant",
          "type": "address"
        },
        {
          "indexed": false,
          "internalType": "uint256",
          "name": "_balance",
          "type": "uint256"
        }
      ],
      "name": "Claimed",
      "type": "event"
    },
    {
      "inputs": [
        {
          "internalType": "uint256",
          "name": "",
          "type": "uint256"
        },
        {
          "internalType": "address",
          "name": "",
          "type": "address"
        },
        {
          "internalType": "address",
          "name": "",
          "type": "address"
        }
      ],
      "name": "claimed",
      "outputs": [
        {
          "internalType": "bool",
          "name": "",
          "type": "bool"
        }
      ],
      "stateMutability": "view",
      "type": "function",
      "constant": true
    },
    {
      "inputs": [
        {
          "internalType": "uint256",
          "name": "",
          "type": "uint256"
        }
      ],
      "name": "epochBlockHashes",
      "outputs": [
        {
          "internalType": "bytes32",
          "name": "",
          "type": "bytes32"
        }
      ],
      "stateMutability": "view",
      "type": "function",
      "constant": true
    },
    {
      "inputs": [
        {
          "internalType": "uint256",
          "name": "",
          "type": "uint256"
        }
      ],
      "name": "epochMerkleRoots",
      "outputs": [
        {
          "internalType": "bytes32",
          "name": "",
          "type": "bytes32"
        }
      ],
      "stateMutability": "view",
      "type": "function",
      "constant": true
    },
    {
      "inputs": [
        {
          "internalType": "uint256",
          "name": "",
          "type": "uint256"
        }
      ],
      "name": "epochTimestamps",
      "outputs": [
        {
          "internalType": "uint256",
          "name": "",
          "type": "uint256"
        }
      ],
      "stateMutability": "view",
      "type": "function",
      "constant": true
    },
    {
      "inputs": [],
      "name": "owner",
      "outputs": [
        {
          "internalType": "address",
          "name": "",
          "type": "address"
        }
      ],
      "stateMutability": "view",
      "type": "function",
      "constant": true
    },
    {
      "inputs": [],
      "name": "tokenAddress",
      "outputs": [
        {
          "internalType": "address",
          "name": "",
          "type": "address"
        }
      ],
      "stateMutability": "view",
      "type": "function",
      "constant": true
    },
    {
      "inputs": [
        {
          "internalType": "uint256",
          "name": "",
          "type": "uint256"
        }
      ],
      "name": "tokens",
      "outputs": [
        {
          "internalType": "address",
          "name": "",
          "type": "address"
        }
      ],
      "stateMutability": "view",
      "type": "function",
      "constant": true
    },
    {
      "inputs": [
        {
          "internalType": "address",
          "name": "_token",
          "type": "address"
        }
      ],
      "name": "verify",
      "outputs": [],
      "stateMutability": "nonpayable",
      "type": "function"
    },
    {
      "inputs": [
        {
          "internalType": "address",
          "name": "_token",
          "type": "address"
        }
      ],
      "name": "verified",
      "outputs": [
        {
          "internalType": "bool",
          "name": "",
          "type": "bool"
        }
      ],
      "stateMutability": "nonpayable",
      "type": "function"
    },
    {
      "inputs": [
        {
          "internalType": "address",
          "name": "user",
          "type": "address"
        },
        {
          "internalType": "uint256",
          "name": "_epoch",
          "type": "uint256"
        }
      ],
      "name": "offsetRequirementMet",
      "outputs": [
        {
          "internalType": "bool",
          "name": "",
          "type": "bool"
        }
      ],
      "stateMutability": "view",
      "type": "function",
      "constant": true
    },
    {
      "inputs": [
        {
          "internalType": "address",
          "name": "_liquidityProvider",
          "type": "address"
        },
        {
          "internalType": "uint256",
          "name": "_epoch",
          "type": "uint256"
        },
        {
          "internalType": "address",
          "name": "_token",
          "type": "address"
        },
        {
          "internalType": "uint256",
          "name": "_claimedBalance",
          "type": "uint256"
        },
        {
          "internalType": "bytes32[]",
          "name": "_merkleProof",
          "type": "bytes32[]"
        }
      ],
      "name": "claimEpoch",
      "outputs": [],
      "stateMutability": "nonpayable",
      "type": "function"
    },
    {
      "inputs": [
        {
          "internalType": "address",
          "name": "_liquidityProvider",
          "type": "address"
        },
        {
          "components": [
            {
              "internalType": "uint256",
              "name": "epoch",
              "type": "uint256"
            },
            {
              "internalType": "address",
              "name": "token",
              "type": "address"
            },
            {
              "internalType": "uint256",
              "name": "balance",
              "type": "uint256"
            },
            {
              "internalType": "bytes32[]",
              "name": "merkleProof",
              "type": "bytes32[]"
            }
          ],
          "internalType": "struct MerkleRedeem.Claim[]",
          "name": "claims",
          "type": "tuple[]"
        }
      ],
      "name": "claimEpochs",
      "outputs": [],
      "stateMutability": "nonpayable",
      "type": "function"
    },
    {
      "inputs": [
        {
          "internalType": "address",
          "name": "_liquidityProvider",
          "type": "address"
        },
        {
          "internalType": "address",
          "name": "_token",
          "type": "address"
        },
        {
          "internalType": "uint256",
          "name": "_begin",
          "type": "uint256"
        },
        {
          "internalType": "uint256",
          "name": "_end",
          "type": "uint256"
        }
      ],
      "name": "claimStatus",
      "outputs": [
        {
          "internalType": "bool[]",
          "name": "",
          "type": "bool[]"
        }
      ],
      "stateMutability": "view",
      "type": "function",
      "constant": true
    },
    {
      "inputs": [
        {
          "internalType": "uint256",
          "name": "_begin",
          "type": "uint256"
        },
        {
          "internalType": "uint256",
          "name": "_end",
          "type": "uint256"
        }
      ],
      "name": "merkleRoots",
      "outputs": [
        {
          "internalType": "bytes32[]",
          "name": "",
          "type": "bytes32[]"
        }
      ],
      "stateMutability": "view",
      "type": "function",
      "constant": true
    },
    {
      "inputs": [
        {
          "internalType": "address",
          "name": "_liquidityProvider",
          "type": "address"
        },
        {
          "internalType": "uint256",
          "name": "_epoch",
          "type": "uint256"
        },
        {
          "internalType": "address",
          "name": "_token",
          "type": "address"
        },
        {
          "internalType": "uint256",
          "name": "_claimedBalance",
          "type": "uint256"
        },
        {
          "internalType": "bytes32[]",
          "name": "_merkleProof",
          "type": "bytes32[]"
        }
      ],
      "name": "verifyClaim",
      "outputs": [
        {
          "internalType": "bool",
          "name": "valid",
          "type": "bool"
        }
      ],
      "stateMutability": "view",
      "type": "function",
      "constant": true
    },
    {
      "inputs": [
        {
          "internalType": "address",
          "name": "_liquidityProvider",
          "type": "address"
        },
        {
          "internalType": "bytes32",
          "name": "_epochBlockHash",
          "type": "bytes32"
        }
      ],
      "name": "userEpochOffset",
      "outputs": [
        {
          "internalType": "uint256",
          "name": "offset",
          "type": "uint256"
        }
      ],
      "stateMutability": "pure",
      "type": "function",
      "constant": true
    },
    {
      "inputs": [
        {
          "internalType": "uint256",
          "name": "_epoch",
          "type": "uint256"
        },
        {
          "internalType": "uint256",
          "name": "_timestamp",
          "type": "uint256"
        },
        {
          "internalType": "bytes32",
          "name": "_blockHash",
          "type": "bytes32"
        }
      ],
      "name": "finishEpoch",
      "outputs": [],
      "stateMutability": "nonpayable",
      "type": "function"
    },
    {
      "inputs": [
        {
          "internalType": "uint256",
          "name": "_epoch",
          "type": "uint256"
        },
        {
          "internalType": "bytes32",
          "name": "_merkleRoot",
          "type": "bytes32"
        }
      ],
      "name": "seedAllocations",
      "outputs": [],
      "stateMutability": "nonpayable",
      "type": "function"
    }
  ],
  "bytecode": "0x608060405234801561001057600080fd5b5033600160006101000a81548173ffffffffffffffffffffffffffffffffffffffff021916908373ffffffffffffffffffffffffffffffffffffffff1602179055506122d2806100616000396000f3fe608060405234801561001057600080fd5b50600436106101165760003560e01c80639a76001f116100a2578063c8c89cf211610071578063c8c89cf214610317578063e3a326a214610333578063e78285e914610363578063eb18eb6614610393578063f3215b2e146103c357610116565b80639a76001f1461027d5780639d76ea58146102ad578063b179f7d9146102cb578063c44faa3f146102fb57610116565b80636309dc8b116100e95780636309dc8b146101c757806363a9c3d7146101f757806386cc977a146102135780638da5cb5b1461022f5780638e2ecc3f1461024d57610116565b80630db065f41461011b57806339436b001461014b5780634476aed41461017b5780634f64b2be14610197575b600080fd5b610135600480360361013091908101906117ad565b6103f3565b6040516101429190611f70565b60405180910390f35b61016560048036036101609190810190611a71565b610495565b6040516101729190611f4e565b60405180910390f35b61019560048036036101909190810190611a35565b61052a565b005b6101b160048036036101ac91908101906119bd565b610698565b6040516101be9190611ee8565b60405180910390f35b6101e160048036036101dc91908101906119bd565b6106d4565b6040516101ee9190611f8b565b60405180910390f35b610211600480360361020c91908101906117ad565b6106ec565b005b61022d60048036036102289190810190611aad565b610869565b005b610237610940565b6040516102449190611ee8565b60405180910390f35b610267600480360361026291908101906119bd565b610966565b6040516102749190612066565b60405180910390f35b6102976004803603610292919081019061188d565b61097e565b6040516102a49190612066565b60405180910390f35b6102b56109be565b6040516102c29190611ee8565b60405180910390f35b6102e560048036036102e091908101906119bd565b6109e3565b6040516102f29190611f8b565b60405180910390f35b61031560048036036103109190810190611839565b6109fb565b005b610331600480360361032c9190810190611905565b610eb9565b005b61034d60048036036103489190810190611905565b611145565b60405161035a9190611f70565b60405180910390f35b61037d600480360361037891908101906117d6565b61119f565b60405161038a9190611f2c565b60405180910390f35b6103ad60048036036103a891908101906119e6565b6112c3565b6040516103ba9190611f70565b60405180910390f35b6103dd60048036036103d891908101906118c9565b6112ff565b6040516103ea9190611f70565b60405180910390f35b600080600090505b60078054905081101561048a576007818154811061041557fe5b9060005260206000200160009054906101000a900473ffffffffffffffffffffffffffffffffffffffff1673ffffffffffffffffffffffffffffffffffffffff168373ffffffffffffffffffffffffffffffffffffffff16141561047d576001915050610490565b80806001019150506103fb565b50600090505b919050565b6060600083836001010390506060816040519080825280602002602001820160405280156104d25781602001602082028038833980820191505090505b50905060008090505b8281101561051e576003600082880181526020019081526020016000205482828151811061050557fe5b60200260200101818152505080806001019150506104db565b50809250505092915050565b8160006004600083815260200190815260200160002054141561054c57600080fd5b6000801b6005600083815260200190815260200160002054141561056f57600080fd5b826000801b60036000838152602001908152602001600020541461059257600080fd5b600160009054906101000a900473ffffffffffffffffffffffffffffffffffffffff1673ffffffffffffffffffffffffffffffffffffffff163373ffffffffffffffffffffffffffffffffffffffff1614610622576040517f08c379a000000000000000000000000000000000000000000000000000000000815260040161061990612006565b60405180910390fd5b6000801b60036000868152602001908152602001600020541461067a576040517f08c379a000000000000000000000000000000000000000000000000000000000815260040161067190612046565b60405180910390fd5b82600360008681526020019081526020016000208190555050505050565b600781815481106106a557fe5b906000526020600020016000915054906101000a900473ffffffffffffffffffffffffffffffffffffffff1681565b60056020528060005260406000206000915090505481565b600160009054906101000a900473ffffffffffffffffffffffffffffffffffffffff1673ffffffffffffffffffffffffffffffffffffffff163373ffffffffffffffffffffffffffffffffffffffff161461077c576040517f08c379a000000000000000000000000000000000000000000000000000000000815260040161077390612006565b60405180910390fd5b806000151561078a826103f3565b15151461079657600080fd5b8173ffffffffffffffffffffffffffffffffffffffff16633336419760016040518263ffffffff1660e01b81526004016107d09190611f70565b600060405180830381600087803b1580156107ea57600080fd5b505af11580156107fe573d6000803e3d6000fd5b505050506007829080600181540180825580915050600190039060005260206000200160009091909190916101000a81548173ffffffffffffffffffffffffffffffffffffffff021916908373ffffffffffffffffffffffffffffffffffffffff1602179055505050565b600160009054906101000a900473ffffffffffffffffffffffffffffffffffffffff1673ffffffffffffffffffffffffffffffffffffffff163373ffffffffffffffffffffffffffffffffffffffff16146108f9576040517f08c379a00000000000000000000000000000000000000000000000000000000081526004016108f090612006565b60405180910390fd5b81600460008581526020019081526020016000208190555080600560008581526020019081526020016000208190555060025483111561093b57826002819055505b505050565b600160009054906101000a900473ffffffffffffffffffffffffffffffffffffffff1681565b60046020528060005260406000206000915090505481565b6000808383604051602001610994929190611e90565b60405160208183030381529060405280519060200120905062015180810691508191505092915050565b6000809054906101000a900473ffffffffffffffffffffffffffffffffffffffff1681565b60036020528060005260406000206000915090505481565b610a03611515565b606060008090505b8351811015610dcb57838181518110610a2057fe5b6020026020010151925060025483600001511115610a73576040517f08c379a0000000000000000000000000000000000000000000000000000000008152600401610a6a90612026565b60405180910390fd5b60006004600085600001518152602001908152602001600020541415610a9857600080fd5b6000801b6005600085600001518152602001908152602001600020541415610abf57600080fd5b60025483600001511415610b1957610ad9856002546112ff565b610b18576040517f08c379a0000000000000000000000000000000000000000000000000000000008152600401610b0f90611fe6565b60405180910390fd5b5b600660008460000151815260200190815260200160002060008673ffffffffffffffffffffffffffffffffffffffff1673ffffffffffffffffffffffffffffffffffffffff1681526020019081526020016000206000846020015173ffffffffffffffffffffffffffffffffffffffff1673ffffffffffffffffffffffffffffffffffffffff16815260200190815260200160002060009054906101000a900460ff1615610bc657600080fd5b610be3858460000151856020015186604001518760600151611145565b610c22576040517f08c379a0000000000000000000000000000000000000000000000000000000008152600401610c1990611fa6565b60405180910390fd5b600060086000856020015173ffffffffffffffffffffffffffffffffffffffff1673ffffffffffffffffffffffffffffffffffffffff168152602001908152602001600020541415610cbb57826020015182835181518110610c8057fe5b602002602001019073ffffffffffffffffffffffffffffffffffffffff16908173ffffffffffffffffffffffffffffffffffffffff16815250505b826040015160086000856020015173ffffffffffffffffffffffffffffffffffffffff1673ffffffffffffffffffffffffffffffffffffffff168152602001908152602001600020600082825401925050819055506001600660008560000151815260200190815260200160002060008773ffffffffffffffffffffffffffffffffffffffff1673ffffffffffffffffffffffffffffffffffffffff1681526020019081526020016000206000856020015173ffffffffffffffffffffffffffffffffffffffff1673ffffffffffffffffffffffffffffffffffffffff16815260200190815260200160002060006101000a81548160ff0219169083151502179055508080600101915050610a0b565b5060008090505b8151811015610eae57610e4b85838381518110610deb57fe5b602002602001015160086000868681518110610e0357fe5b602002602001015173ffffffffffffffffffffffffffffffffffffffff1673ffffffffffffffffffffffffffffffffffffffff16815260200190815260200160002054611354565b60086000838381518110610e5b57fe5b602002602001015173ffffffffffffffffffffffffffffffffffffffff1673ffffffffffffffffffffffffffffffffffffffff168152602001908152602001600020600090558080600101915050610dd2565b506060905050505050565b83600254811115610eff576040517f08c379a0000000000000000000000000000000000000000000000000000000008152600401610ef690612026565b60405180910390fd5b84600060046000838152602001908152602001600020541415610f2157600080fd5b6000801b60056000838152602001908152602001600020541415610f4457600080fd5b600254861415610f9a57610f5a876002546112ff565b610f99576040517f08c379a0000000000000000000000000000000000000000000000000000000008152600401610f9090611fe6565b60405180910390fd5b5b6006600087815260200190815260200160002060008873ffffffffffffffffffffffffffffffffffffffff1673ffffffffffffffffffffffffffffffffffffffff16815260200190815260200160002060008673ffffffffffffffffffffffffffffffffffffffff1673ffffffffffffffffffffffffffffffffffffffff16815260200190815260200160002060009054906101000a900460ff161561103f57600080fd5b61104c8787878787611145565b61108b576040517f08c379a000000000000000000000000000000000000000000000000000000000815260040161108290611fa6565b60405180910390fd5b60016006600088815260200190815260200160002060008973ffffffffffffffffffffffffffffffffffffffff1673ffffffffffffffffffffffffffffffffffffffff16815260200190815260200160002060008773ffffffffffffffffffffffffffffffffffffffff1673ffffffffffffffffffffffffffffffffffffffff16815260200190815260200160002060006101000a81548160ff02191690831515021790555061113c878686611354565b50505050505050565b60008086858560405160200161115d93929190611e53565b60405160208183030381529060405280519060200120905061119383600360008981526020019081526020016000205483611469565b91505095945050505050565b6060600083836001010390506060816040519080825280602002602001820160405280156111dc5781602001602082028038833980820191505090505b50905060008090505b828110156112b55760066000828801815260200190815260200160002060008973ffffffffffffffffffffffffffffffffffffffff1673ffffffffffffffffffffffffffffffffffffffff16815260200190815260200160002060008873ffffffffffffffffffffffffffffffffffffffff1673ffffffffffffffffffffffffffffffffffffffff16815260200190815260200160002060009054906101000a900460ff1682828151811061129657fe5b60200260200101901515908115158152505080806001019150506111e5565b508092505050949350505050565b6006602052826000526040600020602052816000526040600020602052806000526040600020600092509250509054906101000a900460ff1681565b60008060056000848152602001908152602001600020549050600060046000858152602001908152602001600020549050600061133c868461097e565b90506000818301905042811094505050505092915050565b6000811115611429578173ffffffffffffffffffffffffffffffffffffffff1663a9059cbb84836040518363ffffffff1660e01b8152600401611398929190611f03565b602060405180830381600087803b1580156113b257600080fd5b505af11580156113c6573d6000803e3d6000fd5b505050506040513d601f19601f820116820180604052506113ea9190810190611994565b507fd8138f8a3f377c5259ca548e70e4c2de94f129f5a11036a15b69513cba2b426a838260405161141c929190611f03565b60405180910390a1611464565b6040517f08c379a000000000000000000000000000000000000000000000000000000000815260040161145b90611fc6565b60405180910390fd5b505050565b60008082905060008090505b855181101561150757600086828151811061148c57fe5b602002602001015190508083116114cd5782816040516020016114b0929190611ebc565b6040516020818303038152906040528051906020012092506114f9565b80836040516020016114e0929190611ebc565b6040516020818303038152906040528051906020012092505b508080600101915050611475565b508381149150509392505050565b604051806080016040528060008152602001600073ffffffffffffffffffffffffffffffffffffffff16815260200160008152602001606081525090565b60008135905061156281612240565b92915050565b600082601f83011261157957600080fd5b813561158c611587826120ae565b612081565b915081818352602084019350602081019050838560208402820111156115b157600080fd5b60005b838110156115e157816115c788826116f7565b8452602084019350602083019250506001810190506115b4565b5050505092915050565b600082601f8301126115fc57600080fd5b813561160f61160a826120d6565b612081565b9150818183526020840193506020810190508385602084028201111561163457600080fd5b60005b83811015611664578161164a88826116f7565b845260208401935060208301925050600181019050611637565b5050505092915050565b600082601f83011261167f57600080fd5b813561169261168d826120fe565b612081565b9150818183526020840193506020810190508360005b838110156116d857813586016116be888261170c565b8452602084019350602083019250506001810190506116a8565b5050505092915050565b6000815190506116f181612257565b92915050565b6000813590506117068161226e565b92915050565b60006080828403121561171e57600080fd5b6117286080612081565b9050600061173884828501611798565b600083015250602061174c84828501611553565b602083015250604061176084828501611798565b604083015250606082013567ffffffffffffffff81111561178057600080fd5b61178c84828501611568565b60608301525092915050565b6000813590506117a781612285565b92915050565b6000602082840312156117bf57600080fd5b60006117cd84828501611553565b91505092915050565b600080600080608085870312156117ec57600080fd5b60006117fa87828801611553565b945050602061180b87828801611553565b935050604061181c87828801611798565b925050606061182d87828801611798565b91505092959194509250565b6000806040838503121561184c57600080fd5b600061185a85828601611553565b925050602083013567ffffffffffffffff81111561187757600080fd5b6118838582860161166e565b9150509250929050565b600080604083850312156118a057600080fd5b60006118ae85828601611553565b92505060206118bf858286016116f7565b9150509250929050565b600080604083850312156118dc57600080fd5b60006118ea85828601611553565b92505060206118fb85828601611798565b9150509250929050565b600080600080600060a0868803121561191d57600080fd5b600061192b88828901611553565b955050602061193c88828901611798565b945050604061194d88828901611553565b935050606061195e88828901611798565b925050608086013567ffffffffffffffff81111561197b57600080fd5b611987888289016115eb565b9150509295509295909350565b6000602082840312156119a657600080fd5b60006119b4848285016116e2565b91505092915050565b6000602082840312156119cf57600080fd5b60006119dd84828501611798565b91505092915050565b6000806000606084860312156119fb57600080fd5b6000611a0986828701611798565b9350506020611a1a86828701611553565b9250506040611a2b86828701611553565b9150509250925092565b60008060408385031215611a4857600080fd5b6000611a5685828601611798565b9250506020611a67858286016116f7565b9150509250929050565b60008060408385031215611a8457600080fd5b6000611a9285828601611798565b9250506020611aa385828601611798565b9150509250929050565b600080600060608486031215611ac257600080fd5b6000611ad086828701611798565b9350506020611ae186828701611798565b9250506040611af2868287016116f7565b9150509250925092565b6000611b088383611c0e565b60208301905092915050565b6000611b208383611c2c565b60208301905092915050565b611b35816121a9565b82525050565b611b4c611b47826121a9565b6121fb565b82525050565b6000611b5d82612146565b611b678185612176565b9350611b7283612126565b8060005b83811015611ba3578151611b8a8882611afc565b9750611b958361215c565b925050600181019050611b76565b5085935050505092915050565b6000611bbb82612151565b611bc58185612187565b9350611bd083612136565b8060005b83811015611c01578151611be88882611b14565b9750611bf383612169565b925050600181019050611bd4565b5085935050505092915050565b611c17816121bb565b82525050565b611c26816121bb565b82525050565b611c35816121c7565b82525050565b611c44816121c7565b82525050565b611c5b611c56826121c7565b61220d565b82525050565b6000611c6e601683612198565b91507f496e636f7272656374206d65726b6c652070726f6f66000000000000000000006000830152602082019050919050565b6000611cae603983612198565b91507f4e6f2062616c616e636520776f756c64206265207472616e736665726564202d60008301527f206e6f7420676f6e6e6120776173746520796f757220676173000000000000006020830152604082019050919050565b6000611d14602e83612198565b91507f497420697320746f6f206561726c7920746f20636c61696d20666f722074686560008301527f2063757272656e742065706f63680000000000000000000000000000000000006020830152604082019050919050565b6000611d7a601a83612198565b91507f4d7573742062652074686520636f6e7472616374206f776e65720000000000006000830152602082019050919050565b6000611dba601d83612198565b91507f45706f63682063616e6e6f7420626520696e20746865206675747572650000006000830152602082019050919050565b6000611dfa601a83612198565b91507f63616e6e6f742072657772697465206d65726b6c6520726f6f740000000000006000830152602082019050919050565b611e36816121f1565b82525050565b611e4d611e48826121f1565b612229565b82525050565b6000611e5f8286611b3b565b601482019150611e6f8285611b3b565b601482019150611e7f8284611e3c565b602082019150819050949350505050565b6000611e9c8285611b3b565b601482019150611eac8284611c4a565b6020820191508190509392505050565b6000611ec88285611c4a565b602082019150611ed88284611c4a565b6020820191508190509392505050565b6000602082019050611efd6000830184611b2c565b92915050565b6000604082019050611f186000830185611b2c565b611f256020830184611e2d565b9392505050565b60006020820190508181036000830152611f468184611b52565b905092915050565b60006020820190508181036000830152611f688184611bb0565b905092915050565b6000602082019050611f856000830184611c1d565b92915050565b6000602082019050611fa06000830184611c3b565b92915050565b60006020820190508181036000830152611fbf81611c61565b9050919050565b60006020820190508181036000830152611fdf81611ca1565b9050919050565b60006020820190508181036000830152611fff81611d07565b9050919050565b6000602082019050818103600083015261201f81611d6d565b9050919050565b6000602082019050818103600083015261203f81611dad565b9050919050565b6000602082019050818103600083015261205f81611ded565b9050919050565b600060208201905061207b6000830184611e2d565b92915050565b6000604051905081810181811067ffffffffffffffff821117156120a457600080fd5b8060405250919050565b600067ffffffffffffffff8211156120c557600080fd5b602082029050602081019050919050565b600067ffffffffffffffff8211156120ed57600080fd5b602082029050602081019050919050565b600067ffffffffffffffff82111561211557600080fd5b602082029050602081019050919050565b6000819050602082019050919050565b6000819050602082019050919050565b600081519050919050565b600081519050919050565b6000602082019050919050565b6000602082019050919050565b600082825260208201905092915050565b600082825260208201905092915050565b600082825260208201905092915050565b60006121b4826121d1565b9050919050565b60008115159050919050565b6000819050919050565b600073ffffffffffffffffffffffffffffffffffffffff82169050919050565b6000819050919050565b600061220682612217565b9050919050565b6000819050919050565b600061222282612233565b9050919050565b6000819050919050565b60008160601b9050919050565b612249816121a9565b811461225457600080fd5b50565b612260816121bb565b811461226b57600080fd5b50565b612277816121c7565b811461228257600080fd5b50565b61228e816121f1565b811461229957600080fd5b5056fea26469706673582212205617a2fa4d9795d71ffddf11a408097358cbeb9554a27620eb63c658b3caddd764736f6c63430006000033",
  "source": "pragma solidity 0.6.0;\npragma experimental ABIEncoderV2;\n\nimport \"@openzeppelin/contracts/cryptography/MerkleProof.sol\";\nimport \"./IERC20.sol\";\nimport \"./ISwapXToken.sol\";\n\ncontract MerkleRedeem {\n    address public tokenAddress;\n    address public owner;\n\n    event Claimed(address _claimant, uint256 _balance);\n\n    // Recorded epochs\n    uint256 latestEpoch;\n    mapping(uint256 => bytes32) public epochMerkleRoots;\n    mapping(uint256 => uint256) public epochTimestamps;\n    mapping(uint256 => bytes32) public epochBlockHashes;\n    mapping(uint256 => mapping(address => mapping(address => bool))) public claimed;\n\n    address[] public tokens;\n\n    constructor() public {\n        owner = msg.sender;\n    }\n\n    modifier onlyOwner() {\n        require(msg.sender == owner, \"Must be the contract owner\");\n        _;\n    }\n\n    modifier requireEpochInPast(uint256 epoch) {\n        require(epoch <= latestEpoch, \"Epoch cannot be in the future\");\n        _;\n    }\n\n    modifier requireEpochRecorded(uint256 _epoch) {\n        require(epochTimestamps[_epoch] != 0);\n        require(epochBlockHashes[_epoch] != 0);\n        _;\n    }\n\n    modifier requireMerkleRootUnset(uint256 _epoch) {\n        require(epochMerkleRoots[_epoch] == bytes32(0));\n        _;\n    }\n\n    modifier requireUnverified(address _token) {\n        require(verified(_token) == false);\n        _;\n    }\n\n    function verify(address _token) external onlyOwner requireUnverified(_token) {\n        ISwapXToken(_token).verify(true);\n        tokens.push(_token);\n    }\n\n    function verified(address _token) public returns (bool) {\n        for (uint256 i = 0; i < tokens.length; i++) {\n            if (_token == tokens[i]) {\n                return true;\n            }\n        }\n        return false;\n    }\n\n    function disburse(address _liquidityProvider, address _token,uint256 _balance) private {\n        if (_balance > 0) {\n            IERC20(_token).transfer(_liquidityProvider, _balance);\n            emit Claimed(_liquidityProvider, _balance);\n        } else {\n            revert(\"No balance would be transfered - not gonna waste your gas\");\n        }\n    }\n\n    function offsetRequirementMet(address user, uint256 _epoch)\n        public\n        view\n        returns (bool)\n    {\n        bytes32 blockHash = epochBlockHashes[_epoch];\n        uint256 timestamp = epochTimestamps[_epoch];\n        uint256 offsetSeconds = userEpochOffset(user, blockHash);\n\n        uint256 earliestClaimableTimestamp = timestamp + offsetSeconds;\n        return earliestClaimableTimestamp < block.timestamp;\n    }\n\n    function claimEpoch(\n        address _liquidityProvider,\n        uint256 _epoch,\n        address _token,\n        uint256 _claimedBalance,\n        bytes32[] memory _merkleProof\n    ) public requireEpochInPast(_epoch) requireEpochRecorded(_epoch) {\n        // if trying to claim for the current epoch\n        if (_epoch == latestEpoch) {\n            require(\n                offsetRequirementMet(_liquidityProvider, latestEpoch),\n                \"It is too early to claim for the current epoch\"\n            );\n        }\n\n        require(!claimed[_epoch][_liquidityProvider][_token]);\n        require(\n            verifyClaim(\n                _liquidityProvider,\n                _epoch,\n                _token,\n                _claimedBalance,\n                _merkleProof\n            ),\n            \"Incorrect merkle proof\"\n        );\n\n        claimed[_epoch][_liquidityProvider][_token] = true;\n        disburse(_liquidityProvider, _token,_claimedBalance);\n    }\n\n    struct Claim {\n        uint256 epoch;\n        address token;\n        uint256 balance;\n        bytes32[] merkleProof;\n    }\n\n    mapping(address => uint256) tokenTotalBalances;  //temp mapping\n\n  \n    function claimEpochs(address _liquidityProvider, Claim[] memory claims)\n        public\n    {\n        Claim memory claim;\n        address[] memory _tokens;\n        for (uint256 i = 0; i < claims.length; i++) {\n            claim = claims[i];\n            require(\n                claim.epoch <= latestEpoch,\n                \"Epoch cannot be in the future\"\n            );\n            require(epochTimestamps[claim.epoch] != 0);\n            require(epochBlockHashes[claim.epoch] != 0);\n\n            // if trying to claim for the current epoch\n            if (claim.epoch == latestEpoch) {\n                require(\n                    offsetRequirementMet(_liquidityProvider, latestEpoch),\n                    \"It is too early to claim for the current epoch\"\n                );\n            }\n\n            require(!claimed[claim.epoch][_liquidityProvider][claim.token]);\n            require(\n                verifyClaim(\n                    _liquidityProvider,\n                    claim.epoch,\n                    claim.token,\n                    claim.balance,\n                    claim.merkleProof\n                ),\n                \"Incorrect merkle proof\"\n            );\n\n            if (tokenTotalBalances[claim.token] == uint256(0)) {\n                _tokens[_tokens.length]=claim.token;\n            }\n\n            tokenTotalBalances[claim.token] += claim.balance;\n\n            claimed[claim.epoch][_liquidityProvider][claim.token] = true;\n        }\n\n        for (uint256 i = 0; i < _tokens.length; i++) {\n            disburse(\n                _liquidityProvider,\n                _tokens[i],\n                tokenTotalBalances[_tokens[i]]\n            );\n\n            delete tokenTotalBalances[_tokens[i]];\n        }\n        delete _tokens;\n    }\n\n    function claimStatus(\n        address _liquidityProvider,\n        address _token,\n        uint256 _begin,\n        uint256 _end\n    ) public view returns (bool[] memory) {\n        uint256 size = 1 + _end - _begin;\n        bool[] memory arr = new bool[](size);\n        for (uint256 i = 0; i < size; i++) {\n            arr[i] = claimed[_begin + i][_liquidityProvider][_token];\n        }\n        return arr;\n    }\n\n    function merkleRoots(uint256 _begin, uint256 _end)\n        public\n        view\n        returns (bytes32[] memory)\n    {\n        uint256 size = 1 + _end - _begin;\n        bytes32[] memory arr = new bytes32[](size);\n        for (uint256 i = 0; i < size; i++) {\n            arr[i] = epochMerkleRoots[_begin + i];\n        }\n        return arr;\n    }\n\n    function verifyClaim(\n        address _liquidityProvider,\n        uint256 _epoch,\n        address _token,\n        uint256 _claimedBalance,\n        bytes32[] memory _merkleProof\n    ) public view returns (bool valid) {\n        bytes32 leaf = keccak256(\n            abi.encodePacked(_liquidityProvider, _token,_claimedBalance)\n        );\n        return MerkleProof.verify(_merkleProof, epochMerkleRoots[_epoch], leaf);\n    }\n\n    function userEpochOffset(\n        address _liquidityProvider,\n        bytes32 _epochBlockHash\n    ) public pure returns (uint256 offset) {\n        bytes32 hash = keccak256(\n            abi.encodePacked(_liquidityProvider, _epochBlockHash)\n        );\n        assembly {\n            offset := mod(\n                hash,\n                86400 // seconds in a epoch\n            )\n        }\n        return offset;\n    }\n\n    function finishEpoch(\n        uint256 _epoch,\n        uint256 _timestamp,\n        bytes32 _blockHash\n    ) public onlyOwner {\n        epochTimestamps[_epoch] = _timestamp;\n        epochBlockHashes[_epoch] = _blockHash;\n        if (_epoch > latestEpoch) {\n            // just in case we get these out of order\n            latestEpoch = _epoch;\n        }\n    }\n\n    function seedAllocations(uint256 _epoch, bytes32 _merkleRoot)\n        external\n        requireEpochRecorded(_epoch)\n        requireMerkleRootUnset(_epoch)\n        onlyOwner\n    {\n        require(\n            epochMerkleRoots[_epoch] == bytes32(0),\n            \"cannot rewrite merkle root\"\n        );\n        epochMerkleRoots[_epoch] = _merkleRoot;\n    }\n}\n",
  "sourcePath": "/Users/lisheng/Downloads/defi/balancer/erc20-redeemable-master/merkle/contracts/MerkleRedeem.sol",
  "compiler": {
    "name": "solc",
    "version": "0.6.0+commit.26b70077.Emscripten.clang"
  },
  "schemaVersion": "3.2.3",
  "updatedAt": "2020-08-27T05:49:07.853Z",
  "networkType": "ethereum",
  "devdoc": {
    "methods": {}
  },
  "userdoc": {
    "methods": {}
  }
}