{
  "contractName": "Validators",
  "abi": [
    {
      "anonymous": false,
      "inputs": [
        {
          "indexed": true,
          "internalType": "address",
          "name": "val",
          "type": "address"
        },
        {
          "indexed": false,
          "internalType": "uint256",
          "name": "time",
          "type": "uint256"
        }
      ],
      "name": "LogAddToTopValidators",
      "type": "event"
    },
    {
      "anonymous": false,
      "inputs": [
        {
          "indexed": true,
          "internalType": "address",
          "name": "val",
          "type": "address"
        },
        {
          "indexed": true,
          "internalType": "address",
          "name": "fee",
          "type": "address"
        },
        {
          "indexed": false,
          "internalType": "uint256",
          "name": "time",
          "type": "uint256"
        }
      ],
      "name": "LogCreateValidator",
      "type": "event"
    },
    {
      "anonymous": false,
      "inputs": [
        {
          "indexed": true,
          "internalType": "address",
          "name": "coinbase",
          "type": "address"
        },
        {
          "indexed": false,
          "internalType": "uint256",
          "name": "blockReward",
          "type": "uint256"
        },
        {
          "indexed": false,
          "internalType": "uint256",
          "name": "time",
          "type": "uint256"
        }
      ],
      "name": "LogDistributeBlockReward",
      "type": "event"
    },
    {
      "anonymous": false,
      "inputs": [
        {
          "indexed": true,
          "internalType": "address",
          "name": "val",
          "type": "address"
        },
        {
          "indexed": true,
          "internalType": "address",
          "name": "fee",
          "type": "address"
        },
        {
          "indexed": false,
          "internalType": "uint256",
          "name": "time",
          "type": "uint256"
        }
      ],
      "name": "LogEditValidator",
      "type": "event"
    },
    {
      "anonymous": false,
      "inputs": [
        {
          "indexed": true,
          "internalType": "address",
          "name": "val",
          "type": "address"
        },
        {
          "indexed": false,
          "internalType": "uint256",
          "name": "time",
          "type": "uint256"
        }
      ],
      "name": "LogReactive",
      "type": "event"
    },
    {
      "anonymous": false,
      "inputs": [
        {
          "indexed": true,
          "internalType": "address",
          "name": "val",
          "type": "address"
        },
        {
          "indexed": false,
          "internalType": "uint256",
          "name": "time",
          "type": "uint256"
        }
      ],
      "name": "LogRemoveFromTopValidators",
      "type": "event"
    },
    {
      "anonymous": false,
      "inputs": [
        {
          "indexed": true,
          "internalType": "address",
          "name": "val",
          "type": "address"
        },
        {
          "indexed": false,
          "internalType": "uint256",
          "name": "hb",
          "type": "uint256"
        },
        {
          "indexed": false,
          "internalType": "uint256",
          "name": "time",
          "type": "uint256"
        }
      ],
      "name": "LogRemoveValidator",
      "type": "event"
    },
    {
      "anonymous": false,
      "inputs": [
        {
          "indexed": true,
          "internalType": "address",
          "name": "val",
          "type": "address"
        },
        {
          "indexed": false,
          "internalType": "uint256",
          "name": "hb",
          "type": "uint256"
        },
        {
          "indexed": false,
          "internalType": "uint256",
          "name": "time",
          "type": "uint256"
        }
      ],
      "name": "LogRemoveValidatorIncoming",
      "type": "event"
    },
    {
      "anonymous": false,
      "inputs": [
        {
          "indexed": true,
          "internalType": "address",
          "name": "staker",
          "type": "address"
        },
        {
          "indexed": true,
          "internalType": "address",
          "name": "val",
          "type": "address"
        },
        {
          "indexed": false,
          "internalType": "uint256",
          "name": "staking",
          "type": "uint256"
        },
        {
          "indexed": false,
          "internalType": "uint256",
          "name": "time",
          "type": "uint256"
        }
      ],
      "name": "LogStake",
      "type": "event"
    },
    {
      "anonymous": false,
      "inputs": [
        {
          "indexed": true,
          "internalType": "address",
          "name": "staker",
          "type": "address"
        },
        {
          "indexed": true,
          "internalType": "address",
          "name": "val",
          "type": "address"
        },
        {
          "indexed": false,
          "internalType": "uint256",
          "name": "amount",
          "type": "uint256"
        },
        {
          "indexed": false,
          "internalType": "uint256",
          "name": "time",
          "type": "uint256"
        }
      ],
      "name": "LogUnstake",
      "type": "event"
    },
    {
      "anonymous": false,
      "inputs": [
        {
          "indexed": false,
          "internalType": "address[]",
          "name": "newSet",
          "type": "address[]"
        }
      ],
      "name": "LogUpdateValidator",
      "type": "event"
    },
    {
      "anonymous": false,
      "inputs": [
        {
          "indexed": true,
          "internalType": "address",
          "name": "val",
          "type": "address"
        },
        {
          "indexed": true,
          "internalType": "address",
          "name": "fee",
          "type": "address"
        },
        {
          "indexed": false,
          "internalType": "uint256",
          "name": "hb",
          "type": "uint256"
        },
        {
          "indexed": false,
          "internalType": "uint256",
          "name": "time",
          "type": "uint256"
        }
      ],
      "name": "LogWithdrawProfits",
      "type": "event"
    },
    {
      "anonymous": false,
      "inputs": [
        {
          "indexed": true,
          "internalType": "address",
          "name": "staker",
          "type": "address"
        },
        {
          "indexed": true,
          "internalType": "address",
          "name": "val",
          "type": "address"
        },
        {
          "indexed": false,
          "internalType": "uint256",
          "name": "amount",
          "type": "uint256"
        },
        {
          "indexed": false,
          "internalType": "uint256",
          "name": "time",
          "type": "uint256"
        }
      ],
      "name": "LogWithdrawStaking",
      "type": "event"
    },
    {
      "inputs": [],
      "name": "MaxValidators",
      "outputs": [
        {
          "internalType": "uint16",
          "name": "",
          "type": "uint16"
        }
      ],
      "stateMutability": "view",
      "type": "function"
    },
    {
      "inputs": [],
      "name": "MinimalStakingCoin",
      "outputs": [
        {
          "internalType": "uint256",
          "name": "",
          "type": "uint256"
        }
      ],
      "stateMutability": "view",
      "type": "function"
    },
    {
      "inputs": [],
      "name": "ProposalAddr",
      "outputs": [
        {
          "internalType": "address",
          "name": "",
          "type": "address"
        }
      ],
      "stateMutability": "view",
      "type": "function"
    },
    {
      "inputs": [],
      "name": "PunishContractAddr",
      "outputs": [
        {
          "internalType": "address",
          "name": "",
          "type": "address"
        }
      ],
      "stateMutability": "view",
      "type": "function"
    },
    {
      "inputs": [],
      "name": "StakingLockPeriod",
      "outputs": [
        {
          "internalType": "uint64",
          "name": "",
          "type": "uint64"
        }
      ],
      "stateMutability": "view",
      "type": "function"
    },
    {
      "inputs": [],
      "name": "ValidatorContractAddr",
      "outputs": [
        {
          "internalType": "address",
          "name": "",
          "type": "address"
        }
      ],
      "stateMutability": "view",
      "type": "function"
    },
    {
      "inputs": [],
      "name": "WithdrawProfitPeriod",
      "outputs": [
        {
          "internalType": "uint64",
          "name": "",
          "type": "uint64"
        }
      ],
      "stateMutability": "view",
      "type": "function"
    },
    {
      "inputs": [
        {
          "internalType": "uint256",
          "name": "",
          "type": "uint256"
        }
      ],
      "name": "currentValidatorSet",
      "outputs": [
        {
          "internalType": "address",
          "name": "",
          "type": "address"
        }
      ],
      "stateMutability": "view",
      "type": "function"
    },
    {
      "inputs": [
        {
          "internalType": "uint256",
          "name": "",
          "type": "uint256"
        }
      ],
      "name": "highestValidatorsSet",
      "outputs": [
        {
          "internalType": "address",
          "name": "",
          "type": "address"
        }
      ],
      "stateMutability": "view",
      "type": "function"
    },
    {
      "inputs": [],
      "name": "initialized",
      "outputs": [
        {
          "internalType": "bool",
          "name": "",
          "type": "bool"
        }
      ],
      "stateMutability": "view",
      "type": "function"
    },
    {
      "inputs": [],
      "name": "totalJailedHB",
      "outputs": [
        {
          "internalType": "uint256",
          "name": "",
          "type": "uint256"
        }
      ],
      "stateMutability": "view",
      "type": "function"
    },
    {
      "inputs": [],
      "name": "totalStake",
      "outputs": [
        {
          "internalType": "uint256",
          "name": "",
          "type": "uint256"
        }
      ],
      "stateMutability": "view",
      "type": "function"
    },
    {
      "inputs": [
        {
          "internalType": "address[]",
          "name": "vals",
          "type": "address[]"
        }
      ],
      "name": "initialize",
      "outputs": [],
      "stateMutability": "nonpayable",
      "type": "function"
    },
    {
      "inputs": [
        {
          "internalType": "address",
          "name": "validator",
          "type": "address"
        }
      ],
      "name": "stake",
      "outputs": [
        {
          "internalType": "bool",
          "name": "",
          "type": "bool"
        }
      ],
      "stateMutability": "payable",
      "type": "function"
    },
    {
      "inputs": [
        {
          "internalType": "address payable",
          "name": "feeAddr",
          "type": "address"
        },
        {
          "internalType": "string",
          "name": "moniker",
          "type": "string"
        },
        {
          "internalType": "string",
          "name": "identity",
          "type": "string"
        },
        {
          "internalType": "string",
          "name": "website",
          "type": "string"
        },
        {
          "internalType": "string",
          "name": "email",
          "type": "string"
        },
        {
          "internalType": "string",
          "name": "details",
          "type": "string"
        }
      ],
      "name": "createOrEditValidator",
      "outputs": [
        {
          "internalType": "bool",
          "name": "",
          "type": "bool"
        }
      ],
      "stateMutability": "nonpayable",
      "type": "function"
    },
    {
      "inputs": [
        {
          "internalType": "address",
          "name": "validator",
          "type": "address"
        }
      ],
      "name": "tryReactive",
      "outputs": [
        {
          "internalType": "bool",
          "name": "",
          "type": "bool"
        }
      ],
      "stateMutability": "nonpayable",
      "type": "function"
    },
    {
      "inputs": [
        {
          "internalType": "address",
          "name": "validator",
          "type": "address"
        }
      ],
      "name": "unstake",
      "outputs": [
        {
          "internalType": "bool",
          "name": "",
          "type": "bool"
        }
      ],
      "stateMutability": "nonpayable",
      "type": "function"
    },
    {
      "inputs": [
        {
          "internalType": "address",
          "name": "validator",
          "type": "address"
        }
      ],
      "name": "withdrawStaking",
      "outputs": [
        {
          "internalType": "bool",
          "name": "",
          "type": "bool"
        }
      ],
      "stateMutability": "nonpayable",
      "type": "function"
    },
    {
      "inputs": [
        {
          "internalType": "address",
          "name": "validator",
          "type": "address"
        }
      ],
      "name": "withdrawProfits",
      "outputs": [
        {
          "internalType": "bool",
          "name": "",
          "type": "bool"
        }
      ],
      "stateMutability": "nonpayable",
      "type": "function"
    },
    {
      "inputs": [],
      "name": "distributeBlockReward",
      "outputs": [],
      "stateMutability": "payable",
      "type": "function"
    },
    {
      "inputs": [
        {
          "internalType": "address[]",
          "name": "newSet",
          "type": "address[]"
        },
        {
          "internalType": "uint256",
          "name": "epoch",
          "type": "uint256"
        }
      ],
      "name": "updateActiveValidatorSet",
      "outputs": [],
      "stateMutability": "nonpayable",
      "type": "function"
    },
    {
      "inputs": [
        {
          "internalType": "address",
          "name": "val",
          "type": "address"
        }
      ],
      "name": "removeValidator",
      "outputs": [],
      "stateMutability": "nonpayable",
      "type": "function"
    },
    {
      "inputs": [
        {
          "internalType": "address",
          "name": "val",
          "type": "address"
        }
      ],
      "name": "removeValidatorIncoming",
      "outputs": [],
      "stateMutability": "nonpayable",
      "type": "function"
    },
    {
      "inputs": [
        {
          "internalType": "address",
          "name": "val",
          "type": "address"
        }
      ],
      "name": "getValidatorDescription",
      "outputs": [
        {
          "internalType": "string",
          "name": "",
          "type": "string"
        },
        {
          "internalType": "string",
          "name": "",
          "type": "string"
        },
        {
          "internalType": "string",
          "name": "",
          "type": "string"
        },
        {
          "internalType": "string",
          "name": "",
          "type": "string"
        },
        {
          "internalType": "string",
          "name": "",
          "type": "string"
        }
      ],
      "stateMutability": "view",
      "type": "function"
    },
    {
      "inputs": [
        {
          "internalType": "address",
          "name": "val",
          "type": "address"
        }
      ],
      "name": "getValidatorInfo",
      "outputs": [
        {
          "internalType": "address payable",
          "name": "",
          "type": "address"
        },
        {
          "internalType": "enum Validators.Status",
          "name": "",
          "type": "uint8"
        },
        {
          "internalType": "uint256",
          "name": "",
          "type": "uint256"
        },
        {
          "internalType": "uint256",
          "name": "",
          "type": "uint256"
        },
        {
          "internalType": "uint256",
          "name": "",
          "type": "uint256"
        },
        {
          "internalType": "uint256",
          "name": "",
          "type": "uint256"
        },
        {
          "internalType": "address[]",
          "name": "",
          "type": "address[]"
        }
      ],
      "stateMutability": "view",
      "type": "function"
    },
    {
      "inputs": [
        {
          "internalType": "address",
          "name": "staker",
          "type": "address"
        },
        {
          "internalType": "address",
          "name": "val",
          "type": "address"
        }
      ],
      "name": "getStakingInfo",
      "outputs": [
        {
          "internalType": "uint256",
          "name": "",
          "type": "uint256"
        },
        {
          "internalType": "uint256",
          "name": "",
          "type": "uint256"
        },
        {
          "internalType": "uint256",
          "name": "",
          "type": "uint256"
        }
      ],
      "stateMutability": "view",
      "type": "function"
    },
    {
      "inputs": [],
      "name": "getActiveValidators",
      "outputs": [
        {
          "internalType": "address[]",
          "name": "",
          "type": "address[]"
        }
      ],
      "stateMutability": "view",
      "type": "function"
    },
    {
      "inputs": [],
      "name": "getTotalStakeOfActiveValidators",
      "outputs": [
        {
          "internalType": "uint256",
          "name": "total",
          "type": "uint256"
        },
        {
          "internalType": "uint256",
          "name": "len",
          "type": "uint256"
        }
      ],
      "stateMutability": "view",
      "type": "function"
    },
    {
      "inputs": [
        {
          "internalType": "address",
          "name": "who",
          "type": "address"
        }
      ],
      "name": "isActiveValidator",
      "outputs": [
        {
          "internalType": "bool",
          "name": "",
          "type": "bool"
        }
      ],
      "stateMutability": "view",
      "type": "function"
    },
    {
      "inputs": [
        {
          "internalType": "address",
          "name": "who",
          "type": "address"
        }
      ],
      "name": "isTopValidator",
      "outputs": [
        {
          "internalType": "bool",
          "name": "",
          "type": "bool"
        }
      ],
      "stateMutability": "view",
      "type": "function"
    },
    {
      "inputs": [],
      "name": "getTopValidators",
      "outputs": [
        {
          "internalType": "address[]",
          "name": "",
          "type": "address[]"
        }
      ],
      "stateMutability": "view",
      "type": "function"
    },
    {
      "inputs": [
        {
          "internalType": "string",
          "name": "moniker",
          "type": "string"
        },
        {
          "internalType": "string",
          "name": "identity",
          "type": "string"
        },
        {
          "internalType": "string",
          "name": "website",
          "type": "string"
        },
        {
          "internalType": "string",
          "name": "email",
          "type": "string"
        },
        {
          "internalType": "string",
          "name": "details",
          "type": "string"
        }
      ],
      "name": "validateDescription",
      "outputs": [
        {
          "internalType": "bool",
          "name": "",
          "type": "bool"
        }
      ],
      "stateMutability": "pure",
      "type": "function"
    }
  ],
  "bytecode": "0x608060405234801561001057600080fd5b5061495c806100206000396000f3fe6080604052600436106101e25760003560e01c80638a11d7c911610102578063b6c8851911610095578063d6c0edad11610064578063d6c0edad14610e90578063db78dd2814610e98578063efd8d8e214610eca578063f2888dbb14610edf576101e2565b8063b6c8851914610b5c578063be64569214610e21578063c253c38414610e36578063c967f90f14610e64576101e2565b8063a224cee7116100d1578063a224cee7146106be578063a406fcb714610739578063a43569b314610904578063afeea11514610b47576101e2565b80638a11d7c9146105495780638b0e9f3f1461061157806398e3b626146106265780639de7025814610659576101e2565b806340a141ff1161017a5780636846992a116101495780636846992a146103e35780636969a25c146104935780637f4f95fa146104bd57806382bd3d9214610516576101e2565b806340a141ff1461033c5780634b3d500b146103715780635dd095901461039b5780636233be5d146103ce576101e2565b8063222d3b05116101b6578063222d3b051461029b57806326476204146102ce5780633a061bd3146102f457806340550a1c14610309576101e2565b8062362a77146101e75780631303f7cf1461022e578063158ef93e146102555780631b5e358c1461026a575b600080fd5b3480156101f357600080fd5b5061021a6004803603602081101561020a57600080fd5b50356001600160a01b0316610f12565b604080519115158252519081900360200190f35b34801561023a57600080fd5b5061024361117a565b60408051918252519081900360200190f35b34801561026157600080fd5b5061021a611180565b34801561027657600080fd5b5061027f611189565b604080516001600160a01b039092168252519081900360200190f35b3480156102a757600080fd5b5061021a600480360360208110156102be57600080fd5b50356001600160a01b031661118f565b61021a600480360360208110156102e457600080fd5b50356001600160a01b03166113b4565b34801561030057600080fd5b5061027f6117df565b34801561031557600080fd5b5061021a6004803603602081101561032c57600080fd5b50356001600160a01b03166117e5565b34801561034857600080fd5b5061036f6004803603602081101561035f57600080fd5b50356001600160a01b0316611840565b005b34801561037d57600080fd5b5061027f6004803603602081101561039457600080fd5b5035611988565b3480156103a757600080fd5b5061036f600480360360208110156103be57600080fd5b50356001600160a01b03166119af565b3480156103da57600080fd5b5061027f611a08565b3480156103ef57600080fd5b5061036f6004803603604081101561040657600080fd5b810190602081018135600160201b81111561042057600080fd5b82018360208201111561043257600080fd5b803590602001918460208302840111600160201b8311171561045357600080fd5b9190808060200260200160405190810160405280939291908181526020018383602002808284376000920191909152509295505091359250611a0e915050565b34801561049f57600080fd5b5061027f600480360360208110156104b657600080fd5b5035611c55565b3480156104c957600080fd5b506104f8600480360360408110156104e057600080fd5b506001600160a01b0381358116916020013516611c62565b60408051938452602084019290925282820152519081900360600190f35b34801561052257600080fd5b5061021a6004803603602081101561053957600080fd5b50356001600160a01b0316611c9f565b34801561055557600080fd5b5061057c6004803603602081101561056c57600080fd5b50356001600160a01b0316611f03565b6040516001600160a01b03881681526020810187600481111561059b57fe5b60ff16815260200186815260200185815260200184815260200183815260200180602001828103825283818151815260200191508051906020019060200280838360005b838110156105f75781810151838201526020016105df565b505050509050019850505050505050505060405180910390f35b34801561061d57600080fd5b5061024361234c565b34801561063257600080fd5b5061021a6004803603602081101561064957600080fd5b50356001600160a01b0316612352565b34801561066557600080fd5b5061066e6123a4565b60408051602080825283518183015283519192839290830191858101910280838360005b838110156106aa578181015183820152602001610692565b505050509050019250505060405180910390f35b3480156106ca57600080fd5b5061036f600480360360208110156106e157600080fd5b810190602081018135600160201b8111156106fb57600080fd5b82018360208201111561070d57600080fd5b803590602001918460208302840111600160201b8311171561072e57600080fd5b509092509050612407565b34801561074557600080fd5b5061021a600480360360c081101561075c57600080fd5b6001600160a01b038235169190810190604081016020820135600160201b81111561078657600080fd5b82018360208201111561079857600080fd5b803590602001918460018302840111600160201b831117156107b957600080fd5b919390929091602081019035600160201b8111156107d657600080fd5b8201836020820111156107e857600080fd5b803590602001918460018302840111600160201b8311171561080957600080fd5b919390929091602081019035600160201b81111561082657600080fd5b82018360208201111561083857600080fd5b803590602001918460018302840111600160201b8311171561085957600080fd5b919390929091602081019035600160201b81111561087657600080fd5b82018360208201111561088857600080fd5b803590602001918460018302840111600160201b831117156108a957600080fd5b919390929091602081019035600160201b8111156108c657600080fd5b8201836020820111156108d857600080fd5b803590602001918460018302840111600160201b831117156108f957600080fd5b509092509050612768565b34801561091057600080fd5b506109376004803603602081101561092757600080fd5b50356001600160a01b0316612d74565b60405180806020018060200180602001806020018060200186810386528b818151815260200191508051906020019080838360005b8381101561098457818101518382015260200161096c565b50505050905090810190601f1680156109b15780820380516001836020036101000a031916815260200191505b5086810385528a5181528a516020918201918c019080838360005b838110156109e45781810151838201526020016109cc565b50505050905090810190601f168015610a115780820380516001836020036101000a031916815260200191505b5086810384528951815289516020918201918b019080838360005b83811015610a44578181015183820152602001610a2c565b50505050905090810190601f168015610a715780820380516001836020036101000a031916815260200191505b5086810383528851815288516020918201918a019080838360005b83811015610aa4578181015183820152602001610a8c565b50505050905090810190601f168015610ad15780820380516001836020036101000a031916815260200191505b50868103825287518152875160209182019189019080838360005b83811015610b04578181015183820152602001610aec565b50505050905090810190601f168015610b315780820380516001836020036101000a031916815260200191505b509a505050505050505050505060405180910390f35b348015610b5357600080fd5b5061066e6131a8565b348015610b6857600080fd5b5061021a600480360360a0811015610b7f57600080fd5b810190602081018135600160201b811115610b9957600080fd5b820183602082011115610bab57600080fd5b803590602001918460018302840111600160201b83111715610bcc57600080fd5b91908080601f0160208091040260200160405190810160405280939291908181526020018383808284376000920191909152509295949360208101935035915050600160201b811115610c1e57600080fd5b820183602082011115610c3057600080fd5b803590602001918460018302840111600160201b83111715610c5157600080fd5b91908080601f0160208091040260200160405190810160405280939291908181526020018383808284376000920191909152509295949360208101935035915050600160201b811115610ca357600080fd5b820183602082011115610cb557600080fd5b803590602001918460018302840111600160201b83111715610cd657600080fd5b91908080601f0160208091040260200160405190810160405280939291908181526020018383808284376000920191909152509295949360208101935035915050600160201b811115610d2857600080fd5b820183602082011115610d3a57600080fd5b803590602001918460018302840111600160201b83111715610d5b57600080fd5b91908080601f0160208091040260200160405190810160405280939291908181526020018383808284376000920191909152509295949360208101935035915050600160201b811115610dad57600080fd5b820183602082011115610dbf57600080fd5b803590602001918460018302840111600160201b83111715610de057600080fd5b91908080601f016020809104026020016040519081016040528093929190818152602001838380828437600092019190915250929550613208945050505050565b348015610e2d57600080fd5b506102436133ad565b348015610e4257600080fd5b50610e4b6133ba565b6040805192835260208301919091528051918290030190f35b348015610e7057600080fd5b50610e796133cf565b6040805161ffff9092168252519081900360200190f35b61036f6133d4565b348015610ea457600080fd5b50610ead613574565b6040805167ffffffffffffffff9092168252519081900360200190f35b348015610ed657600080fd5b50610ead61357b565b348015610eeb57600080fd5b5061021a60048036036020811015610f0257600080fd5b50356001600160a01b0316613581565b600033816001600160a01b038416600090815260016020526040902054600160a01b900460ff166004811115610f4457fe5b1415610f8d576040805162461bcd60e51b815260206004820152601360248201527215985b1a59185d1bdc881b9bdd08195e1a5cdd606a1b604482015290519081900360640190fd5b6001600160a01b03838116600090815260016020526040902054811690821614610fe85760405162461bcd60e51b815260040180806020018281038252602e8152602001806148f9602e913960400191505060405180910390fd5b6001600160a01b0383166000908152600160205260409020600901544361708090910111156110485760405162461bcd60e51b815260040180806020018281038252605c81526020018061476c605c913960600191505060405180910390fd5b6001600160a01b038316600090815260016020526040902060070154806110b6576040805162461bcd60e51b815260206004820152601a60248201527f596f7520646f6e2774206861766520616e792070726f66697473000000000000604482015290519081900360640190fd5b6001600160a01b0384166000908152600160205260408120600781019190915543600990910155801561111b576040516001600160a01b0383169082156108fc029083906000818181858888f19350505050158015611119573d6000803e3d6000fd5b505b816001600160a01b0316846001600160a01b03167f51a69b4502f660774c9339825c7b5adbf0b8622289134647e29728ec5d9b3bb98342604051808381526020018281526020019250505060405180910390a36001925050505b919050565b60065481565b60005460ff1681565b61f00181565b3360008181526002602090815260408083206001600160a01b0386168452825280832060019092528220549192918390600160a01b900460ff1660048111156111d457fe5b141561121d576040805162461bcd60e51b81526020600482015260136024820152721d985b1a59185d1bdc881b9bdd08195e1a5cdd606a1b604482015290519081900360640190fd5b6001810154611273576040805162461bcd60e51b815260206004820152601960248201527f596f75206861766520746f20756e7374616b6520666972737400000000000000604482015290519081900360640190fd5b436201518067ffffffffffffffff1682600101540111156112c55760405162461bcd60e51b81526004018080602001828103825260218152602001806147c86021913960400191505060405180910390fd5b8054611313576040805162461bcd60e51b8152602060048201526018602482015277596f7520646f6e2774206861766520616e79207374616b6560401b604482015290519081900360640190fd5b80546000808355600183018190556040516001600160a01b0385169183156108fc02918491818181858888f19350505050158015611355573d6000803e3d6000fd5b50846001600160a01b0316836001600160a01b03167fa70cd94070cd852339a76b32cf2d95a3c8f2a322269163d276071c1c149556198342604051808381526020018281526020019250505060405180910390a3506001949350505050565b6000805460ff166113fb576040805162461bcd60e51b815260206004820152600c60248201526b139bdd081a5b9a5d081e595d60a21b604482015290519081900360640190fd5b333460016001600160a01b038516600090815260016020526040902054600160a01b900460ff16600481111561142d57fe5b1480611466575060026001600160a01b038516600090815260016020526040902054600160a01b900460ff16600481111561146457fe5b145b6114a15760405162461bcd60e51b815260040180806020018281038252602d815260200180614850602d913960400191505060405180910390fd5b6007546040805163416259d960e11b81526001600160a01b038781166004830152915191909216916382c4b3b2916024808301926020929190829003018186803b1580156114ee57600080fd5b505afa158015611502573d6000803e3d6000fd5b505050506040513d602081101561151857600080fd5b50516115555760405162461bcd60e51b815260040180806020018281038252603881526020018061489e6038913960400191505060405180910390fd5b6001600160a01b03808316600090815260026020908152604080832093881683529290522060010154156115ba5760405162461bcd60e51b815260040180806020018281038252602281526020018061482e6022913960400191505060405180910390fd5b6001600160a01b0384166000908152600160208190526040909120908101546801bc16d674ec800000906115f4908463ffffffff6139d916565b1015611647576040805162461bcd60e51b815260206004820152601860248201527f5374616b696e6720636f696e73206e6f7420656e6f7567680000000000000000604482015290519081900360640190fd5b6001600160a01b038084166000908152600260209081526040808320938916835292905220546116c057600a810180546001600160a01b038086166000818152600260208181526040808420958d1684529481529382200184905560018401855593845292200180546001600160a01b03191690911790555b60018101546116d5908363ffffffff6139d916565b600182015560028154600160a01b900460ff1660048111156116f357fe5b1461170a57805460ff60a01b1916600160a11b1781555b611718858260010154613a3c565b6001600160a01b0380841660009081526002602090815260408083209389168352929052205461174e908363ffffffff6139d916565b6001600160a01b038085166000908152600260209081526040808320938a1683529290522055600554611787908363ffffffff6139d916565b6005556040805183815242602082015281516001600160a01b0380891693908716927fb9ba725934532316cffe10975da6eb25ad49c2d1c294d982c46c9f8d684ee075929081900390910190a3506001949350505050565b61f00081565b6000805b60035481101561183757826001600160a01b03166003828154811061180a57fe5b6000918252602090912001546001600160a01b0316141561182f576001915050611175565b6001016117e9565b50600092915050565b3361f0011461188d576040805162461bcd60e51b815260206004820152601460248201527350756e69736820636f6e7472616374206f6e6c7960601b604482015290519081900360640190fd5b6001600160a01b0381166000908152600160205260409020600701546118b282613cd6565b60045460011015611984576118c682613dfa565b600754604080516315ea278160e01b81526001600160a01b038581166004830152915191909216916315ea27819160248083019260209291908290030181600087803b15801561191557600080fd5b505af1158015611929573d6000803e3d6000fd5b505050506040513d602081101561193f57600080fd5b50506040805182815242602082015281516001600160a01b038516927fa26de7ab324eac08c596549f421e5c8741213d237d2e9a2c9c0ebde0a7a849fe928290030190a25b5050565b6004818154811061199557fe5b6000918252602090912001546001600160a01b0316905081565b3361f001146119fc576040805162461bcd60e51b815260206004820152601460248201527350756e69736820636f6e7472616374206f6e6c7960601b604482015290519081900360640190fd5b611a0581613cd6565b50565b61f00281565b334114611a4f576040805162461bcd60e51b815260206004820152600a6024820152694d696e6572206f6e6c7960b01b604482015290519081900360640190fd5b4360009081526009602090815260408083206001845290915290205460ff1615611ac0576040805162461bcd60e51b815260206004820152601a60248201527f56616c696461746f727320616c72656164792075706461746564000000000000604482015290519081900360640190fd5b60005460ff16611b06576040805162461bcd60e51b815260206004820152600c60248201526b139bdd081a5b9a5d081e595d60a21b604482015290519081900360640190fd5b80804381611b1057fe5b0615611b56576040805162461bcd60e51b815260206004820152601060248201526f426c6f636b2065706f6368206f6e6c7960801b604482015290519081900360640190fd5b43600090815260096020908152604080832060018085529252909120805460ff191690911790558251611bc7576040805162461bcd60e51b815260206004820152601460248201527356616c696461746f722073657420656d7074792160601b604482015290519081900360640190fd5b8251611bda9060039060208601906145d3565b507feacea8f3c22f06c0b18306bdb04d0a967255129e8ce0094debb0a0ff89d006b5836040518080602001828103825283818151815260200191508051906020019060200280838360005b83811015611c3d578181015183820152602001611c25565b505050509050019250505060405180910390a1505050565b6003818154811061199557fe5b6001600160a01b03918216600090815260026020818152604080842094909516835292909252919091208054600182015491909201549192909190565b60003361f00214611cf0576040805162461bcd60e51b815260206004820152601660248201527550726f706f73616c20636f6e7472616374206f6e6c7960501b604482015290519081900360640190fd5b60005460ff16611d36576040805162461bcd60e51b815260206004820152600c60248201526b139bdd081a5b9a5d081e595d60a21b604482015290519081900360640190fd5b60036001600160a01b038316600090815260016020526040902054600160a01b900460ff166004811115611d6657fe5b14158015611da2575060046001600160a01b038316600090815260016020526040902054600160a01b900460ff166004811115611d9f57fe5b14155b15611daf57506001611175565b60046001600160a01b038316600090815260016020526040902054600160a01b900460ff166004811115611ddf57fe5b1415611ea057600854604080516363e1d45160e01b81526001600160a01b038581166004830152915191909216916363e1d4519160248083019260209291908290030181600087803b158015611e3457600080fd5b505af1158015611e48573d6000803e3d6000fd5b505050506040513d6020811015611e5e57600080fd5b5051611ea0576040805162461bcd60e51b815260206004820152600c60248201526b18db19585b8819985a5b195960a21b604482015290519081900360640190fd5b6001600160a01b038216600081815260016020908152604091829020805460ff60a01b1916600160a01b179055815142815291517fd8b2c426ec1be69ca7583d26b1e893946e3227430d3ebc3bd64d9e1c469cb4009281900390910190a2919050565b6000806000806000806060611f16614638565b6001600160a01b038981166000908152600160209081526040918290208251610100810190935280549384168352919290830190600160a01b900460ff166004811115611f5f57fe5b6004811115611f6a57fe5b815260200160018201548152602001600282016040518060a0016040529081600082018054600181600116156101000203166002900480601f0160208091040260200160405190810160405280929190818152602001828054600181600116156101000203166002900480156120215780601f10611ff657610100808354040283529160200191612021565b820191906000526020600020905b81548152906001019060200180831161200457829003601f168201915b50505050508152602001600182018054600181600116156101000203166002900480601f0160208091040260200160405190810160405280929190818152602001828054600181600116156101000203166002900480156120c35780601f10612098576101008083540402835291602001916120c3565b820191906000526020600020905b8154815290600101906020018083116120a657829003601f168201915b5050509183525050600282810180546040805160206001841615610100026000190190931694909404601f810183900483028501830190915280845293810193908301828280156121555780601f1061212a57610100808354040283529160200191612155565b820191906000526020600020905b81548152906001019060200180831161213857829003601f168201915b505050918352505060038201805460408051602060026001851615610100026000190190941693909304601f81018490048402820184019092528181529382019392918301828280156121e95780601f106121be576101008083540402835291602001916121e9565b820191906000526020600020905b8154815290600101906020018083116121cc57829003601f168201915b505050918352505060048201805460408051602060026001851615610100026000190190941693909304601f810184900484028201840190925281815293820193929183018282801561227d5780601f106122525761010080835404028352916020019161227d565b820191906000526020600020905b81548152906001019060200180831161226057829003601f168201915b5050505050815250508152602001600782015481526020016008820154815260200160098201548152602001600a820180548060200260200160405190810160405280929190818152602001828054801561230157602002820191906000526020600020905b81546001600160a01b031681526001909101906020018083116122e3575b505050505081525050905080600001518160200151826040015183608001518460a001518560c001518660e00151809050975097509750975097509750975050919395979092949650565b60055481565b6000805b60045481101561183757826001600160a01b03166004828154811061237757fe5b6000918252602090912001546001600160a01b0316141561239c576001915050611175565b600101612356565b606060038054806020026020016040519081016040528092919081815260200182805480156123fc57602002820191906000526020600020905b81546001600160a01b031681526001909101906020018083116123de575b505050505090505b90565b60005460ff1615612455576040805162461bcd60e51b8152602060048201526013602482015272105b1c9958591e481a5b9a5d1a585b1a5e9959606a1b604482015290519081900360640190fd5b600780546001600160a01b031990811661f002179091556008805490911661f00117905560005b8181101561275657600083838381811061249257fe5b905060200201356001600160a01b03166001600160a01b031614156124fe576040805162461bcd60e51b815260206004820152601960248201527f496e76616c69642076616c696461746f72206164647265737300000000000000604482015290519081900360640190fd5b61252283838381811061250d57fe5b905060200201356001600160a01b03166117e5565b61257157600383838381811061253457fe5b835460018101855560009485526020948590200180546001600160a01b0319166001600160a01b0395909202939093013593909316929092179055505b61259583838381811061258057fe5b905060200201356001600160a01b0316612352565b6125e45760048383838181106125a757fe5b835460018101855560009485526020948590200180546001600160a01b0319166001600160a01b0395909202939093013593909316929092179055505b60006001818585858181106125f557fe5b6001600160a01b03602091820293909301358316845283019390935260409091016000205416919091141590506126aa5782828281811061263257fe5b905060200201356001600160a01b03166001600085858581811061265257fe5b905060200201356001600160a01b03166001600160a01b03166001600160a01b0316815260200190815260200160002060000160006101000a8154816001600160a01b0302191690836001600160a01b031602179055505b6000600160008585858181106126bc57fe5b602090810292909201356001600160a01b031683525081019190915260400160002054600160a01b900460ff1660048111156126f457fe5b141561274e5760026001600085858581811061270c57fe5b602090810292909201356001600160a01b0316835250810191909152604001600020805460ff60a01b1916600160a01b83600481111561274857fe5b02179055505b60010161247c565b50506000805460ff1916600117905550565b6000805460ff166127af576040805162461bcd60e51b815260206004820152600c60248201526b139bdd081a5b9a5d081e595d60a21b604482015290519081900360640190fd5b6001600160a01b038c16612800576040805162461bcd60e51b8152602060048201526013602482015272496e76616c696420666565206164647265737360681b604482015290519081900360640190fd5b61290f8b8b8080601f01602080910402602001604051908101604052809392919081815260200183838082843760009201919091525050604080516020601f8f018190048102820181019092528d815292508d91508c908190840183828082843760009201919091525050604080516020601f8e018190048102820181019092528c815292508c91508b908190840183828082843760009201919091525050604080516020601f8d018190048102820181019092528b815292508b91508a908190840183828082843760009201919091525050604080516020601f8c018190048102820181019092528a815292508a915089908190840183828082843760009201919091525061320892505050565b612956576040805162461bcd60e51b815260206004820152601360248201527224b73b30b634b2103232b9b1b934b83a34b7b760691b604482015290519081900360640190fd5b336000818152600160205260408120548190600160a01b900460ff16600481111561297d57fe5b1415612a7b576007546040805163416259d960e11b81526001600160a01b038581166004830152915191909216916382c4b3b2916024808301926020929190829003018186803b1580156129d057600080fd5b505afa1580156129e4573d6000803e3d6000fd5b505050506040513d60208110156129fa57600080fd5b5051612a4d576040805162461bcd60e51b815260206004820152601c60248201527f596f75206d75737420626520617574686f72697a656420666972737400000000604482015290519081900360640190fd5b506001600160a01b0381166000908152600160208190526040909120805460ff60a01b1916600160a01b1790555b6001600160a01b038281166000908152600160205260409020548116908f1614612aed578d60016000846001600160a01b03166001600160a01b0316815260200190815260200160002060000160006101000a8154816001600160a01b0302191690836001600160a01b031602179055505b6040518060a001604052808e8e8080601f016020809104026020016040519081016040528093929190818152602001838380828437600092019190915250505090825250604080516020601f8f018190048102820181019092528d815291810191908e908e9081908401838280828437600092019190915250505090825250604080516020601f8d018190048102820181019092528b815291810191908c908c9081908401838280828437600092019190915250505090825250604080516020601f8b0181900481028201810190925289815291810191908a908a9081908401838280828437600092019190915250505090825250604080516020601f89018190048102820181019092528781529181019190889088908190840183828082843760009201829052509390945250506001600160a01b03851681526001602090815260409091208351805160029092019350612c4d928492910190614684565b506020828101518051612c669260018501920190614684565b5060408201518051612c82916002840191602090910190614684565b5060608201518051612c9e916003840191602090910190614684565b5060808201518051612cba916004840191602090910190614684565b509050508015612d14578d6001600160a01b0316826001600160a01b03167f887eec9d757b7247dd8e51198f9d1b8f27979bceb34bdcc1bffd4ec5ec736c22426040518082815260200191505060405180910390a3612d60565b8d6001600160a01b0316826001600160a01b03167fb8421f65501371f54d58de1937ff1e1ccdb76423ef6f84acea1814a0f6362ca0426040518082815260200191505060405180910390a35b5060019d9c50505050505050505050505050565b6060806060806060612d84614638565b6001600160a01b038781166000908152600160209081526040918290208251610100810190935280549384168352919290830190600160a01b900460ff166004811115612dcd57fe5b6004811115612dd857fe5b815260200160018201548152602001600282016040518060a0016040529081600082018054600181600116156101000203166002900480601f016020809104026020016040519081016040528092919081815260200182805460018160011615610100020316600290048015612e8f5780601f10612e6457610100808354040283529160200191612e8f565b820191906000526020600020905b815481529060010190602001808311612e7257829003601f168201915b50505050508152602001600182018054600181600116156101000203166002900480601f016020809104026020016040519081016040528092919081815260200182805460018160011615610100020316600290048015612f315780601f10612f0657610100808354040283529160200191612f31565b820191906000526020600020905b815481529060010190602001808311612f1457829003601f168201915b5050509183525050600282810180546040805160206001841615610100026000190190931694909404601f81018390048302850183019091528084529381019390830182828015612fc35780601f10612f9857610100808354040283529160200191612fc3565b820191906000526020600020905b815481529060010190602001808311612fa657829003601f168201915b505050918352505060038201805460408051602060026001851615610100026000190190941693909304601f81018490048402820184019092528181529382019392918301828280156130575780601f1061302c57610100808354040283529160200191613057565b820191906000526020600020905b81548152906001019060200180831161303a57829003601f168201915b505050918352505060048201805460408051602060026001851615610100026000190190941693909304601f81018490048402820184019092528181529382019392918301828280156130eb5780601f106130c0576101008083540402835291602001916130eb565b820191906000526020600020905b8154815290600101906020018083116130ce57829003601f168201915b5050505050815250508152602001600782015481526020016008820154815260200160098201548152602001600a820180548060200260200160405190810160405280929190818152602001828054801561316f57602002820191906000526020600020905b81546001600160a01b03168152600190910190602001808311613151575b5050509190925250505060609081015180516020820151604083015193830151608090930151919b909a50929850909650945092505050565b606060048054806020026020016040519081016040528092919081815260200182805480156123fc576020028201919060005260206000209081546001600160a01b031681526001909101906020018083116123de575050505050905090565b600060468651111561325a576040805162461bcd60e51b8152602060048201526016602482015275092dcecc2d8d2c840dadedcd2d6cae440d8cadccee8d60531b604482015290519081900360640190fd5b610bb8855111156132b2576040805162461bcd60e51b815260206004820152601760248201527f496e76616c6964206964656e74697479206c656e677468000000000000000000604482015290519081900360640190fd5b608c84511115613302576040805162461bcd60e51b8152602060048201526016602482015275092dcecc2d8d2c840eecac4e6d2e8ca40d8cadccee8d60531b604482015290519081900360640190fd5b608c83511115613350576040805162461bcd60e51b8152602060048201526014602482015273092dcecc2d8d2c840cadac2d2d840d8cadccee8d60631b604482015290519081900360640190fd5b610118825111156133a1576040805162461bcd60e51b8152602060048201526016602482015275092dcecc2d8d2c840c8cae8c2d2d8e640d8cadccee8d60531b604482015290519081900360640190fd5b50600195945050505050565b6801bc16d674ec80000081565b6000806133c76000613e67565b915091509091565b601581565b334114613415576040805162461bcd60e51b815260206004820152600a6024820152694d696e6572206f6e6c7960b01b604482015290519081900360640190fd5b43600090815260096020908152604080832083805290915290205460ff1615613485576040805162461bcd60e51b815260206004820152601960248201527f426c6f636b20697320616c726561647920726577617264656400000000000000604482015290519081900360640190fd5b60005460ff166134cb576040805162461bcd60e51b815260206004820152600c60248201526b139bdd081a5b9a5d081e595d60a21b604482015290519081900360640190fd5b4360009081526009602090815260408083208380528252808320805460ff1916600190811790915533808552925282205490913491600160a01b900460ff16600481111561351557fe5b1415613522575050613572565b61352d816000613f5b565b6040805182815242602082015281516001600160a01b038516927f7dc4e5df59513708dca355b8706273a5df7b810a4cec8019f2a4b9bb166a1a04928290030190a250505b565b6201518081565b61708081565b6000805460ff166135c8576040805162461bcd60e51b815260206004820152600c60248201526b139bdd081a5b9a5d081e595d60a21b604482015290519081900360640190fd5b3360006001600160a01b038416600090815260016020526040902054600160a01b900460ff1660048111156135f957fe5b1415613642576040805162461bcd60e51b815260206004820152601360248201527215985b1a59185d1bdc881b9bdd08195e1a5cdd606a1b604482015290519081900360640190fd5b6001600160a01b038082166000908152600260209081526040808320938716835292815282822060019182905292909120825491830154909190156136b85760405162461bcd60e51b81526004018080602001828103825260238152602001806148d66023913960400191505060405180910390fd5b60008111613708576040805162461bcd60e51b8152602060048201526018602482015277596f7520646f6e2774206861766520616e79207374616b6560401b604482015290519081900360640190fd5b600454600114801561371e575061371e86612352565b8015613747575060018201546801bc16d674ec80000090613745908363ffffffff6142c416565b105b156137835760405162461bcd60e51b81526004018080602001828103825260458152602001806147e96045913960600191505060405180910390fd5b600a82015460028401546000199091011461386057600a8201805460001981019081106137ac57fe5b9060005260206000200160009054906101000a90046001600160a01b031682600a018460020154815481106137dd57fe5b9060005260206000200160006101000a8154816001600160a01b0302191690836001600160a01b0316021790555082600201546002600084600a0186600201548154811061382757fe5b60009182526020808320909101546001600160a01b0390811684528382019490945260409283018220938b168252929092529020600201555b81600a0180548061386d57fe5b600082815260209020810160001990810180546001600160a01b031916905501905560018201546138a4908263ffffffff6142c416565b6001808401919091554390840155600060028401556005546138cc908263ffffffff6142c416565b60055560018201546801bc16d674ec800000111561397a57815460ff60a01b1916600360a01b1782556138fe86614306565b600754604080516315ea278160e01b81526001600160a01b038981166004830152915191909216916315ea27819160248083019260209291908290030181600087803b15801561394d57600080fd5b505af1158015613961573d6000803e3d6000fd5b505050506040513d602081101561397757600080fd5b50505b856001600160a01b0316846001600160a01b03167f449002ae18e748d69a55f38514400d64f966492e593e32d6e9b8b24db98a0bc18342604051808381526020018281526020019250505060405180910390a350600195945050505050565b600082820183811015613a33576040805162461bcd60e51b815260206004820152601b60248201527f536166654d6174683a206164646974696f6e206f766572666c6f770000000000604482015290519081900360640190fd5b90505b92915050565b60005b600454811015613a8957826001600160a01b031660048281548110613a6057fe5b6000918252602090912001546001600160a01b03161415613a815750611984565b600101613a3f565b5060045460151115613b1c57600480546001810182556000919091527f8a35acfbc15ff81a39ae7d344fd709f28e8600b4aa8c65c6b64bfe7fe36bd19b0180546001600160a01b0384166001600160a01b031990911681179091556040805142815290517f1e3310ad6891b30e03874ec3d1422a6386c5da63d9faf595f5d99eeaf443b99a9181900360200190a2611984565b6000600160006004600081548110613b3057fe5b60009182526020808320909101546001600160a01b03168352820192909252604001812060019081015492505b600454811015613bee57826001600060048481548110613b7957fe5b60009182526020808320909101546001600160a01b031683528201929092526040019020600101541015613be6576001600060048381548110613bb857fe5b60009182526020808320909101546001600160a01b0316835282019290925260400190206001015492509050805b600101613b5d565b50818311613bfd575050611984565b6040805142815290516001600160a01b038616917f1e3310ad6891b30e03874ec3d1422a6386c5da63d9faf595f5d99eeaf443b99a919081900360200190a260048181548110613c4957fe5b600091825260209182902001546040805142815290516001600160a01b03909216927f7521e44559c870c316e84e60bc4785d9c034a8ab1d6acdce8134ac03f946c6ed92918290030190a28360048281548110613ca257fe5b9060005260206000200160006101000a8154816001600160a01b0302191690836001600160a01b0316021790555050505050565b60006001600160a01b038216600090815260016020526040902054600160a01b900460ff166004811115613d0657fe5b1480613d155750600354600110155b15613d1f57611a05565b6001600160a01b0381166000908152600160205260409020600701548015613db457613d4b8183613f5b565b600654613d5e908263ffffffff6139d916565b6006556001600160a01b038216600090815260016020526040902060080154613d8d908263ffffffff6139d916565b6001600160a01b038316600090815260016020526040812060088101929092556007909101555b6040805182815242602082015281516001600160a01b038516927fe294e9d73f8eee23e21b2e1567960625a6b5d339cb127b55d0d09473a9951235928290030190a25050565b60006001600160a01b038216600090815260016020526040902054600160a01b900460ff166004811115613e2a57fe5b1415613e3557611a05565b6001600160a01b0381166000908152600160205260409020805460ff60a01b1916600160a21b179055611a0581614306565b600080805b600354811015613f555760046001600060038481548110613e8957fe5b60009182526020808320909101546001600160a01b0316835282019290925260400190205460ff600160a01b909104166004811115613ec457fe5b14158015613ef6575060038181548110613eda57fe5b6000918252602090912001546001600160a01b03858116911614155b15613f4d57613f446001600060038481548110613f0f57fe5b60009182526020808320909101546001600160a01b03168352820192909252604001902060010154849063ffffffff6139d916565b92506001909101905b600101613e6c565b50915091565b81613f6557611984565b600080613f7183613e67565b909250905080613f82575050611984565b6000808361410e576000613f9c878563ffffffff61443c16565b9050613fbe613fb1828663ffffffff61447e16565b889063ffffffff6142c416565b925060005b60035481101561409d57600060038281548110613fdc57fe5b6000918252602090912001546001600160a01b0316905060046001600160a01b038216600090815260016020526040902054600160a01b900460ff16600481111561402357fe5b141580156140435750876001600160a01b0316816001600160a01b031614155b15614094576001600160a01b038116600090815260016020526040902060070154614074908463ffffffff6139d916565b6001600160a01b0382166000908152600160205260409020600701559250825b50600101613fc3565b506000831180156140b657506001600160a01b03821615155b15614104576001600160a01b0382166000908152600160205260409020600701546140e7908463ffffffff6139d916565b6001600160a01b0383166000908152600160205260409020600701555b5050505050611984565b6000805b6003548110156142425760006003828154811061412b57fe5b6000918252602090912001546001600160a01b0316905060046001600160a01b038216600090815260016020526040902054600160a01b900460ff16600481111561417257fe5b141580156141925750876001600160a01b0316816001600160a01b031614155b15614239576001600160a01b0381166000908152600160208190526040822001546141d69089906141ca908d9063ffffffff61447e16565b9063ffffffff61443c16565b90506141e8848263ffffffff6139d916565b6001600160a01b0383166000908152600160205260409020600701549295509350849161421b908263ffffffff6139d916565b6001600160a01b038316600090815260016020526040902060070155505b50600101614112565b50614253878263ffffffff6142c416565b925060008311801561426d57506001600160a01b03821615155b156142bb576001600160a01b03821660009081526001602052604090206007015461429e908463ffffffff6139d916565b6001600160a01b0383166000908152600160205260409020600701555b50505050505050565b6000613a3383836040518060400160405280601e81526020017f536166654d6174683a207375627472616374696f6e206f766572666c6f7700008152506144d7565b60005b6004548110801561431c57506004546001105b15611984576004818154811061432e57fe5b6000918252602090912001546001600160a01b0383811691161415614434576004546000190181146143c15760048054600019810190811061436c57fe5b600091825260209091200154600480546001600160a01b03909216918390811061439257fe5b9060005260206000200160006101000a8154816001600160a01b0302191690836001600160a01b031602179055505b60048054806143cc57fe5b6000828152602090819020820160001990810180546001600160a01b03191690559091019091556040805142815290516001600160a01b038516927f7521e44559c870c316e84e60bc4785d9c034a8ab1d6acdce8134ac03f946c6ed928290030190a2611984565b600101614309565b6000613a3383836040518060400160405280601a81526020017f536166654d6174683a206469766973696f6e206279207a65726f00000000000081525061456e565b60008261448d57506000613a36565b8282028284828161449a57fe5b0414613a335760405162461bcd60e51b815260040180806020018281038252602181526020018061487d6021913960400191505060405180910390fd5b600081848411156145665760405162461bcd60e51b81526004018080602001828103825283818151815260200191508051906020019080838360005b8381101561452b578181015183820152602001614513565b50505050905090810190601f1680156145585780820380516001836020036101000a031916815260200191505b509250505060405180910390fd5b505050900390565b600081836145bd5760405162461bcd60e51b815260206004820181815283516024840152835190928392604490910191908501908083836000831561452b578181015183820152602001614513565b5060008385816145c957fe5b0495945050505050565b828054828255906000526020600020908101928215614628579160200282015b8281111561462857825182546001600160a01b0319166001600160a01b039091161782556020909201916001909101906145f3565b506146349291506146fe565b5090565b60408051610100810190915260008082526020820190815260200160008152602001614662614722565b8152602001600081526020016000815260200160008152602001606081525090565b828054600181600116156101000203166002900490600052602060002090601f016020900481019282601f106146c557805160ff19168380011785556146f2565b828001600101855582156146f2579182015b828111156146f25782518255916020019190600101906146d7565b50614634929150614751565b61240491905b808211156146345780546001600160a01b0319168155600101614704565b6040518060a0016040528060608152602001606081526020016060815260200160608152602001606081525090565b61240491905b80821115614634576000815560010161475756fe596f75206d757374207761697420656e6f75676820626c6f636b7320746f20776974686472617720796f75722070726f66697473206166746572206c6174657374207769746864726177206f6620746869732076616c696461746f72596f7572207374616b696e6720686176656e277420756e6c6f636b656420796574596f752063616e277420756e7374616b652c2076616c696461746f72206c6973742077696c6c20626520656d7074792061667465722074686973206f7065726174696f6e2143616e2774207374616b65207768656e20796f752061726520756e7374616b696e6743616e2774207374616b6520746f20612076616c696461746f7220696e2061626e6f726d616c20737461747573536166654d6174683a206d756c7469706c69636174696f6e206f766572666c6f775468652076616c696461746f7220796f752077616e7420746f207374616b65206d75737420626520617574686f72697a6564206669727374596f752061726520616c726561647920696e20756e7374616b696e6720737461747573596f7520617265206e6f742074686520666565207265636569766572206f6620746869732076616c696461746f72a264697066735822122082b46f78987e60f4bd4154ec75b902b4c69dcb612af70fdae0fb63e925d5079264736f6c63430006010033",
  "source": "pragma solidity >=0.6.0 <0.8.0;\n\nimport \"./Params.sol\";\nimport \"./Proposal.sol\";\nimport \"./Punish.sol\";\nimport \"./library/SafeMath.sol\";\n\ncontract Validators is Params {\n    using SafeMath for uint256;\n\n    enum Status {\n        // validator not exist, default status\n        NotExist,\n        // validator created\n        Created,\n        // anyone has staked for the validator\n        Staked,\n        // validator's staked coins < MinimalStakingCoin\n        Unstaked,\n        // validator is jailed by system(validator have to repropose)\n        Jailed\n    }\n\n    struct Description {\n        string moniker;\n        string identity;\n        string website;\n        string email;\n        string details;\n    }\n\n    struct Validator {\n        address payable feeAddr;\n        Status status;\n        uint256 coins;\n        Description description;\n        uint256 hbIncoming;\n        uint256 totalJailedHB;\n        uint256 lastWithdrawProfitsBlock;\n        // Address list of user who has staked for this validator\n        address[] stakers;\n    }\n\n    struct StakingInfo {\n        uint256 coins;\n        // unstakeBlock != 0 means that you are unstaking your stake, so you can't\n        // stake or unstake\n        uint256 unstakeBlock;\n        // index of the staker list in validator\n        uint256 index;\n    }\n\n    mapping(address => Validator) validatorInfo;\n    // staker => validator => info\n    mapping(address => mapping(address => StakingInfo)) staked;\n    // current validator set used by chain\n    // only changed at block epoch\n    address[] public currentValidatorSet;\n    // highest validator set(dynamic changed)\n    address[] public highestValidatorsSet;\n    // total stake of all validators\n    uint256 public totalStake;\n    // total jailed hb\n    uint256 public totalJailedHB;\n\n    // System contracts\n    Proposal proposal;\n    Punish punish;\n\n    enum Operations {Distribute, UpdateValidators}\n    // Record the operations is done or not.\n    mapping(uint256 => mapping(uint8 => bool)) operationsDone;\n\n    event LogCreateValidator(\n        address indexed val,\n        address indexed fee,\n        uint256 time\n    );\n    event LogEditValidator(\n        address indexed val,\n        address indexed fee,\n        uint256 time\n    );\n    event LogReactive(address indexed val, uint256 time);\n    event LogAddToTopValidators(address indexed val, uint256 time);\n    event LogRemoveFromTopValidators(address indexed val, uint256 time);\n    event LogUnstake(\n        address indexed staker,\n        address indexed val,\n        uint256 amount,\n        uint256 time\n    );\n    event LogWithdrawStaking(\n        address indexed staker,\n        address indexed val,\n        uint256 amount,\n        uint256 time\n    );\n    event LogWithdrawProfits(\n        address indexed val,\n        address indexed fee,\n        uint256 hb,\n        uint256 time\n    );\n    event LogRemoveValidator(address indexed val, uint256 hb, uint256 time);\n    event LogRemoveValidatorIncoming(\n        address indexed val,\n        uint256 hb,\n        uint256 time\n    );\n    event LogDistributeBlockReward(\n        address indexed coinbase,\n        uint256 blockReward,\n        uint256 time\n    );\n    event LogUpdateValidator(address[] newSet);\n    event LogStake(\n        address indexed staker,\n        address indexed val,\n        uint256 staking,\n        uint256 time\n    );\n\n    modifier onlyNotRewarded() {\n        require(\n            operationsDone[block.number][uint8(Operations.Distribute)] == false,\n            \"Block is already rewarded\"\n        );\n        _;\n    }\n\n    modifier onlyNotUpdated() {\n        require(\n            operationsDone[block.number][uint8(Operations.UpdateValidators)] ==\n                false,\n            \"Validators already updated\"\n        );\n        _;\n    }\n\n    function initialize(address[] calldata vals) external onlyNotInitialized {\n        proposal = Proposal(ProposalAddr);\n        punish = Punish(PunishContractAddr);\n\n        for (uint256 i = 0; i < vals.length; i++) {\n            require(vals[i] != address(0), \"Invalid validator address\");\n\n            if (!isActiveValidator(vals[i])) {\n                currentValidatorSet.push(vals[i]);\n            }\n            if (!isTopValidator(vals[i])) {\n                highestValidatorsSet.push(vals[i]);\n            }\n            if (validatorInfo[vals[i]].feeAddr == address(0)) {\n                validatorInfo[vals[i]].feeAddr = payable(vals[i]);\n            }\n            // Important: NotExist validator can't get profits\n            if (validatorInfo[vals[i]].status == Status.NotExist) {\n                validatorInfo[vals[i]].status = Status.Staked;\n            }\n        }\n\n        initialized = true;\n    }\n\n    // stake for the validator\n    function stake(address validator)\n        external\n        payable\n        onlyInitialized\n        returns (bool)\n    {\n        address payable staker = msg.sender;\n        uint256 staking = msg.value;\n\n        require(\n            validatorInfo[validator].status == Status.Created ||\n                validatorInfo[validator].status == Status.Staked,\n            \"Can't stake to a validator in abnormal status\"\n        );\n        require(\n            proposal.pass(validator),\n            \"The validator you want to stake must be authorized first\"\n        );\n        require(\n            staked[staker][validator].unstakeBlock == 0,\n            \"Can't stake when you are unstaking\"\n        );\n\n        Validator storage valInfo = validatorInfo[validator];\n        // The staked coins of validator must >= MinimalStakingCoin\n        require(\n            valInfo.coins.add(staking) >= MinimalStakingCoin,\n            \"Staking coins not enough\"\n        );\n\n        // stake at first time to this valiadtor\n        if (staked[staker][validator].coins == 0) {\n            // add staker to validator's record list\n            staked[staker][validator].index = valInfo.stakers.length;\n            valInfo.stakers.push(staker);\n        }\n\n        valInfo.coins = valInfo.coins.add(staking);\n        if (valInfo.status != Status.Staked) {\n            valInfo.status = Status.Staked;\n        }\n        tryAddValidatorToHighestSet(validator, valInfo.coins);\n\n        // record staker's info\n        staked[staker][validator].coins = staked[staker][validator].coins.add(\n            staking\n        );\n        totalStake = totalStake.add(staking);\n\n        emit LogStake(staker, validator, staking, block.timestamp);\n        return true;\n    }\n\n    function createOrEditValidator(\n        address payable feeAddr,\n        string calldata moniker,\n        string calldata identity,\n        string calldata website,\n        string calldata email,\n        string calldata details\n    ) external onlyInitialized returns (bool) {\n        require(feeAddr != address(0), \"Invalid fee address\");\n        require(\n            validateDescription(moniker, identity, website, email, details),\n            \"Invalid description\"\n        );\n        address payable validator = msg.sender;\n        bool isCreate = false;\n        if (validatorInfo[validator].status == Status.NotExist) {\n            require(proposal.pass(validator), \"You must be authorized first\");\n            validatorInfo[validator].status = Status.Created;\n            isCreate = true;\n        }\n\n        if (validatorInfo[validator].feeAddr != feeAddr) {\n            validatorInfo[validator].feeAddr = feeAddr;\n        }\n\n        validatorInfo[validator].description = Description(\n            moniker,\n            identity,\n            website,\n            email,\n            details\n        );\n\n        if (isCreate) {\n            emit LogCreateValidator(validator, feeAddr, block.timestamp);\n        } else {\n            emit LogEditValidator(validator, feeAddr, block.timestamp);\n        }\n        return true;\n    }\n\n    function tryReactive(address validator)\n        external\n        onlyProposalContract\n        onlyInitialized\n        returns (bool)\n    {\n        // Only update validator status if Unstaked/Jailed\n        if (\n            validatorInfo[validator].status != Status.Unstaked &&\n            validatorInfo[validator].status != Status.Jailed\n        ) {\n            return true;\n        }\n\n        if (validatorInfo[validator].status == Status.Jailed) {\n            require(punish.cleanPunishRecord(validator), \"clean failed\");\n        }\n        validatorInfo[validator].status = Status.Created;\n\n        emit LogReactive(validator, block.timestamp);\n    }\n\n    function unstake(address validator)\n        external\n        onlyInitialized\n        returns (bool)\n    {\n        address staker = msg.sender;\n        require(\n            validatorInfo[validator].status != Status.NotExist,\n            \"Validator not exist\"\n        );\n\n        StakingInfo storage stakingInfo = staked[staker][validator];\n        Validator storage valInfo = validatorInfo[validator];\n        uint256 unstakeAmount = stakingInfo.coins;\n\n        require(\n            stakingInfo.unstakeBlock == 0,\n            \"You are already in unstaking status\"\n        );\n        require(unstakeAmount > 0, \"You don't have any stake\");\n        // You can't unstake if the validator is the only one top validator and\n        // this unstake operation will cause staked coins of validator < MinimalStakingCoin\n        require(\n            !(highestValidatorsSet.length == 1 &&\n                isTopValidator(validator) &&\n                valInfo.coins.sub(unstakeAmount) < MinimalStakingCoin),\n            \"You can't unstake, validator list will be empty after this operation!\"\n        );\n\n        // try to remove this staker out of validator stakers list.\n        if (stakingInfo.index != valInfo.stakers.length - 1) {\n            valInfo.stakers[stakingInfo.index] = valInfo.stakers[valInfo\n                .stakers\n                .length - 1];\n            // update index of the changed staker.\n            staked[valInfo.stakers[stakingInfo.index]][validator]\n                .index = stakingInfo.index;\n        }\n        valInfo.stakers.pop();\n\n        valInfo.coins = valInfo.coins.sub(unstakeAmount);\n        stakingInfo.unstakeBlock = block.number;\n        stakingInfo.index = 0;\n        totalStake = totalStake.sub(unstakeAmount);\n\n        // try to remove it out of active validator set if validator's coins < MinimalStakingCoin\n        if (valInfo.coins < MinimalStakingCoin) {\n            valInfo.status = Status.Unstaked;\n            // it's ok if validator not in highest set\n            tryRemoveValidatorInHighestSet(validator);\n\n            // call proposal contract to set unpass.\n            // validator have to repropose to rebecome a validator.\n            proposal.setUnpassed(validator);\n        }\n\n        emit LogUnstake(staker, validator, unstakeAmount, block.timestamp);\n        return true;\n    }\n\n    function withdrawStaking(address validator) external returns (bool) {\n        address payable staker = payable(msg.sender);\n        StakingInfo storage stakingInfo = staked[staker][validator];\n        require(\n            validatorInfo[validator].status != Status.NotExist,\n            \"validator not exist\"\n        );\n        require(stakingInfo.unstakeBlock != 0, \"You have to unstake first\");\n        // Ensure staker can withdraw his staking back\n        require(\n            stakingInfo.unstakeBlock + StakingLockPeriod <= block.number,\n            \"Your staking haven't unlocked yet\"\n        );\n        require(stakingInfo.coins > 0, \"You don't have any stake\");\n\n        uint256 staking = stakingInfo.coins;\n        stakingInfo.coins = 0;\n        stakingInfo.unstakeBlock = 0;\n\n        // send stake back to staker\n        staker.transfer(staking);\n\n        emit LogWithdrawStaking(staker, validator, staking, block.timestamp);\n        return true;\n    }\n\n    // feeAddr can withdraw profits of it's validator\n    function withdrawProfits(address validator) external returns (bool) {\n        address payable feeAddr = payable(msg.sender);\n        require(\n            validatorInfo[validator].status != Status.NotExist,\n            \"Validator not exist\"\n        );\n        require(\n            validatorInfo[validator].feeAddr == feeAddr,\n            \"You are not the fee receiver of this validator\"\n        );\n        require(\n            validatorInfo[validator].lastWithdrawProfitsBlock +\n                WithdrawProfitPeriod <=\n                block.number,\n            \"You must wait enough blocks to withdraw your profits after latest withdraw of this validator\"\n        );\n        uint256 hbIncoming = validatorInfo[validator].hbIncoming;\n        require(hbIncoming > 0, \"You don't have any profits\");\n\n        // update info\n        validatorInfo[validator].hbIncoming = 0;\n        validatorInfo[validator].lastWithdrawProfitsBlock = block.number;\n\n        // send profits to fee address\n        if (hbIncoming > 0) {\n            feeAddr.transfer(hbIncoming);\n        }\n\n        emit LogWithdrawProfits(\n            validator,\n            feeAddr,\n            hbIncoming,\n            block.timestamp\n        );\n\n        return true;\n    }\n\n    // distributeBlockReward distributes block reward to all active validators\n    function distributeBlockReward()\n        external\n        payable\n        onlyMiner\n        onlyNotRewarded\n        onlyInitialized\n    {\n        operationsDone[block.number][uint8(Operations.Distribute)] = true;\n        address val = msg.sender;\n        uint256 hb = msg.value;\n\n        // never reach this\n        if (validatorInfo[val].status == Status.NotExist) {\n            return;\n        }\n\n        // Jailed validator can't get profits.\n        addProfitsToActiveValidatorsByStakePercentExcept(hb, address(0));\n\n        emit LogDistributeBlockReward(val, hb, block.timestamp);\n    }\n\n    function updateActiveValidatorSet(address[] memory newSet, uint256 epoch)\n        public\n        onlyMiner\n        onlyNotUpdated\n        onlyInitialized\n        onlyBlockEpoch(epoch)\n    {\n        operationsDone[block.number][uint8(Operations.UpdateValidators)] = true;\n        require(newSet.length > 0, \"Validator set empty!\");\n\n        currentValidatorSet = newSet;\n\n        emit LogUpdateValidator(newSet);\n    }\n\n    function removeValidator(address val) external onlyPunishContract {\n        uint256 hb = validatorInfo[val].hbIncoming;\n\n        tryRemoveValidatorIncoming(val);\n\n        // remove the validator out of active set\n        // Note: the jailed validator may in active set if there is only one validator exists\n        if (highestValidatorsSet.length > 1) {\n            tryJailValidator(val);\n\n            // call proposal contract to set unpass.\n            // you have to repropose to be a validator.\n            proposal.setUnpassed(val);\n            emit LogRemoveValidator(val, hb, block.timestamp);\n        }\n    }\n\n    function removeValidatorIncoming(address val) external onlyPunishContract {\n        tryRemoveValidatorIncoming(val);\n    }\n\n    function getValidatorDescription(address val)\n        public\n        view\n        returns (\n            string memory,\n            string memory,\n            string memory,\n            string memory,\n            string memory\n        )\n    {\n        Validator memory v = validatorInfo[val];\n\n        return (\n            v.description.moniker,\n            v.description.identity,\n            v.description.website,\n            v.description.email,\n            v.description.details\n        );\n    }\n\n    function getValidatorInfo(address val)\n        public\n        view\n        returns (\n            address payable,\n            Status,\n            uint256,\n            uint256,\n            uint256,\n            uint256,\n            address[] memory\n        )\n    {\n        Validator memory v = validatorInfo[val];\n\n        return (\n            v.feeAddr,\n            v.status,\n            v.coins,\n            v.hbIncoming,\n            v.totalJailedHB,\n            v.lastWithdrawProfitsBlock,\n            v.stakers\n        );\n    }\n\n    function getStakingInfo(address staker, address val)\n        public\n        view\n        returns (\n            uint256,\n            uint256,\n            uint256\n        )\n    {\n        return (\n            staked[staker][val].coins,\n            staked[staker][val].unstakeBlock,\n            staked[staker][val].index\n        );\n    }\n\n    function getActiveValidators() public view returns (address[] memory) {\n        return currentValidatorSet;\n    }\n\n    function getTotalStakeOfActiveValidators()\n        public\n        view\n        returns (uint256 total, uint256 len)\n    {\n        return getTotalStakeOfActiveValidatorsExcept(address(0));\n    }\n\n    function getTotalStakeOfActiveValidatorsExcept(address val)\n        private\n        view\n        returns (uint256 total, uint256 len)\n    {\n        for (uint256 i = 0; i < currentValidatorSet.length; i++) {\n            if (\n                validatorInfo[currentValidatorSet[i]].status != Status.Jailed &&\n                val != currentValidatorSet[i]\n            ) {\n                total = total.add(validatorInfo[currentValidatorSet[i]].coins);\n                len++;\n            }\n        }\n\n        return (total, len);\n    }\n\n    function isActiveValidator(address who) public view returns (bool) {\n        for (uint256 i = 0; i < currentValidatorSet.length; i++) {\n            if (currentValidatorSet[i] == who) {\n                return true;\n            }\n        }\n\n        return false;\n    }\n\n    function isTopValidator(address who) public view returns (bool) {\n        for (uint256 i = 0; i < highestValidatorsSet.length; i++) {\n            if (highestValidatorsSet[i] == who) {\n                return true;\n            }\n        }\n\n        return false;\n    }\n\n    function getTopValidators() public view returns (address[] memory) {\n        return highestValidatorsSet;\n    }\n\n    function validateDescription(\n        string memory moniker,\n        string memory identity,\n        string memory website,\n        string memory email,\n        string memory details\n    ) public pure returns (bool) {\n        require(bytes(moniker).length <= 70, \"Invalid moniker length\");\n        require(bytes(identity).length <= 3000, \"Invalid identity length\");\n        require(bytes(website).length <= 140, \"Invalid website length\");\n        require(bytes(email).length <= 140, \"Invalid email length\");\n        require(bytes(details).length <= 280, \"Invalid details length\");\n\n        return true;\n    }\n\n    function tryAddValidatorToHighestSet(address val, uint256 staking)\n        internal\n    {\n        // do nothing if you are already in highestValidatorsSet set\n        for (uint256 i = 0; i < highestValidatorsSet.length; i++) {\n            if (highestValidatorsSet[i] == val) {\n                return;\n            }\n        }\n\n        if (highestValidatorsSet.length < MaxValidators) {\n            highestValidatorsSet.push(val);\n            emit LogAddToTopValidators(val, block.timestamp);\n            return;\n        }\n\n        // find lowest validator index in current validator set\n        uint256 lowest = validatorInfo[highestValidatorsSet[0]].coins;\n        uint256 lowestIndex = 0;\n        for (uint256 i = 1; i < highestValidatorsSet.length; i++) {\n            if (validatorInfo[highestValidatorsSet[i]].coins < lowest) {\n                lowest = validatorInfo[highestValidatorsSet[i]].coins;\n                lowestIndex = i;\n            }\n        }\n\n        // do nothing if staking amount isn't bigger than current lowest\n        if (staking <= lowest) {\n            return;\n        }\n\n        // replace the lowest validator\n        emit LogAddToTopValidators(val, block.timestamp);\n        emit LogRemoveFromTopValidators(\n            highestValidatorsSet[lowestIndex],\n            block.timestamp\n        );\n        highestValidatorsSet[lowestIndex] = val;\n    }\n\n    function tryRemoveValidatorIncoming(address val) private {\n        // do nothing if validator not exist(impossible)\n        if (\n            validatorInfo[val].status == Status.NotExist ||\n            currentValidatorSet.length <= 1\n        ) {\n            return;\n        }\n\n        uint256 hb = validatorInfo[val].hbIncoming;\n        if (hb > 0) {\n            addProfitsToActiveValidatorsByStakePercentExcept(hb, val);\n            // for display purpose\n            totalJailedHB = totalJailedHB.add(hb);\n            validatorInfo[val].totalJailedHB = validatorInfo[val]\n                .totalJailedHB\n                .add(hb);\n\n            validatorInfo[val].hbIncoming = 0;\n        }\n\n        emit LogRemoveValidatorIncoming(val, hb, block.timestamp);\n    }\n\n    // add profits to all validators by stake percent except the punished validator or jailed validator\n    function addProfitsToActiveValidatorsByStakePercentExcept(\n        uint256 totalReward,\n        address punishedVal\n    ) private {\n        if (totalReward == 0) {\n            return;\n        }\n\n        uint256 totalRewardStake;\n        uint256 rewardValsLen;\n        (\n            totalRewardStake,\n            rewardValsLen\n        ) = getTotalStakeOfActiveValidatorsExcept(punishedVal);\n\n        if (rewardValsLen == 0) {\n            return;\n        }\n\n        uint256 remain;\n        address last;\n\n        // no stake(at genesis period)\n        if (totalRewardStake == 0) {\n            uint256 per = totalReward.div(rewardValsLen);\n            remain = totalReward.sub(per.mul(rewardValsLen));\n\n            for (uint256 i = 0; i < currentValidatorSet.length; i++) {\n                address val = currentValidatorSet[i];\n                if (\n                    validatorInfo[val].status != Status.Jailed &&\n                    val != punishedVal\n                ) {\n                    validatorInfo[val].hbIncoming = validatorInfo[val]\n                        .hbIncoming\n                        .add(per);\n\n                    last = val;\n                }\n            }\n\n            if (remain > 0 && last != address(0)) {\n                validatorInfo[last].hbIncoming = validatorInfo[last]\n                    .hbIncoming\n                    .add(remain);\n            }\n            return;\n        }\n\n        uint256 added;\n        for (uint256 i = 0; i < currentValidatorSet.length; i++) {\n            address val = currentValidatorSet[i];\n            if (\n                validatorInfo[val].status != Status.Jailed && val != punishedVal\n            ) {\n                uint256 reward = totalReward.mul(validatorInfo[val].coins).div(\n                    totalRewardStake\n                );\n                added = added.add(reward);\n                last = val;\n                validatorInfo[val].hbIncoming = validatorInfo[val]\n                    .hbIncoming\n                    .add(reward);\n            }\n        }\n\n        remain = totalReward.sub(added);\n        if (remain > 0 && last != address(0)) {\n            validatorInfo[last].hbIncoming = validatorInfo[last].hbIncoming.add(\n                remain\n            );\n        }\n    }\n\n    function tryJailValidator(address val) private {\n        // do nothing if validator not exist\n        if (validatorInfo[val].status == Status.NotExist) {\n            return;\n        }\n\n        // set validator status to jailed\n        validatorInfo[val].status = Status.Jailed;\n\n        // try to remove if it's in active validator set\n        tryRemoveValidatorInHighestSet(val);\n    }\n\n    function tryRemoveValidatorInHighestSet(address val) private {\n        for (\n            uint256 i = 0;\n            // ensure at least one validator exist\n            i < highestValidatorsSet.length && highestValidatorsSet.length > 1;\n            i++\n        ) {\n            if (val == highestValidatorsSet[i]) {\n                // remove it\n                if (i != highestValidatorsSet.length - 1) {\n                    highestValidatorsSet[i] = highestValidatorsSet[highestValidatorsSet\n                        .length - 1];\n                }\n\n                highestValidatorsSet.pop();\n                emit LogRemoveFromTopValidators(val, block.timestamp);\n\n                break;\n            }\n        }\n    }\n}\n",
  "sourcePath": "/Users/lisheng/Downloads/hscchains/huobi-eco-contracts-master/contracts/Validators.sol",
  "compiler": {
    "name": "solc",
    "version": "0.6.1+commit.e6f7d5a4.Emscripten.clang"
  },
  "schemaVersion": "3.0.23",
  "updatedAt": "2021-04-19T02:54:53.382Z",
  "devdoc": {
    "methods": {}
  },
  "userdoc": {
    "methods": {}
  }
}