{
  "contractName": "TToken",
  "abi": [
    {
      "inputs": [],
      "stateMutability": "nonpayable",
      "type": "constructor"
    },
    {
      "anonymous": false,
      "inputs": [
        {
          "indexed": true,
          "internalType": "address",
          "name": "src",
          "type": "address"
        },
        {
          "indexed": true,
          "internalType": "address",
          "name": "dst",
          "type": "address"
        },
        {
          "indexed": false,
          "internalType": "uint256",
          "name": "amt",
          "type": "uint256"
        }
      ],
      "name": "Approval",
      "type": "event"
    },
    {
      "anonymous": false,
      "inputs": [
        {
          "indexed": true,
          "internalType": "address",
          "name": "previousOwner",
          "type": "address"
        },
        {
          "indexed": true,
          "internalType": "address",
          "name": "newOwner",
          "type": "address"
        }
      ],
      "name": "OwnershipTransferred",
      "type": "event"
    },
    {
      "anonymous": false,
      "inputs": [
        {
          "indexed": true,
          "internalType": "address",
          "name": "src",
          "type": "address"
        },
        {
          "indexed": true,
          "internalType": "address",
          "name": "dst",
          "type": "address"
        },
        {
          "indexed": false,
          "internalType": "uint256",
          "name": "amt",
          "type": "uint256"
        }
      ],
      "name": "Transfer",
      "type": "event"
    },
    {
      "inputs": [],
      "name": "verifiedStatus",
      "outputs": [
        {
          "internalType": "bool",
          "name": "",
          "type": "bool"
        }
      ],
      "stateMutability": "view",
      "type": "function"
    },
    {
      "inputs": [
        {
          "internalType": "string",
          "name": "name",
          "type": "string"
        },
        {
          "internalType": "string",
          "name": "sym",
          "type": "string"
        },
        {
          "internalType": "uint256",
          "name": "maxSupply",
          "type": "uint256"
        }
      ],
      "name": "initialize",
      "outputs": [],
      "stateMutability": "nonpayable",
      "type": "function"
    },
    {
      "inputs": [],
      "name": "isOwner",
      "outputs": [
        {
          "internalType": "bool",
          "name": "",
          "type": "bool"
        }
      ],
      "stateMutability": "view",
      "type": "function"
    },
    {
      "inputs": [
        {
          "internalType": "address",
          "name": "newOwner",
          "type": "address"
        }
      ],
      "name": "transferOwnership",
      "outputs": [],
      "stateMutability": "nonpayable",
      "type": "function"
    },
    {
      "inputs": [],
      "name": "name",
      "outputs": [
        {
          "internalType": "string",
          "name": "",
          "type": "string"
        }
      ],
      "stateMutability": "view",
      "type": "function"
    },
    {
      "inputs": [],
      "name": "symbol",
      "outputs": [
        {
          "internalType": "string",
          "name": "",
          "type": "string"
        }
      ],
      "stateMutability": "view",
      "type": "function"
    },
    {
      "inputs": [],
      "name": "decimals",
      "outputs": [
        {
          "internalType": "uint8",
          "name": "",
          "type": "uint8"
        }
      ],
      "stateMutability": "view",
      "type": "function"
    },
    {
      "inputs": [],
      "name": "totalSupply",
      "outputs": [
        {
          "internalType": "uint256",
          "name": "",
          "type": "uint256"
        }
      ],
      "stateMutability": "view",
      "type": "function"
    },
    {
      "inputs": [
        {
          "internalType": "address",
          "name": "account",
          "type": "address"
        }
      ],
      "name": "balanceOf",
      "outputs": [
        {
          "internalType": "uint256",
          "name": "",
          "type": "uint256"
        }
      ],
      "stateMutability": "view",
      "type": "function"
    },
    {
      "inputs": [
        {
          "internalType": "address",
          "name": "recipient",
          "type": "address"
        },
        {
          "internalType": "uint256",
          "name": "amount",
          "type": "uint256"
        }
      ],
      "name": "transfer",
      "outputs": [
        {
          "internalType": "bool",
          "name": "",
          "type": "bool"
        }
      ],
      "stateMutability": "nonpayable",
      "type": "function"
    },
    {
      "inputs": [
        {
          "internalType": "address",
          "name": "_owner",
          "type": "address"
        },
        {
          "internalType": "address",
          "name": "spender",
          "type": "address"
        }
      ],
      "name": "allowance",
      "outputs": [
        {
          "internalType": "uint256",
          "name": "",
          "type": "uint256"
        }
      ],
      "stateMutability": "view",
      "type": "function"
    },
    {
      "inputs": [
        {
          "internalType": "address",
          "name": "spender",
          "type": "address"
        },
        {
          "internalType": "uint256",
          "name": "value",
          "type": "uint256"
        }
      ],
      "name": "approve",
      "outputs": [
        {
          "internalType": "bool",
          "name": "",
          "type": "bool"
        }
      ],
      "stateMutability": "nonpayable",
      "type": "function"
    },
    {
      "inputs": [
        {
          "internalType": "address",
          "name": "sender",
          "type": "address"
        },
        {
          "internalType": "address",
          "name": "recipient",
          "type": "address"
        },
        {
          "internalType": "uint256",
          "name": "amount",
          "type": "uint256"
        }
      ],
      "name": "transferFrom",
      "outputs": [
        {
          "internalType": "bool",
          "name": "",
          "type": "bool"
        }
      ],
      "stateMutability": "nonpayable",
      "type": "function"
    },
    {
      "inputs": [
        {
          "internalType": "address",
          "name": "spender",
          "type": "address"
        },
        {
          "internalType": "uint256",
          "name": "subtractedValue",
          "type": "uint256"
        }
      ],
      "name": "decreaseAllowance",
      "outputs": [
        {
          "internalType": "bool",
          "name": "",
          "type": "bool"
        }
      ],
      "stateMutability": "nonpayable",
      "type": "function"
    },
    {
      "inputs": [
        {
          "internalType": "address",
          "name": "account",
          "type": "address"
        },
        {
          "internalType": "uint256",
          "name": "amount",
          "type": "uint256"
        }
      ],
      "name": "issue",
      "outputs": [
        {
          "internalType": "bool",
          "name": "",
          "type": "bool"
        }
      ],
      "stateMutability": "nonpayable",
      "type": "function"
    },
    {
      "inputs": [
        {
          "internalType": "address",
          "name": "_addr",
          "type": "address"
        }
      ],
      "name": "addIssuer",
      "outputs": [
        {
          "internalType": "bool",
          "name": "",
          "type": "bool"
        }
      ],
      "stateMutability": "nonpayable",
      "type": "function"
    },
    {
      "inputs": [
        {
          "internalType": "address",
          "name": "_addr",
          "type": "address"
        }
      ],
      "name": "removeIssuer",
      "outputs": [
        {
          "internalType": "bool",
          "name": "",
          "type": "bool"
        }
      ],
      "stateMutability": "nonpayable",
      "type": "function"
    },
    {
      "inputs": [
        {
          "internalType": "bool",
          "name": "_verified",
          "type": "bool"
        }
      ],
      "name": "verify",
      "outputs": [],
      "stateMutability": "nonpayable",
      "type": "function"
    },
    {
      "inputs": [],
      "name": "verified",
      "outputs": [
        {
          "internalType": "bool",
          "name": "",
          "type": "bool"
        }
      ],
      "stateMutability": "nonpayable",
      "type": "function"
    }
  ],
  "bytecode": "0x608060405234801561001057600080fd5b506012600660006101000a81548160ff021916908360ff1602179055506000600860006101000a81548160ff02191690831515021790555033600660016101000a81548173ffffffffffffffffffffffffffffffffffffffff021916908373ffffffffffffffffffffffffffffffffffffffff1602179055506001600760003373ffffffffffffffffffffffffffffffffffffffff1673ffffffffffffffffffffffffffffffffffffffff16815260200190815260200160002060006101000a81548160ff021916908315150217905550611de6806100f06000396000f3fe608060405234801561001057600080fd5b50600436106101215760003560e01c8063867904b4116100ad578063b119490e11610071578063b119490e146105ee578063b469daeb1461074a578063bbb82d891461076c578063dd62ed3e1461078e578063f2fde38b1461080657610121565b8063867904b4146104175780638f32d59b1461047d57806395d89b411461049f578063a457c2d714610522578063a9059cbb1461058857610121565b806323b872dd116100f457806323b872dd14610289578063313ce5671461030f578063333641971461033357806347bc70931461036357806370a08231146103bf57610121565b806306fdde0314610126578063095ea7b3146101a957806318160ddd1461020f57806320694db01461022d575b600080fd5b61012e61084a565b6040518080602001828103825283818151815260200191508051906020019080838360005b8381101561016e578082015181840152602081019050610153565b50505050905090810190601f16801561019b5780820380516001836020036101000a031916815260200191505b509250505060405180910390f35b6101f5600480360360408110156101bf57600080fd5b81019080803573ffffffffffffffffffffffffffffffffffffffff169060200190929190803590602001909291905050506108ec565b604051808215151515815260200191505060405180910390f35b610217610903565b6040518082815260200191505060405180910390f35b61026f6004803603602081101561024357600080fd5b81019080803573ffffffffffffffffffffffffffffffffffffffff16906020019092919050505061090d565b604051808215151515815260200191505060405180910390f35b6102f56004803603606081101561029f57600080fd5b81019080803573ffffffffffffffffffffffffffffffffffffffff169060200190929190803573ffffffffffffffffffffffffffffffffffffffff16906020019092919080359060200190929190505050610af0565b604051808215151515815260200191505060405180910390f35b610317610ba1565b604051808260ff1660ff16815260200191505060405180910390f35b6103616004803603602081101561034957600080fd5b81019080803515159060200190929190505050610bb8565b005b6103a56004803603602081101561037957600080fd5b81019080803573ffffffffffffffffffffffffffffffffffffffff169060200190929190505050610c77565b604051808215151515815260200191505060405180910390f35b610401600480360360208110156103d557600080fd5b81019080803573ffffffffffffffffffffffffffffffffffffffff169060200190929190505050610e5a565b6040518082815260200191505060405180910390f35b6104636004803603604081101561042d57600080fd5b81019080803573ffffffffffffffffffffffffffffffffffffffff16906020019092919080359060200190929190505050610ea2565b604051808215151515815260200191505060405180910390f35b610485610f5a565b604051808215151515815260200191505060405180910390f35b6104a7610f69565b6040518080602001828103825283818151815260200191508051906020019080838360005b838110156104e75780820151818401526020810190506104cc565b50505050905090810190601f1680156105145780820380516001836020036101000a031916815260200191505b509250505060405180910390f35b61056e6004803603604081101561053857600080fd5b81019080803573ffffffffffffffffffffffffffffffffffffffff1690602001909291908035906020019092919050505061100b565b604051808215151515815260200191505060405180910390f35b6105d46004803603604081101561059e57600080fd5b81019080803573ffffffffffffffffffffffffffffffffffffffff169060200190929190803590602001909291905050506110b0565b604051808215151515815260200191505060405180910390f35b6107486004803603606081101561060457600080fd5b810190808035906020019064010000000081111561062157600080fd5b82018360208201111561063357600080fd5b8035906020019184600183028401116401000000008311171561065557600080fd5b91908080601f016020809104026020016040519081016040528093929190818152602001838380828437600081840152601f19601f820116905080830192505050505050509192919290803590602001906401000000008111156106b857600080fd5b8201836020820111156106ca57600080fd5b803590602001918460018302840111640100000000831117156106ec57600080fd5b91908080601f016020809104026020016040519081016040528093929190818152602001838380828437600081840152601f19601f820116905080830192505050505050509192919290803590602001909291905050506110c7565b005b610752611184565b604051808215151515815260200191505060405180910390f35b610774611197565b604051808215151515815260200191505060405180910390f35b6107f0600480360360408110156107a457600080fd5b81019080803573ffffffffffffffffffffffffffffffffffffffff169060200190929190803573ffffffffffffffffffffffffffffffffffffffff1690602001909291905050506111ae565b6040518082815260200191505060405180910390f35b6108486004803603602081101561081c57600080fd5b81019080803573ffffffffffffffffffffffffffffffffffffffff169060200190929190505050611235565b005b606060048054600181600116156101000203166002900480601f0160208091040260200160405190810160405280929190818152602001828054600181600116156101000203166002900480156108e25780601f106108b7576101008083540402835291602001916108e2565b820191906000526020600020905b8154815290600101906020018083116108c557829003601f168201915b5050505050905090565b60006108f93384846113f5565b6001905092915050565b6000600254905090565b60006109176115ec565b610989576040517f08c379a00000000000000000000000000000000000000000000000000000000081526004018080602001828103825260178152602001807f43616c6c6572206973206e6f7420746865206f776e657200000000000000000081525060200191505060405180910390fd5b600073ffffffffffffffffffffffffffffffffffffffff168273ffffffffffffffffffffffffffffffffffffffff161415610a2c576040517f08c379a00000000000000000000000000000000000000000000000000000000081526004018080602001828103825260138152602001807f616464726573732063616e6e6f7420626520300000000000000000000000000081525060200191505060405180910390fd5b60001515600760008473ffffffffffffffffffffffffffffffffffffffff1673ffffffffffffffffffffffffffffffffffffffff16815260200190815260200160002060009054906101000a900460ff1615151415610ae6576001600760008473ffffffffffffffffffffffffffffffffffffffff1673ffffffffffffffffffffffffffffffffffffffff16815260200190815260200160002060006101000a81548160ff02191690831515021790555060019050610aeb565b600090505b919050565b6000610afd848484611644565b610b968433610b9185600160008a73ffffffffffffffffffffffffffffffffffffffff1673ffffffffffffffffffffffffffffffffffffffff16815260200190815260200160002060003373ffffffffffffffffffffffffffffffffffffffff1673ffffffffffffffffffffffffffffffffffffffff168152602001908152602001600020546118e090919063ffffffff16565b6113f5565b600190509392505050565b6000600660009054906101000a900460ff16905090565b600760003373ffffffffffffffffffffffffffffffffffffffff1673ffffffffffffffffffffffffffffffffffffffff16815260200190815260200160002060009054906101000a900460ff16610c5a576040517f08c379a000000000000000000000000000000000000000000000000000000000815260040180806020018281038252602f815260200180611d39602f913960400191505060405180910390fd5b80600860006101000a81548160ff02191690831515021790555050565b6000610c816115ec565b610cf3576040517f08c379a00000000000000000000000000000000000000000000000000000000081526004018080602001828103825260178152602001807f43616c6c6572206973206e6f7420746865206f776e657200000000000000000081525060200191505060405180910390fd5b600073ffffffffffffffffffffffffffffffffffffffff168273ffffffffffffffffffffffffffffffffffffffff161415610d96576040517f08c379a00000000000000000000000000000000000000000000000000000000081526004018080602001828103825260138152602001807f616464726573732063616e6e6f7420626520300000000000000000000000000081525060200191505060405180910390fd5b60011515600760008473ffffffffffffffffffffffffffffffffffffffff1673ffffffffffffffffffffffffffffffffffffffff16815260200190815260200160002060009054906101000a900460ff1615151415610e50576000600760008473ffffffffffffffffffffffffffffffffffffffff1673ffffffffffffffffffffffffffffffffffffffff16815260200190815260200160002060006101000a81548160ff02191690831515021790555060019050610e55565b600090505b919050565b60008060008373ffffffffffffffffffffffffffffffffffffffff1673ffffffffffffffffffffffffffffffffffffffff168152602001908152602001600020549050919050565b6000600760003373ffffffffffffffffffffffffffffffffffffffff1673ffffffffffffffffffffffffffffffffffffffff16815260200190815260200160002060009054906101000a900460ff16610f46576040517f08c379a000000000000000000000000000000000000000000000000000000000815260040180806020018281038252602f815260200180611d39602f913960400191505060405180910390fd5b610f508383611963565b6001905092915050565b6000610f646115ec565b905090565b606060058054600181600116156101000203166002900480601f0160208091040260200160405190810160405280929190818152602001828054600181600116156101000203166002900480156110015780601f10610fd657610100808354040283529160200191611001565b820191906000526020600020905b815481529060010190602001808311610fe457829003601f168201915b5050505050905090565b60006110a633846110a185600160003373ffffffffffffffffffffffffffffffffffffffff1673ffffffffffffffffffffffffffffffffffffffff16815260200190815260200160002060008973ffffffffffffffffffffffffffffffffffffffff1673ffffffffffffffffffffffffffffffffffffffff168152602001908152602001600020546118e090919063ffffffff16565b6113f5565b6001905092915050565b60006110bd338484611644565b6001905092915050565b6110cf6115ec565b611141576040517f08c379a00000000000000000000000000000000000000000000000000000000081526004018080602001828103825260178152602001807f43616c6c6572206973206e6f7420746865206f776e657200000000000000000081525060200191505060405180910390fd5b8160059080519060200190611157929190611bfe565b50826004908051906020019061116e929190611bfe565b506000811461117f57806003819055505b505050565b600860009054906101000a900460ff1681565b6000600860009054906101000a900460ff16905090565b6000600160008473ffffffffffffffffffffffffffffffffffffffff1673ffffffffffffffffffffffffffffffffffffffff16815260200190815260200160002060008373ffffffffffffffffffffffffffffffffffffffff1673ffffffffffffffffffffffffffffffffffffffff16815260200190815260200160002054905092915050565b61123d6115ec565b6112af576040517f08c379a00000000000000000000000000000000000000000000000000000000081526004018080602001828103825260178152602001807f43616c6c6572206973206e6f7420746865206f776e657200000000000000000081525060200191505060405180910390fd5b600073ffffffffffffffffffffffffffffffffffffffff168173ffffffffffffffffffffffffffffffffffffffff161415611335576040517f08c379a0000000000000000000000000000000000000000000000000000000008152600401808060200182810382526026815260200180611cc76026913960400191505060405180910390fd5b8073ffffffffffffffffffffffffffffffffffffffff16600660019054906101000a900473ffffffffffffffffffffffffffffffffffffffff1673ffffffffffffffffffffffffffffffffffffffff167f8be0079c531659141344cd1fd0a4f28419497f9722a3daafe3b4186f6b6457e060405160405180910390a380600660016101000a81548173ffffffffffffffffffffffffffffffffffffffff021916908373ffffffffffffffffffffffffffffffffffffffff16021790555050565b600073ffffffffffffffffffffffffffffffffffffffff168373ffffffffffffffffffffffffffffffffffffffff16141561147b576040517f08c379a0000000000000000000000000000000000000000000000000000000008152600401808060200182810382526024815260200180611d8d6024913960400191505060405180910390fd5b600073ffffffffffffffffffffffffffffffffffffffff168273ffffffffffffffffffffffffffffffffffffffff161415611501576040517f08c379a0000000000000000000000000000000000000000000000000000000008152600401808060200182810382526022815260200180611ced6022913960400191505060405180910390fd5b80600160008573ffffffffffffffffffffffffffffffffffffffff1673ffffffffffffffffffffffffffffffffffffffff16815260200190815260200160002060008473ffffffffffffffffffffffffffffffffffffffff1673ffffffffffffffffffffffffffffffffffffffff168152602001908152602001600020819055508173ffffffffffffffffffffffffffffffffffffffff168373ffffffffffffffffffffffffffffffffffffffff167f8c5be1e5ebec7d5bd14f71427d1e84f3dd0314c0f7b2291e5b200ac8c7c3b925836040518082815260200191505060405180910390a3505050565b6000600660019054906101000a900473ffffffffffffffffffffffffffffffffffffffff1673ffffffffffffffffffffffffffffffffffffffff163373ffffffffffffffffffffffffffffffffffffffff1614905090565b600073ffffffffffffffffffffffffffffffffffffffff168373ffffffffffffffffffffffffffffffffffffffff1614156116ca576040517f08c379a0000000000000000000000000000000000000000000000000000000008152600401808060200182810382526025815260200180611d686025913960400191505060405180910390fd5b600073ffffffffffffffffffffffffffffffffffffffff168273ffffffffffffffffffffffffffffffffffffffff161415611750576040517f08c379a0000000000000000000000000000000000000000000000000000000008152600401808060200182810382526023815260200180611ca46023913960400191505060405180910390fd5b6117a1816000808673ffffffffffffffffffffffffffffffffffffffff1673ffffffffffffffffffffffffffffffffffffffff168152602001908152602001600020546118e090919063ffffffff16565b6000808573ffffffffffffffffffffffffffffffffffffffff1673ffffffffffffffffffffffffffffffffffffffff16815260200190815260200160002081905550611834816000808573ffffffffffffffffffffffffffffffffffffffff1673ffffffffffffffffffffffffffffffffffffffff16815260200190815260200160002054611b7b90919063ffffffff16565b6000808473ffffffffffffffffffffffffffffffffffffffff1673ffffffffffffffffffffffffffffffffffffffff168152602001908152602001600020819055508173ffffffffffffffffffffffffffffffffffffffff168373ffffffffffffffffffffffffffffffffffffffff167fddf252ad1be2c89b69c2b068fc378daa952ba7f163c4a11628f55a4df523b3ef836040518082815260200191505060405180910390a3505050565b600082828403915081111561195d576040517f08c379a00000000000000000000000000000000000000000000000000000000081526004018080602001828103825260158152602001807f64732d6d6174682d7375622d756e646572666c6f77000000000000000000000081525060200191505060405180910390fd5b92915050565b600073ffffffffffffffffffffffffffffffffffffffff168273ffffffffffffffffffffffffffffffffffffffff161415611a06576040517f08c379a000000000000000000000000000000000000000000000000000000000815260040180806020018281038252601f8152602001807f45524332303a206d696e7420746f20746865207a65726f20616464726573730081525060200191505060405180910390fd5b611a1b81600254611b7b90919063ffffffff16565b6002819055506003546002541115611a7e576040517f08c379a000000000000000000000000000000000000000000000000000000000815260040180806020018281038252602a815260200180611d0f602a913960400191505060405180910390fd5b611acf816000808573ffffffffffffffffffffffffffffffffffffffff1673ffffffffffffffffffffffffffffffffffffffff16815260200190815260200160002054611b7b90919063ffffffff16565b6000808473ffffffffffffffffffffffffffffffffffffffff1673ffffffffffffffffffffffffffffffffffffffff168152602001908152602001600020819055508173ffffffffffffffffffffffffffffffffffffffff16600073ffffffffffffffffffffffffffffffffffffffff167fddf252ad1be2c89b69c2b068fc378daa952ba7f163c4a11628f55a4df523b3ef836040518082815260200191505060405180910390a35050565b6000828284019150811015611bf8576040517f08c379a00000000000000000000000000000000000000000000000000000000081526004018080602001828103825260148152602001807f64732d6d6174682d6164642d6f766572666c6f7700000000000000000000000081525060200191505060405180910390fd5b92915050565b828054600181600116156101000203166002900490600052602060002090601f016020900481019282601f10611c3f57805160ff1916838001178555611c6d565b82800160010185558215611c6d579182015b82811115611c6c578251825591602001919060010190611c51565b5b509050611c7a9190611c7e565b5090565b611ca091905b80821115611c9c576000816000905550600101611c84565b5090565b9056fe45524332303a207472616e7366657220746f20746865207a65726f20616464726573734f776e61626c653a206e6577206f776e657220697320746865207a65726f206164647265737345524332303a20617070726f766520746f20746865207a65726f206164647265737345524332303a20737570706c7920616d6f756e742063616e6e6f74206f766572206d6178537570706c795468652063616c6c657220646f6573206e6f7420686176652069737375657220726f6c652070726976696c6567657345524332303a207472616e736665722066726f6d20746865207a65726f206164647265737345524332303a20617070726f76652066726f6d20746865207a65726f2061646472657373a2646970667358221220c006d6034e80a37db59285dda72d023c66c0333c5cdfaab3202e2c8128b2e93564736f6c63430006000033",
  "source": "pragma solidity ^0.6.0;\n\nimport '../SafeMath.sol';\nimport \"../ISwapXToken.sol\";\nimport \"../IERC20.sol\";\n\nimport '../SwapXPTStorage.sol';\n\ncontract TToken is SwapXPTStorage, IERC20, ISwapXToken {\n\n    using SafeMath for uint;\n\n    bool public verifiedStatus;\n\n    /*\n     * Non-Standard Events\n     */\n    event OwnershipTransferred(address indexed previousOwner, address indexed newOwner);\n\n    /*\n     * Modifyiers\n     */\n    modifier onlyOwner() {\n        require(_isOwner(), \"Caller is not the owner\");\n        _;\n    }\n\n    modifier onlyIssuer() {\n        require(issuer[msg.sender], \"The caller does not have issuer role privileges\");\n        _;\n    }\n\n    /**\n      * @dev We don't set any data apart from the proxy address here, as we are in the\n      * wrong context if deployed through the proxy.\n      */\n    constructor () public {\n        _decimals = 18;\n        verifiedStatus = false;\n        owner = msg.sender;\n        issuer[msg.sender] = true;\n    }\n\n    // called once by the factory at time of deployment\n    function initialize(string memory name, string memory sym, uint maxSupply) onlyOwner public override{\n        _symbol = sym;\n        _name = name;\n        //        _name = 'Pair Token';\n        if (maxSupply != 0) {\n            _maxSupply = maxSupply;\n        }\n\n    }\n\n    /**\n     * Checks if the caller of an transaction is the owner of the contract\n     * @return true or false\n     */\n    function isOwner() external view returns (bool) {\n        return _isOwner();\n    }\n\n    function _isOwner() internal view returns (bool) {\n        return msg.sender == owner;\n    }\n    /**\n     * Allows the current contract owner to transfer ownership to a new address.\n     * @param newOwner The new contract owner\n     */\n    function transferOwnership(address newOwner) external onlyOwner override {\n        require(newOwner != address(0), \"Ownable: new owner is the zero address\");\n        emit OwnershipTransferred(owner, newOwner);\n        owner = newOwner;\n    }\n\n    /**\n     * Returns the name of the token\n     */\n    function name() external view returns (string memory) {\n        return _name;\n    }\n\n    /**\n     * Returns the symbol of the token\n     */\n    function symbol() external view returns (string memory) {\n        return _symbol;\n    }\n\n    /**\n     * Returns the number of decimals\n     */\n    function decimals() external view returns (uint8) {\n        return _decimals;\n    }\n\n    /**\n     * Returns the total supply\n     */\n    function totalSupply() external view override returns (uint256) {\n        return _totalSupply;\n    }\n\n    /**\n     * Returns the balance of an address.\n     * @param account The address to check the balance of\n     */\n    function balanceOf(address account) public view override returns (uint256) {\n        return _balances[account];\n    }\n\n    /**\n     * Transfers balance from the message sender to the recipient\n     * @param recipient The address to send the balance to\n     * @param amount The balance to transfer\n     */\n    function transfer(address recipient, uint256 amount) external override returns (bool)  {\n        _transfer(msg.sender, recipient, amount);\n        return true;\n    }\n\n    /**\n     * Returns the allowance that the owner has given to a spender.\n     * @param _owner The address that is giving the allowance.\n     * @param spender The address that is granted the allowance.\n     */\n    function allowance(address _owner, address spender) external view override returns (uint256) {\n        return _allowances[_owner][spender];\n    }\n\n    /**\n     * Grants an allowance to the spender.\n     * @param spender The address that is granted the allowance.\n     * @param value The amount that is granted to the spender.\n     */\n    function approve(address spender, uint256 value) external override returns (bool) {\n        _approve(msg.sender, spender, value);\n        return true;\n    }\n\n    /**\n     * Transfers balance from the address that has granted allowance.\n     * @param sender The address that has granted the allowance.\n     * @param recipient The address to transfer the balance to.\n     * @param amount The amount that is transfered.\n     */\n    function transferFrom(address sender, address recipient, uint256 amount) external override returns (bool) {\n        _transfer(sender, recipient, amount);\n        _approve(sender, msg.sender, _allowances[sender][msg.sender].sub(amount));\n        return true;\n    }\n\n    /**\n     * Decreases the allowance to the spender.\n     * @param spender The address that is granted the allowance.\n     * @param subtractedValue The amount that is reduced.\n     */\n    function decreaseAllowance(address spender, uint256 subtractedValue) external  returns (bool) {\n        _approve(msg.sender, spender, _allowances[msg.sender][spender].sub(subtractedValue));\n        return true;\n    }\n\n    /**\n     * Allows an authorized issuer to isue new tokens\n     * @param account The account to be credited\n     * @param amount The balance to issue.\n     */\n    function issue(address account, uint256 amount) external onlyIssuer override returns (bool)  {\n        _mint(account, amount);\n        return true;\n    }\n    /**\n    * @dev Adds a complianceRole address with specific regulatory compliance privileges.\n    * @param _addr The address to be added\n    */\n    function addIssuer(address _addr) external onlyOwner override returns (bool) {\n        require(_addr != address(0), \"address cannot be 0\");\n        if (issuer[_addr] == false) {\n            issuer[_addr] = true;\n            return true;\n        }\n        return false;\n    }\n\n    /**\n     * @dev Removes complianceRole address with specific regulatory compliance privileges.\n     * @param _addr The address to be removed\n     */\n    function removeIssuer(address _addr) external onlyOwner override returns (bool) {\n        require(_addr != address(0), \"address cannot be 0\");\n        if (issuer[_addr] == true) {\n            issuer[_addr] = false;\n            return true;\n        }\n        return false;\n    }\n\n    /*\n     *Internal functions\n     */\n\n    /**\n     * Transfers balance from the sender to the recipient.\n     * @param sender The sender to reduce balance from\n     * @param recipient The recipient to increase balance\n     * @param amount The amount to transfer\n     */\n    function _transfer(address sender, address recipient, uint256 amount) internal {\n        require(sender != address(0), \"ERC20: transfer from the zero address\");\n        require(recipient != address(0), \"ERC20: transfer to the zero address\");\n\n        _balances[sender] = _balances[sender].sub(amount);\n        _balances[recipient] = _balances[recipient].add(amount);\n        emit Transfer(sender, recipient, amount);\n    }\n\n    /**\n     * Increases the balance of the account.\n     * @param account The account to increase balance from\n     * @param amount The amount to mint\n     */\n    function _mint(address account, uint256 amount) internal {\n        require(account != address(0), \"ERC20: mint to the zero address\");\n\n        _totalSupply = _totalSupply.add(amount);\n\n        require(_totalSupply <= _maxSupply, \"ERC20: supply amount cannot over maxSupply\");\n\n        _balances[account] = _balances[account].add(amount);\n        emit Transfer(address(0), account, amount);\n    }\n\n    function _approve(address _owner, address spender, uint256 value) internal {\n        require(_owner != address(0), \"ERC20: approve from the zero address\");\n        require(spender != address(0), \"ERC20: approve to the zero address\");\n\n        _allowances[_owner][spender] = value;\n        emit Approval(_owner, spender, value);\n    }\n\n    function verify(bool _verified) onlyIssuer  external override{\n        verifiedStatus = _verified;\n    }\n\n    function verified() external override returns (bool){\n            return verifiedStatus;\n    }\n}\n",
  "sourcePath": "/Users/lisheng/Downloads/defi/balancer/erc20-redeemable-master/merkle/contracts/tests/TToken.sol",
  "compiler": {
    "name": "solc",
    "version": "0.6.0+commit.26b70077.Emscripten.clang"
  },
  "schemaVersion": "3.2.3",
  "updatedAt": "2020-08-28T08:18:38.135Z",
  "devdoc": {
    "methods": {
      "addIssuer(address)": {
        "details": "Adds a complianceRole address with specific regulatory compliance privileges.",
        "params": {
          "_addr": "The address to be added"
        }
      },
      "allowance(address,address)": {
        "params": {
          "_owner": "The address that is giving the allowance.",
          "spender": "The address that is granted the allowance."
        }
      },
      "approve(address,uint256)": {
        "params": {
          "spender": "The address that is granted the allowance.",
          "value": "The amount that is granted to the spender."
        }
      },
      "balanceOf(address)": {
        "params": {
          "account": "The address to check the balance of"
        }
      },
      "constructor": {
        "details": "We don't set any data apart from the proxy address here, as we are in the wrong context if deployed through the proxy."
      },
      "decreaseAllowance(address,uint256)": {
        "params": {
          "spender": "The address that is granted the allowance.",
          "subtractedValue": "The amount that is reduced."
        }
      },
      "issue(address,uint256)": {
        "params": {
          "account": "The account to be credited",
          "amount": "The balance to issue."
        }
      },
      "removeIssuer(address)": {
        "details": "Removes complianceRole address with specific regulatory compliance privileges.",
        "params": {
          "_addr": "The address to be removed"
        }
      },
      "transfer(address,uint256)": {
        "params": {
          "amount": "The balance to transfer",
          "recipient": "The address to send the balance to"
        }
      },
      "transferFrom(address,address,uint256)": {
        "params": {
          "amount": "The amount that is transfered.",
          "recipient": "The address to transfer the balance to.",
          "sender": "The address that has granted the allowance."
        }
      },
      "transferOwnership(address)": {
        "params": {
          "newOwner": "The new contract owner"
        }
      }
    }
  },
  "userdoc": {
    "methods": {
      "allowance(address,address)": {
        "notice": "Returns the allowance that the owner has given to a spender."
      },
      "approve(address,uint256)": {
        "notice": "Grants an allowance to the spender."
      },
      "balanceOf(address)": {
        "notice": "Returns the balance of an address."
      },
      "decimals()": {
        "notice": "Returns the number of decimals"
      },
      "decreaseAllowance(address,uint256)": {
        "notice": "Decreases the allowance to the spender."
      },
      "isOwner()": {
        "notice": "Checks if the caller of an transaction is the owner of the contract"
      },
      "issue(address,uint256)": {
        "notice": "Allows an authorized issuer to isue new tokens"
      },
      "name()": {
        "notice": "Returns the name of the token"
      },
      "symbol()": {
        "notice": "Returns the symbol of the token"
      },
      "totalSupply()": {
        "notice": "Returns the total supply"
      },
      "transfer(address,uint256)": {
        "notice": "Transfers balance from the message sender to the recipient"
      },
      "transferFrom(address,address,uint256)": {
        "notice": "Transfers balance from the address that has granted allowance."
      },
      "transferOwnership(address)": {
        "notice": "Allows the current contract owner to transfer ownership to a new address."
      }
    }
  }
}