{
  "contractName": "MerkleRedeem",
  "abi": [
    {
      "inputs": [],
      "stateMutability": "nonpayable",
      "type": "constructor"
    },
    {
      "anonymous": false,
      "inputs": [
        {
          "indexed": false,
          "internalType": "address",
          "name": "_claimant",
          "type": "address"
        },
        {
          "indexed": false,
          "internalType": "address",
          "name": "_token",
          "type": "address"
        },
        {
          "indexed": false,
          "internalType": "uint256",
          "name": "_balance",
          "type": "uint256"
        }
      ],
      "name": "Claimed",
      "type": "event"
    },
    {
      "inputs": [
        {
          "internalType": "uint256",
          "name": "",
          "type": "uint256"
        },
        {
          "internalType": "address",
          "name": "",
          "type": "address"
        },
        {
          "internalType": "address",
          "name": "",
          "type": "address"
        }
      ],
      "name": "claimed",
      "outputs": [
        {
          "internalType": "bool",
          "name": "",
          "type": "bool"
        }
      ],
      "stateMutability": "view",
      "type": "function"
    },
    {
      "inputs": [
        {
          "internalType": "uint256",
          "name": "",
          "type": "uint256"
        }
      ],
      "name": "epochBlockHashes",
      "outputs": [
        {
          "internalType": "bytes32",
          "name": "",
          "type": "bytes32"
        }
      ],
      "stateMutability": "view",
      "type": "function"
    },
    {
      "inputs": [
        {
          "internalType": "uint256",
          "name": "",
          "type": "uint256"
        }
      ],
      "name": "epochMerkleRoots",
      "outputs": [
        {
          "internalType": "bytes32",
          "name": "",
          "type": "bytes32"
        }
      ],
      "stateMutability": "view",
      "type": "function"
    },
    {
      "inputs": [
        {
          "internalType": "uint256",
          "name": "",
          "type": "uint256"
        }
      ],
      "name": "epochTimestamps",
      "outputs": [
        {
          "internalType": "uint256",
          "name": "",
          "type": "uint256"
        }
      ],
      "stateMutability": "view",
      "type": "function"
    },
    {
      "inputs": [],
      "name": "owner",
      "outputs": [
        {
          "internalType": "address",
          "name": "",
          "type": "address"
        }
      ],
      "stateMutability": "view",
      "type": "function"
    },
    {
      "inputs": [],
      "name": "tokenAddress",
      "outputs": [
        {
          "internalType": "address",
          "name": "",
          "type": "address"
        }
      ],
      "stateMutability": "view",
      "type": "function"
    },
    {
      "inputs": [
        {
          "internalType": "uint256",
          "name": "",
          "type": "uint256"
        }
      ],
      "name": "tokens",
      "outputs": [
        {
          "internalType": "address",
          "name": "",
          "type": "address"
        }
      ],
      "stateMutability": "view",
      "type": "function"
    },
    {
      "inputs": [
        {
          "internalType": "address",
          "name": "_token",
          "type": "address"
        }
      ],
      "name": "verify",
      "outputs": [],
      "stateMutability": "nonpayable",
      "type": "function"
    },
    {
      "inputs": [
        {
          "internalType": "address",
          "name": "_token",
          "type": "address"
        }
      ],
      "name": "verified",
      "outputs": [
        {
          "internalType": "bool",
          "name": "",
          "type": "bool"
        }
      ],
      "stateMutability": "nonpayable",
      "type": "function"
    },
    {
      "inputs": [
        {
          "internalType": "address",
          "name": "_token",
          "type": "address"
        },
        {
          "internalType": "uint256",
          "name": "amount",
          "type": "uint256"
        }
      ],
      "name": "issue",
      "outputs": [],
      "stateMutability": "nonpayable",
      "type": "function"
    },
    {
      "inputs": [
        {
          "internalType": "address",
          "name": "user",
          "type": "address"
        },
        {
          "internalType": "uint256",
          "name": "_epoch",
          "type": "uint256"
        }
      ],
      "name": "offsetRequirementMet",
      "outputs": [
        {
          "internalType": "bool",
          "name": "",
          "type": "bool"
        }
      ],
      "stateMutability": "view",
      "type": "function"
    },
    {
      "inputs": [
        {
          "internalType": "uint256",
          "name": "_epoch",
          "type": "uint256"
        },
        {
          "internalType": "address",
          "name": "_token",
          "type": "address"
        },
        {
          "internalType": "uint256",
          "name": "_claimedBalance",
          "type": "uint256"
        },
        {
          "internalType": "bytes32[]",
          "name": "_merkleProof",
          "type": "bytes32[]"
        }
      ],
      "name": "claimEpoch",
      "outputs": [],
      "stateMutability": "nonpayable",
      "type": "function"
    },
    {
      "inputs": [
        {
          "components": [
            {
              "internalType": "uint256",
              "name": "epoch",
              "type": "uint256"
            },
            {
              "internalType": "address",
              "name": "token",
              "type": "address"
            },
            {
              "internalType": "uint256",
              "name": "balance",
              "type": "uint256"
            },
            {
              "internalType": "bytes32[]",
              "name": "merkleProof",
              "type": "bytes32[]"
            }
          ],
          "internalType": "struct MerkleRedeem.Claim[]",
          "name": "claims",
          "type": "tuple[]"
        }
      ],
      "name": "claimEpochs",
      "outputs": [],
      "stateMutability": "nonpayable",
      "type": "function"
    },
    {
      "inputs": [
        {
          "internalType": "address",
          "name": "_liquidityProvider",
          "type": "address"
        },
        {
          "internalType": "address",
          "name": "_token",
          "type": "address"
        },
        {
          "internalType": "uint256",
          "name": "_begin",
          "type": "uint256"
        },
        {
          "internalType": "uint256",
          "name": "_end",
          "type": "uint256"
        }
      ],
      "name": "claimStatus",
      "outputs": [
        {
          "internalType": "bool[]",
          "name": "",
          "type": "bool[]"
        }
      ],
      "stateMutability": "view",
      "type": "function"
    },
    {
      "inputs": [
        {
          "internalType": "uint256",
          "name": "_begin",
          "type": "uint256"
        },
        {
          "internalType": "uint256",
          "name": "_end",
          "type": "uint256"
        }
      ],
      "name": "merkleRoots",
      "outputs": [
        {
          "internalType": "bytes32[]",
          "name": "",
          "type": "bytes32[]"
        }
      ],
      "stateMutability": "view",
      "type": "function"
    },
    {
      "inputs": [
        {
          "internalType": "address",
          "name": "_liquidityProvider",
          "type": "address"
        },
        {
          "internalType": "uint256",
          "name": "_epoch",
          "type": "uint256"
        },
        {
          "internalType": "address",
          "name": "_token",
          "type": "address"
        },
        {
          "internalType": "uint256",
          "name": "_claimedBalance",
          "type": "uint256"
        },
        {
          "internalType": "bytes32[]",
          "name": "_merkleProof",
          "type": "bytes32[]"
        }
      ],
      "name": "verifyClaim",
      "outputs": [
        {
          "internalType": "bool",
          "name": "valid",
          "type": "bool"
        }
      ],
      "stateMutability": "view",
      "type": "function"
    },
    {
      "inputs": [
        {
          "internalType": "address",
          "name": "_liquidityProvider",
          "type": "address"
        },
        {
          "internalType": "bytes32",
          "name": "_epochBlockHash",
          "type": "bytes32"
        }
      ],
      "name": "userEpochOffset",
      "outputs": [
        {
          "internalType": "uint256",
          "name": "offset",
          "type": "uint256"
        }
      ],
      "stateMutability": "pure",
      "type": "function"
    },
    {
      "inputs": [
        {
          "internalType": "uint256",
          "name": "_epoch",
          "type": "uint256"
        },
        {
          "internalType": "uint256",
          "name": "_timestamp",
          "type": "uint256"
        },
        {
          "internalType": "bytes32",
          "name": "_blockHash",
          "type": "bytes32"
        }
      ],
      "name": "finishEpoch",
      "outputs": [],
      "stateMutability": "nonpayable",
      "type": "function"
    },
    {
      "inputs": [
        {
          "internalType": "uint256",
          "name": "_epoch",
          "type": "uint256"
        },
        {
          "internalType": "bytes32",
          "name": "_merkleRoot",
          "type": "bytes32"
        }
      ],
      "name": "seedAllocations",
      "outputs": [],
      "stateMutability": "nonpayable",
      "type": "function"
    }
  ],
  "bytecode": "0x608060405234801561001057600080fd5b5033600160006101000a81548173ffffffffffffffffffffffffffffffffffffffff021916908373ffffffffffffffffffffffffffffffffffffffff160217905550612595806100616000396000f3fe608060405234801561001057600080fd5b50600436106101215760003560e01c806386cc977a116100ad578063b179f7d911610071578063b179f7d91461032a578063e3a326a21461035a578063e78285e91461038a578063eb18eb66146103ba578063f3215b2e146103ea57610121565b806386cc977a146102725780638da5cb5b1461028e5780638e2ecc3f146102ac5780639a76001f146102dc5780639d76ea581461030c57610121565b80634f64b2be116100f45780634f64b2be146101be57806355a6a816146101ee5780636309dc8b1461020a57806363a9c3d71461023a578063867904b41461025657610121565b806309a958ae146101265780630db065f41461014257806339436b00146101725780634476aed4146101a2575b600080fd5b610140600480360361013b9190810190611ade565b61041a565b005b61015c6004803603610157919081019061194b565b6108dd565b6040516101699190612213565b60405180910390f35b61018c60048036036101879190810190611c77565b61097f565b60405161019991906121f1565b60405180910390f35b6101bc60048036036101b79190810190611c3b565b610a14565b005b6101d860048036036101d39190810190611b48565b610b82565b6040516101e59190612154565b60405180910390f35b61020860048036036102039190810190611bc0565b610bbe565b005b610224600480360361021f9190810190611b48565b610e4f565b604051610231919061222e565b60405180910390f35b610254600480360361024f919081019061194b565b610e67565b005b610270600480360361026b9190810190611a13565b610fe4565b005b61028c60048036036102879190810190611cb3565b61114f565b005b610296611226565b6040516102a39190612154565b60405180910390f35b6102c660048036036102c19190810190611b48565b61124c565b6040516102d39190612329565b60405180910390f35b6102f660048036036102f191908101906119d7565b611264565b6040516103039190612329565b60405180910390f35b6103146112a4565b6040516103219190612154565b60405180910390f35b610344600480360361033f9190810190611b48565b6112c9565b604051610351919061222e565b60405180910390f35b610374600480360361036f9190810190611a4f565b6112e1565b6040516103819190612213565b60405180910390f35b6103a4600480360361039f9190810190611974565b61133b565b6040516103b191906121cf565b60405180910390f35b6103d460048036036103cf9190810190611b71565b61145f565b6040516103e19190612213565b60405180910390f35b61040460048036036103ff9190810190611a13565b61149b565b6040516104119190612213565b60405180910390f35b60003390506104276116b3565b606060008090505b84518110156107ef5784818151811061044457fe5b6020026020010151925060025483600001511115610497576040517f08c379a000000000000000000000000000000000000000000000000000000000815260040161048e906122c9565b60405180910390fd5b600060046000856000015181526020019081526020016000205414156104bc57600080fd5b6000801b60056000856000015181526020019081526020016000205414156104e357600080fd5b6002548360000151141561053d576104fd8460025461149b565b61053c576040517f08c379a000000000000000000000000000000000000000000000000000000000815260040161053390612289565b60405180910390fd5b5b600660008460000151815260200190815260200160002060008573ffffffffffffffffffffffffffffffffffffffff1673ffffffffffffffffffffffffffffffffffffffff1681526020019081526020016000206000846020015173ffffffffffffffffffffffffffffffffffffffff1673ffffffffffffffffffffffffffffffffffffffff16815260200190815260200160002060009054906101000a900460ff16156105ea57600080fd5b6106078484600001518560200151866040015187606001516112e1565b610646576040517f08c379a000000000000000000000000000000000000000000000000000000000815260040161063d90612249565b60405180910390fd5b600060086000856020015173ffffffffffffffffffffffffffffffffffffffff1673ffffffffffffffffffffffffffffffffffffffff1681526020019081526020016000205414156106df578260200151828351815181106106a457fe5b602002602001019073ffffffffffffffffffffffffffffffffffffffff16908173ffffffffffffffffffffffffffffffffffffffff16815250505b826040015160086000856020015173ffffffffffffffffffffffffffffffffffffffff1673ffffffffffffffffffffffffffffffffffffffff168152602001908152602001600020600082825401925050819055506001600660008560000151815260200190815260200160002060008673ffffffffffffffffffffffffffffffffffffffff1673ffffffffffffffffffffffffffffffffffffffff1681526020019081526020016000206000856020015173ffffffffffffffffffffffffffffffffffffffff1673ffffffffffffffffffffffffffffffffffffffff16815260200190815260200160002060006101000a81548160ff021916908315150217905550808060010191505061042f565b5060008090505b81518110156108d25761086f8483838151811061080f57fe5b60200260200101516008600086868151811061082757fe5b602002602001015173ffffffffffffffffffffffffffffffffffffffff1673ffffffffffffffffffffffffffffffffffffffff168152602001908152602001600020546114f0565b6008600083838151811061087f57fe5b602002602001015173ffffffffffffffffffffffffffffffffffffffff1673ffffffffffffffffffffffffffffffffffffffff1681526020019081526020016000206000905580806001019150506107f6565b506060905050505050565b600080600090505b60078054905081101561097457600781815481106108ff57fe5b9060005260206000200160009054906101000a900473ffffffffffffffffffffffffffffffffffffffff1673ffffffffffffffffffffffffffffffffffffffff168373ffffffffffffffffffffffffffffffffffffffff16141561096757600191505061097a565b80806001019150506108e5565b50600090505b919050565b6060600083836001010390506060816040519080825280602002602001820160405280156109bc5781602001602082028038833980820191505090505b50905060008090505b82811015610a0857600360008288018152602001908152602001600020548282815181106109ef57fe5b60200260200101818152505080806001019150506109c5565b50809250505092915050565b81600060046000838152602001908152602001600020541415610a3657600080fd5b6000801b60056000838152602001908152602001600020541415610a5957600080fd5b826000801b600360008381526020019081526020016000205414610a7c57600080fd5b600160009054906101000a900473ffffffffffffffffffffffffffffffffffffffff1673ffffffffffffffffffffffffffffffffffffffff163373ffffffffffffffffffffffffffffffffffffffff1614610b0c576040517f08c379a0000000000000000000000000000000000000000000000000000000008152600401610b03906122a9565b60405180910390fd5b6000801b600360008681526020019081526020016000205414610b64576040517f08c379a0000000000000000000000000000000000000000000000000000000008152600401610b5b906122e9565b60405180910390fd5b82600360008681526020019081526020016000208190555050505050565b60078181548110610b8f57fe5b906000526020600020016000915054906101000a900473ffffffffffffffffffffffffffffffffffffffff1681565b83600254811115610c04576040517f08c379a0000000000000000000000000000000000000000000000000000000008152600401610bfb906122c9565b60405180910390fd5b84600060046000838152602001908152602001600020541415610c2657600080fd5b6000801b60056000838152602001908152602001600020541415610c4957600080fd5b6000339050600254871415610ca457610c648160025461149b565b610ca3576040517f08c379a0000000000000000000000000000000000000000000000000000000008152600401610c9a90612289565b60405180910390fd5b5b6006600088815260200190815260200160002060008273ffffffffffffffffffffffffffffffffffffffff1673ffffffffffffffffffffffffffffffffffffffff16815260200190815260200160002060008773ffffffffffffffffffffffffffffffffffffffff1673ffffffffffffffffffffffffffffffffffffffff16815260200190815260200160002060009054906101000a900460ff1615610d4957600080fd5b610d5681888888886112e1565b610d95576040517f08c379a0000000000000000000000000000000000000000000000000000000008152600401610d8c90612249565b60405180910390fd5b60016006600089815260200190815260200160002060008373ffffffffffffffffffffffffffffffffffffffff1673ffffffffffffffffffffffffffffffffffffffff16815260200190815260200160002060008873ffffffffffffffffffffffffffffffffffffffff1673ffffffffffffffffffffffffffffffffffffffff16815260200190815260200160002060006101000a81548160ff021916908315150217905550610e468187876114f0565b50505050505050565b60056020528060005260406000206000915090505481565b600160009054906101000a900473ffffffffffffffffffffffffffffffffffffffff1673ffffffffffffffffffffffffffffffffffffffff163373ffffffffffffffffffffffffffffffffffffffff1614610ef7576040517f08c379a0000000000000000000000000000000000000000000000000000000008152600401610eee906122a9565b60405180910390fd5b8060001515610f05826108dd565b151514610f1157600080fd5b8173ffffffffffffffffffffffffffffffffffffffff16633336419760016040518263ffffffff1660e01b8152600401610f4b9190612213565b600060405180830381600087803b158015610f6557600080fd5b505af1158015610f79573d6000803e3d6000fd5b505050506007829080600181540180825580915050600190039060005260206000200160009091909190916101000a81548173ffffffffffffffffffffffffffffffffffffffff021916908373ffffffffffffffffffffffffffffffffffffffff1602179055505050565b600160009054906101000a900473ffffffffffffffffffffffffffffffffffffffff1673ffffffffffffffffffffffffffffffffffffffff163373ffffffffffffffffffffffffffffffffffffffff1614611074576040517f08c379a000000000000000000000000000000000000000000000000000000000815260040161106b906122a9565b60405180910390fd5b6000811115611110578173ffffffffffffffffffffffffffffffffffffffff1663867904b430836040518363ffffffff1660e01b81526004016110b89291906121a6565b602060405180830381600087803b1580156110d257600080fd5b505af11580156110e6573d6000803e3d6000fd5b505050506040513d601f19601f8201168201806040525061110a9190810190611b1f565b5061114b565b6040517f08c379a000000000000000000000000000000000000000000000000000000000815260040161114290612309565b60405180910390fd5b5050565b600160009054906101000a900473ffffffffffffffffffffffffffffffffffffffff1673ffffffffffffffffffffffffffffffffffffffff163373ffffffffffffffffffffffffffffffffffffffff16146111df576040517f08c379a00000000000000000000000000000000000000000000000000000000081526004016111d6906122a9565b60405180910390fd5b81600460008581526020019081526020016000208190555080600560008581526020019081526020016000208190555060025483111561122157826002819055505b505050565b600160009054906101000a900473ffffffffffffffffffffffffffffffffffffffff1681565b60046020528060005260406000206000915090505481565b600080838360405160200161127a9291906120fc565b60405160208183030381529060405280519060200120905062015180810691508191505092915050565b6000809054906101000a900473ffffffffffffffffffffffffffffffffffffffff1681565b60036020528060005260406000206000915090505481565b6000808685856040516020016112f9939291906120bf565b60405160208183030381529060405280519060200120905061132f83600360008981526020019081526020016000205483611607565b91505095945050505050565b6060600083836001010390506060816040519080825280602002602001820160405280156113785781602001602082028038833980820191505090505b50905060008090505b828110156114515760066000828801815260200190815260200160002060008973ffffffffffffffffffffffffffffffffffffffff1673ffffffffffffffffffffffffffffffffffffffff16815260200190815260200160002060008873ffffffffffffffffffffffffffffffffffffffff1673ffffffffffffffffffffffffffffffffffffffff16815260200190815260200160002060009054906101000a900460ff1682828151811061143257fe5b6020026020010190151590811515815250508080600101915050611381565b508092505050949350505050565b6006602052826000526040600020602052816000526040600020602052806000526040600020600092509250509054906101000a900460ff1681565b6000806005600084815260200190815260200160002054905060006004600085815260200190815260200160002054905060006114d88684611264565b90506000818301905042811094505050505092915050565b60008111156115c7578173ffffffffffffffffffffffffffffffffffffffff1663a9059cbb84836040518363ffffffff1660e01b81526004016115349291906121a6565b602060405180830381600087803b15801561154e57600080fd5b505af1158015611562573d6000803e3d6000fd5b505050506040513d601f19601f820116820180604052506115869190810190611b1f565b507ff7a40077ff7a04c7e61f6f26fb13774259ddf1b6bce9ecf26a8276cdd39926838383836040516115ba9392919061216f565b60405180910390a1611602565b6040517f08c379a00000000000000000000000000000000000000000000000000000000081526004016115f990612269565b60405180910390fd5b505050565b60008082905060008090505b85518110156116a557600086828151811061162a57fe5b6020026020010151905080831161166b57828160405160200161164e929190612128565b604051602081830303815290604052805190602001209250611697565b808360405160200161167e929190612128565b6040516020818303038152906040528051906020012092505b508080600101915050611613565b508381149150509392505050565b604051806080016040528060008152602001600073ffffffffffffffffffffffffffffffffffffffff16815260200160008152602001606081525090565b60008135905061170081612503565b92915050565b600082601f83011261171757600080fd5b813561172a61172582612371565b612344565b9150818183526020840193506020810190508385602084028201111561174f57600080fd5b60005b8381101561177f57816117658882611895565b845260208401935060208301925050600181019050611752565b5050505092915050565b600082601f83011261179a57600080fd5b81356117ad6117a882612399565b612344565b915081818352602084019350602081019050838560208402820111156117d257600080fd5b60005b8381101561180257816117e88882611895565b8452602084019350602083019250506001810190506117d5565b5050505092915050565b600082601f83011261181d57600080fd5b813561183061182b826123c1565b612344565b9150818183526020840193506020810190508360005b83811015611876578135860161185c88826118aa565b845260208401935060208301925050600181019050611846565b5050505092915050565b60008151905061188f8161251a565b92915050565b6000813590506118a481612531565b92915050565b6000608082840312156118bc57600080fd5b6118c66080612344565b905060006118d684828501611936565b60008301525060206118ea848285016116f1565b60208301525060406118fe84828501611936565b604083015250606082013567ffffffffffffffff81111561191e57600080fd5b61192a84828501611706565b60608301525092915050565b60008135905061194581612548565b92915050565b60006020828403121561195d57600080fd5b600061196b848285016116f1565b91505092915050565b6000806000806080858703121561198a57600080fd5b6000611998878288016116f1565b94505060206119a9878288016116f1565b93505060406119ba87828801611936565b92505060606119cb87828801611936565b91505092959194509250565b600080604083850312156119ea57600080fd5b60006119f8858286016116f1565b9250506020611a0985828601611895565b9150509250929050565b60008060408385031215611a2657600080fd5b6000611a34858286016116f1565b9250506020611a4585828601611936565b9150509250929050565b600080600080600060a08688031215611a6757600080fd5b6000611a75888289016116f1565b9550506020611a8688828901611936565b9450506040611a97888289016116f1565b9350506060611aa888828901611936565b925050608086013567ffffffffffffffff811115611ac557600080fd5b611ad188828901611789565b9150509295509295909350565b600060208284031215611af057600080fd5b600082013567ffffffffffffffff811115611b0a57600080fd5b611b168482850161180c565b91505092915050565b600060208284031215611b3157600080fd5b6000611b3f84828501611880565b91505092915050565b600060208284031215611b5a57600080fd5b6000611b6884828501611936565b91505092915050565b600080600060608486031215611b8657600080fd5b6000611b9486828701611936565b9350506020611ba5868287016116f1565b9250506040611bb6868287016116f1565b9150509250925092565b60008060008060808587031215611bd657600080fd5b6000611be487828801611936565b9450506020611bf5878288016116f1565b9350506040611c0687828801611936565b925050606085013567ffffffffffffffff811115611c2357600080fd5b611c2f87828801611789565b91505092959194509250565b60008060408385031215611c4e57600080fd5b6000611c5c85828601611936565b9250506020611c6d85828601611895565b9150509250929050565b60008060408385031215611c8a57600080fd5b6000611c9885828601611936565b9250506020611ca985828601611936565b9150509250929050565b600080600060608486031215611cc857600080fd5b6000611cd686828701611936565b9350506020611ce786828701611936565b9250506040611cf886828701611895565b9150509250925092565b6000611d0e8383611e14565b60208301905092915050565b6000611d268383611e32565b60208301905092915050565b611d3b8161246c565b82525050565b611d52611d4d8261246c565b6124be565b82525050565b6000611d6382612409565b611d6d8185612439565b9350611d78836123e9565b8060005b83811015611da9578151611d908882611d02565b9750611d9b8361241f565b925050600181019050611d7c565b5085935050505092915050565b6000611dc182612414565b611dcb818561244a565b9350611dd6836123f9565b8060005b83811015611e07578151611dee8882611d1a565b9750611df98361242c565b925050600181019050611dda565b5085935050505092915050565b611e1d8161247e565b82525050565b611e2c8161247e565b82525050565b611e3b8161248a565b82525050565b611e4a8161248a565b82525050565b611e61611e5c8261248a565b6124d0565b82525050565b6000611e7460168361245b565b91507f496e636f7272656374206d65726b6c652070726f6f66000000000000000000006000830152602082019050919050565b6000611eb460398361245b565b91507f4e6f2062616c616e636520776f756c64206265207472616e736665726564202d60008301527f206e6f7420676f6e6e6120776173746520796f757220676173000000000000006020830152604082019050919050565b6000611f1a602e8361245b565b91507f497420697320746f6f206561726c7920746f20636c61696d20666f722074686560008301527f2063757272656e742065706f63680000000000000000000000000000000000006020830152604082019050919050565b6000611f80601a8361245b565b91507f4d7573742062652074686520636f6e7472616374206f776e65720000000000006000830152602082019050919050565b6000611fc0601d8361245b565b91507f45706f63682063616e6e6f7420626520696e20746865206675747572650000006000830152602082019050919050565b6000612000601a8361245b565b91507f63616e6e6f742072657772697465206d65726b6c6520726f6f740000000000006000830152602082019050919050565b600061204060348361245b565b91507f4e6f20616d6f756e7420776f756c64206265206d696e746564202d206e6f742060008301527f676f6e6e6120776173746520796f7572206761730000000000000000000000006020830152604082019050919050565b6120a2816124b4565b82525050565b6120b96120b4826124b4565b6124ec565b82525050565b60006120cb8286611d41565b6014820191506120db8285611d41565b6014820191506120eb82846120a8565b602082019150819050949350505050565b60006121088285611d41565b6014820191506121188284611e50565b6020820191508190509392505050565b60006121348285611e50565b6020820191506121448284611e50565b6020820191508190509392505050565b60006020820190506121696000830184611d32565b92915050565b60006060820190506121846000830186611d32565b6121916020830185611d32565b61219e6040830184612099565b949350505050565b60006040820190506121bb6000830185611d32565b6121c86020830184612099565b9392505050565b600060208201905081810360008301526121e98184611d58565b905092915050565b6000602082019050818103600083015261220b8184611db6565b905092915050565b60006020820190506122286000830184611e23565b92915050565b60006020820190506122436000830184611e41565b92915050565b6000602082019050818103600083015261226281611e67565b9050919050565b6000602082019050818103600083015261228281611ea7565b9050919050565b600060208201905081810360008301526122a281611f0d565b9050919050565b600060208201905081810360008301526122c281611f73565b9050919050565b600060208201905081810360008301526122e281611fb3565b9050919050565b6000602082019050818103600083015261230281611ff3565b9050919050565b6000602082019050818103600083015261232281612033565b9050919050565b600060208201905061233e6000830184612099565b92915050565b6000604051905081810181811067ffffffffffffffff8211171561236757600080fd5b8060405250919050565b600067ffffffffffffffff82111561238857600080fd5b602082029050602081019050919050565b600067ffffffffffffffff8211156123b057600080fd5b602082029050602081019050919050565b600067ffffffffffffffff8211156123d857600080fd5b602082029050602081019050919050565b6000819050602082019050919050565b6000819050602082019050919050565b600081519050919050565b600081519050919050565b6000602082019050919050565b6000602082019050919050565b600082825260208201905092915050565b600082825260208201905092915050565b600082825260208201905092915050565b600061247782612494565b9050919050565b60008115159050919050565b6000819050919050565b600073ffffffffffffffffffffffffffffffffffffffff82169050919050565b6000819050919050565b60006124c9826124da565b9050919050565b6000819050919050565b60006124e5826124f6565b9050919050565b6000819050919050565b60008160601b9050919050565b61250c8161246c565b811461251757600080fd5b50565b6125238161247e565b811461252e57600080fd5b50565b61253a8161248a565b811461254557600080fd5b50565b612551816124b4565b811461255c57600080fd5b5056fea264697066735822122097bcad3789981e1487af2ee5705d91a4deef1cd96f979ded8a912244a521e52564736f6c63430006000033",
  "source": "pragma solidity 0.6.0;\npragma experimental ABIEncoderV2;\n\nimport \"@openzeppelin/contracts/cryptography/MerkleProof.sol\";\nimport \"./IERC20.sol\";\nimport \"./ISwapXToken.sol\";\n\ncontract MerkleRedeem {\n    address public tokenAddress;\n    address public owner;\n\n    event Claimed(address _claimant,address _token, uint256 _balance);\n\n    // Recorded epochs\n    uint256 latestEpoch;\n    mapping(uint256 => bytes32) public epochMerkleRoots;\n    mapping(uint256 => uint256) public epochTimestamps;\n    mapping(uint256 => bytes32) public epochBlockHashes;\n    mapping(uint256 => mapping(address => mapping(address => bool))) public claimed;\n\n    address[] public tokens;\n\n    constructor() public {\n        owner = msg.sender;\n    }\n\n    modifier onlyOwner() {\n        require(msg.sender == owner, \"Must be the contract owner\");\n        _;\n    }\n\n    modifier requireEpochInPast(uint256 epoch) {\n        require(epoch <= latestEpoch, \"Epoch cannot be in the future\");\n        _;\n    }\n\n    modifier requireEpochRecorded(uint256 _epoch) {\n        require(epochTimestamps[_epoch] != 0);\n        require(epochBlockHashes[_epoch] != 0);\n        _;\n    }\n\n    modifier requireMerkleRootUnset(uint256 _epoch) {\n        require(epochMerkleRoots[_epoch] == bytes32(0));\n        _;\n    }\n\n    modifier requireUnverified(address _token) {\n        require(verified(_token) == false);\n        _;\n    }\n\n\n\n    function verify(address _token) external onlyOwner requireUnverified(_token) {\n        ISwapXToken(_token).verify(true);\n        tokens.push(_token);\n    }\n\n    function verified(address _token) public returns (bool) {\n        for (uint256 i = 0; i < tokens.length; i++) {\n            if (_token == tokens[i]) {\n                return true;\n            }\n        }\n        return false;\n    }\n\n    function issue(address _token ,uint256 amount) external onlyOwner {\n        if (amount > 0) {\n            ISwapXToken(_token).issue(address(this), amount);\n        } else {\n            revert(\"No amount would be minted - not gonna waste your gas\");\n        }\n    }\n\n    function disburse(address _liquidityProvider, address _token,uint256 _balance) private {\n        if (_balance > 0) {\n            IERC20(_token).transfer(_liquidityProvider, _balance);\n            emit Claimed(_liquidityProvider, _token,_balance);\n        } else {\n            revert(\"No balance would be transfered - not gonna waste your gas\");\n        }\n    }\n\n    function offsetRequirementMet(address user, uint256 _epoch)\n        public\n        view\n        returns (bool)\n    {\n        bytes32 blockHash = epochBlockHashes[_epoch];\n        uint256 timestamp = epochTimestamps[_epoch];\n        uint256 offsetSeconds = userEpochOffset(user, blockHash);\n\n        uint256 earliestClaimableTimestamp = timestamp + offsetSeconds;\n        return earliestClaimableTimestamp < block.timestamp;\n    }\n\n    function claimEpoch(\n        uint256 _epoch,\n        address _token,\n        uint256 _claimedBalance,\n        bytes32[] memory _merkleProof\n    ) public requireEpochInPast(_epoch) requireEpochRecorded(_epoch) {\n        address _liquidityProvider = msg.sender;\n        // if trying to claim for the current epoch\n        if (_epoch == latestEpoch) {\n            require(\n                offsetRequirementMet(_liquidityProvider, latestEpoch),\n                \"It is too early to claim for the current epoch\"\n            );\n        }\n\n        require(!claimed[_epoch][_liquidityProvider][_token]);\n        require(\n            verifyClaim(\n                _liquidityProvider,\n                _epoch,\n                _token,\n                _claimedBalance,\n                _merkleProof\n            ),\n            \"Incorrect merkle proof\"\n        );\n\n        claimed[_epoch][_liquidityProvider][_token] = true;\n        disburse(_liquidityProvider, _token,_claimedBalance);\n    }\n\n    struct Claim {\n        uint256 epoch;\n        address token;\n        uint256 balance;\n        bytes32[] merkleProof;\n    }\n\n    mapping(address => uint256) tokenTotalBalances;  //temp mapping\n  \n    function claimEpochs(Claim[] memory claims)\n        public\n    {\n        address _liquidityProvider = msg.sender;\n        Claim memory claim;\n        address[] memory _tokens;\n        for (uint256 i = 0; i < claims.length; i++) {\n            claim = claims[i];\n            require(\n                claim.epoch <= latestEpoch,\n                \"Epoch cannot be in the future\"\n            );\n            require(epochTimestamps[claim.epoch] != 0);\n            require(epochBlockHashes[claim.epoch] != 0);\n\n            // if trying to claim for the current epoch\n            if (claim.epoch == latestEpoch) {\n                require(\n                    offsetRequirementMet(_liquidityProvider, latestEpoch),\n                    \"It is too early to claim for the current epoch\"\n                );\n            }\n\n            require(!claimed[claim.epoch][_liquidityProvider][claim.token]);\n            require(\n                verifyClaim(\n                    _liquidityProvider,\n                    claim.epoch,\n                    claim.token,\n                    claim.balance,\n                    claim.merkleProof\n                ),\n                \"Incorrect merkle proof\"\n            );\n\n            if (tokenTotalBalances[claim.token] == uint256(0)) {\n                _tokens[_tokens.length]=claim.token;\n            }\n\n            tokenTotalBalances[claim.token] += claim.balance;\n\n            claimed[claim.epoch][_liquidityProvider][claim.token] = true;\n        }\n\n        for (uint256 i = 0; i < _tokens.length; i++) {\n            disburse(\n                _liquidityProvider,\n                _tokens[i],\n                tokenTotalBalances[_tokens[i]]\n            );\n\n            delete tokenTotalBalances[_tokens[i]];\n        }\n        delete _tokens;\n    }\n\n    function claimStatus(\n        address _liquidityProvider,\n        address _token,\n        uint256 _begin,\n        uint256 _end\n    ) public view returns (bool[] memory) {\n        uint256 size = 1 + _end - _begin;\n        bool[] memory arr = new bool[](size);\n        for (uint256 i = 0; i < size; i++) {\n            arr[i] = claimed[_begin + i][_liquidityProvider][_token];\n        }\n        return arr;\n    }\n\n    function merkleRoots(uint256 _begin, uint256 _end)\n        public\n        view\n        returns (bytes32[] memory)\n    {\n        uint256 size = 1 + _end - _begin;\n        bytes32[] memory arr = new bytes32[](size);\n        for (uint256 i = 0; i < size; i++) {\n            arr[i] = epochMerkleRoots[_begin + i];\n        }\n        return arr;\n    }\n\n    function verifyClaim(\n        address _liquidityProvider,\n        uint256 _epoch,\n        address _token,\n        uint256 _claimedBalance,\n        bytes32[] memory _merkleProof\n    ) public view returns (bool valid) {\n        bytes32 leaf = keccak256(\n            abi.encodePacked(_liquidityProvider, _token,_claimedBalance)\n        );\n        return MerkleProof.verify(_merkleProof, epochMerkleRoots[_epoch], leaf);\n    }\n\n    function userEpochOffset(\n        address _liquidityProvider,\n        bytes32 _epochBlockHash\n    ) public pure returns (uint256 offset) {\n        bytes32 hash = keccak256(\n            abi.encodePacked(_liquidityProvider, _epochBlockHash)\n        );\n        assembly {\n            offset := mod(\n                hash,\n                86400 // seconds in a epoch\n            )\n        }\n        return offset;\n    }\n\n    function finishEpoch(\n        uint256 _epoch,\n        uint256 _timestamp,\n        bytes32 _blockHash\n    ) public onlyOwner {\n        epochTimestamps[_epoch] = _timestamp;\n        epochBlockHashes[_epoch] = _blockHash;\n        if (_epoch > latestEpoch) {\n            // just in case we get these out of order\n            latestEpoch = _epoch;\n        }\n    }\n\n    function seedAllocations(uint256 _epoch, bytes32 _merkleRoot)\n        external\n        requireEpochRecorded(_epoch)\n        requireMerkleRootUnset(_epoch)\n        onlyOwner\n    {\n        require(\n            epochMerkleRoots[_epoch] == bytes32(0),\n            \"cannot rewrite merkle root\"\n        );\n        epochMerkleRoots[_epoch] = _merkleRoot;\n    }\n}\n",
  "sourcePath": "/Users/lisheng/Downloads/defi/balancer/erc20-redeemable-master/merkle/contracts/MerkleRedeem.sol",
  "compiler": {
    "name": "solc",
    "version": "0.6.0+commit.26b70077.Emscripten.clang"
  },
  "schemaVersion": "3.2.3",
  "updatedAt": "2020-08-28T08:18:38.123Z",
  "devdoc": {
    "methods": {}
  },
  "userdoc": {
    "methods": {}
  }
}