{
  "contractName": "MerkleRedeem",
  "abi": [
    {
      "inputs": [],
      "stateMutability": "nonpayable",
      "type": "constructor"
    },
    {
      "anonymous": false,
      "inputs": [
        {
          "indexed": false,
          "internalType": "address",
          "name": "_claimant",
          "type": "address"
        },
        {
          "indexed": false,
          "internalType": "address",
          "name": "_token",
          "type": "address"
        },
        {
          "indexed": false,
          "internalType": "uint256",
          "name": "_balance",
          "type": "uint256"
        }
      ],
      "name": "Claimed",
      "type": "event"
    },
    {
      "anonymous": false,
      "inputs": [
        {
          "indexed": false,
          "internalType": "address",
          "name": "_token",
          "type": "address"
        }
      ],
      "name": "VerifiedToken",
      "type": "event"
    },
    {
      "inputs": [
        {
          "internalType": "uint256",
          "name": "",
          "type": "uint256"
        }
      ],
      "name": "_verifiedTokens",
      "outputs": [
        {
          "internalType": "address",
          "name": "",
          "type": "address"
        }
      ],
      "stateMutability": "view",
      "type": "function"
    },
    {
      "inputs": [
        {
          "internalType": "uint256",
          "name": "",
          "type": "uint256"
        },
        {
          "internalType": "address",
          "name": "",
          "type": "address"
        },
        {
          "internalType": "address",
          "name": "",
          "type": "address"
        }
      ],
      "name": "claimed",
      "outputs": [
        {
          "internalType": "bool",
          "name": "",
          "type": "bool"
        }
      ],
      "stateMutability": "view",
      "type": "function"
    },
    {
      "inputs": [
        {
          "internalType": "uint256",
          "name": "",
          "type": "uint256"
        }
      ],
      "name": "epochBlockHashes",
      "outputs": [
        {
          "internalType": "bytes32",
          "name": "",
          "type": "bytes32"
        }
      ],
      "stateMutability": "view",
      "type": "function"
    },
    {
      "inputs": [
        {
          "internalType": "uint256",
          "name": "",
          "type": "uint256"
        }
      ],
      "name": "epochMerkleRoots",
      "outputs": [
        {
          "internalType": "bytes32",
          "name": "",
          "type": "bytes32"
        }
      ],
      "stateMutability": "view",
      "type": "function"
    },
    {
      "inputs": [
        {
          "internalType": "uint256",
          "name": "",
          "type": "uint256"
        }
      ],
      "name": "epochTimestamps",
      "outputs": [
        {
          "internalType": "uint256",
          "name": "",
          "type": "uint256"
        }
      ],
      "stateMutability": "view",
      "type": "function"
    },
    {
      "inputs": [],
      "name": "owner",
      "outputs": [
        {
          "internalType": "address",
          "name": "",
          "type": "address"
        }
      ],
      "stateMutability": "view",
      "type": "function"
    },
    {
      "inputs": [],
      "name": "tokenAddress",
      "outputs": [
        {
          "internalType": "address",
          "name": "",
          "type": "address"
        }
      ],
      "stateMutability": "view",
      "type": "function"
    },
    {
      "inputs": [
        {
          "internalType": "address",
          "name": "_token",
          "type": "address"
        }
      ],
      "name": "verify",
      "outputs": [],
      "stateMutability": "nonpayable",
      "type": "function"
    },
    {
      "inputs": [
        {
          "internalType": "address",
          "name": "_token",
          "type": "address"
        }
      ],
      "name": "verified",
      "outputs": [
        {
          "internalType": "bool",
          "name": "",
          "type": "bool"
        }
      ],
      "stateMutability": "view",
      "type": "function"
    },
    {
      "inputs": [],
      "name": "verifiedTokens",
      "outputs": [
        {
          "internalType": "address[]",
          "name": "",
          "type": "address[]"
        }
      ],
      "stateMutability": "view",
      "type": "function"
    },
    {
      "inputs": [
        {
          "internalType": "address",
          "name": "_token",
          "type": "address"
        },
        {
          "internalType": "uint256",
          "name": "amount",
          "type": "uint256"
        }
      ],
      "name": "issue",
      "outputs": [],
      "stateMutability": "nonpayable",
      "type": "function"
    },
    {
      "inputs": [
        {
          "internalType": "address",
          "name": "user",
          "type": "address"
        },
        {
          "internalType": "uint256",
          "name": "_epoch",
          "type": "uint256"
        }
      ],
      "name": "offsetRequirementMet",
      "outputs": [
        {
          "internalType": "bool",
          "name": "",
          "type": "bool"
        }
      ],
      "stateMutability": "view",
      "type": "function"
    },
    {
      "inputs": [
        {
          "internalType": "address",
          "name": "_liquidityProvider",
          "type": "address"
        },
        {
          "internalType": "uint256",
          "name": "_epoch",
          "type": "uint256"
        },
        {
          "internalType": "address",
          "name": "_token",
          "type": "address"
        },
        {
          "internalType": "uint256",
          "name": "_claimedBalance",
          "type": "uint256"
        },
        {
          "internalType": "bytes32[]",
          "name": "_merkleProof",
          "type": "bytes32[]"
        }
      ],
      "name": "claimEpoch",
      "outputs": [],
      "stateMutability": "nonpayable",
      "type": "function"
    },
    {
      "inputs": [
        {
          "internalType": "address",
          "name": "_liquidityProvider",
          "type": "address"
        },
        {
          "components": [
            {
              "internalType": "uint256",
              "name": "epoch",
              "type": "uint256"
            },
            {
              "internalType": "address",
              "name": "token",
              "type": "address"
            },
            {
              "internalType": "uint256",
              "name": "balance",
              "type": "uint256"
            },
            {
              "internalType": "bytes32[]",
              "name": "merkleProof",
              "type": "bytes32[]"
            }
          ],
          "internalType": "struct MerkleRedeem.Claim[]",
          "name": "claims",
          "type": "tuple[]"
        }
      ],
      "name": "claimEpochs",
      "outputs": [],
      "stateMutability": "nonpayable",
      "type": "function"
    },
    {
      "inputs": [
        {
          "internalType": "address",
          "name": "_liquidityProvider",
          "type": "address"
        },
        {
          "internalType": "address",
          "name": "_token",
          "type": "address"
        },
        {
          "internalType": "uint256",
          "name": "_begin",
          "type": "uint256"
        },
        {
          "internalType": "uint256",
          "name": "_end",
          "type": "uint256"
        }
      ],
      "name": "claimStatus",
      "outputs": [
        {
          "internalType": "bool[]",
          "name": "",
          "type": "bool[]"
        }
      ],
      "stateMutability": "view",
      "type": "function"
    },
    {
      "inputs": [
        {
          "internalType": "uint256",
          "name": "_begin",
          "type": "uint256"
        },
        {
          "internalType": "uint256",
          "name": "_end",
          "type": "uint256"
        }
      ],
      "name": "merkleRoots",
      "outputs": [
        {
          "internalType": "bytes32[]",
          "name": "",
          "type": "bytes32[]"
        }
      ],
      "stateMutability": "view",
      "type": "function"
    },
    {
      "inputs": [
        {
          "internalType": "address",
          "name": "_liquidityProvider",
          "type": "address"
        },
        {
          "internalType": "uint256",
          "name": "_epoch",
          "type": "uint256"
        },
        {
          "internalType": "address",
          "name": "_token",
          "type": "address"
        },
        {
          "internalType": "uint256",
          "name": "_claimedBalance",
          "type": "uint256"
        },
        {
          "internalType": "bytes32[]",
          "name": "_merkleProof",
          "type": "bytes32[]"
        }
      ],
      "name": "verifyClaim",
      "outputs": [
        {
          "internalType": "bool",
          "name": "valid",
          "type": "bool"
        }
      ],
      "stateMutability": "view",
      "type": "function"
    },
    {
      "inputs": [
        {
          "internalType": "address",
          "name": "_liquidityProvider",
          "type": "address"
        },
        {
          "internalType": "bytes32",
          "name": "_epochBlockHash",
          "type": "bytes32"
        }
      ],
      "name": "userEpochOffset",
      "outputs": [
        {
          "internalType": "uint256",
          "name": "offset",
          "type": "uint256"
        }
      ],
      "stateMutability": "pure",
      "type": "function"
    },
    {
      "inputs": [
        {
          "internalType": "uint256",
          "name": "_epoch",
          "type": "uint256"
        },
        {
          "internalType": "uint256",
          "name": "_timestamp",
          "type": "uint256"
        },
        {
          "internalType": "bytes32",
          "name": "_blockHash",
          "type": "bytes32"
        }
      ],
      "name": "finishEpoch",
      "outputs": [],
      "stateMutability": "nonpayable",
      "type": "function"
    },
    {
      "inputs": [
        {
          "internalType": "uint256",
          "name": "_epoch",
          "type": "uint256"
        },
        {
          "internalType": "bytes32",
          "name": "_merkleRoot",
          "type": "bytes32"
        }
      ],
      "name": "seedAllocations",
      "outputs": [],
      "stateMutability": "nonpayable",
      "type": "function"
    }
  ],
  "bytecode": "0x608060405234801561001057600080fd5b5033600160006101000a81548173ffffffffffffffffffffffffffffffffffffffff021916908373ffffffffffffffffffffffffffffffffffffffff16021790555061279b806100616000396000f3fe608060405234801561001057600080fd5b506004361061012c5760003560e01c80639a76001f116100ad578063c8c89cf211610071578063c8c89cf214610367578063e3a326a214610383578063e78285e9146103b3578063eb18eb66146103e3578063f3215b2e146104135761012c565b80639a76001f146102af5780639d76ea58146102df5780639e51782b146102fd578063b179f7d91461031b578063c44faa3f1461034b5761012c565b806363a9c3d7116100f457806363a9c3d71461020d578063867904b41461022957806386cc977a146102455780638da5cb5b146102615780638e2ecc3f1461027f5761012c565b80630db065f41461013157806339436b00146101615780634476aed4146101915780634a3efb70146101ad5780636309dc8b146101dd575b600080fd5b61014b60048036036101469190810190611ad9565b610443565b60405161015891906123e0565b60405180910390f35b61017b60048036036101769190810190611d9d565b6104e5565b60405161018891906123be565b60405180910390f35b6101ab60048036036101a69190810190611d61565b61057a565b005b6101c760048036036101c29190810190611ce9565b6106e8565b6040516101d491906122ff565b60405180910390f35b6101f760048036036101f29190810190611ce9565b610724565b60405161020491906123fb565b60405180910390f35b61022760048036036102229190810190611ad9565b61073c565b005b610243600480360361023e9190810190611bf5565b6108f0565b005b61025f600480360361025a9190810190611dd9565b610a5b565b005b610269610b32565b60405161027691906122ff565b60405180910390f35b61029960048036036102949190810190611ce9565b610b58565b6040516102a691906124f6565b60405180910390f35b6102c960048036036102c49190810190611bb9565b610b70565b6040516102d691906124f6565b60405180910390f35b6102e7610bb0565b6040516102f491906122ff565b60405180910390f35b610305610bd5565b604051610312919061237a565b60405180910390f35b61033560048036036103309190810190611ce9565b610d0d565b60405161034291906123fb565b60405180910390f35b61036560048036036103609190810190611b65565b610d25565b005b610381600480360361037c9190810190611c31565b6111e3565b005b61039d60048036036103989190810190611c31565b61146f565b6040516103aa91906123e0565b60405180910390f35b6103cd60048036036103c89190810190611b02565b6114c9565b6040516103da919061239c565b60405180910390f35b6103fd60048036036103f89190810190611d12565b6115ed565b60405161040a91906123e0565b60405180910390f35b61042d60048036036104289190810190611bf5565b611629565b60405161043a91906123e0565b60405180910390f35b600080600090505b6007805490508110156104da576007818154811061046557fe5b9060005260206000200160009054906101000a900473ffffffffffffffffffffffffffffffffffffffff1673ffffffffffffffffffffffffffffffffffffffff168373ffffffffffffffffffffffffffffffffffffffff1614156104cd5760019150506104e0565b808060010191505061044b565b50600090505b919050565b6060600083836001010390506060816040519080825280602002602001820160405280156105225781602001602082028038833980820191505090505b50905060008090505b8281101561056e576003600082880181526020019081526020016000205482828151811061055557fe5b602002602001018181525050808060010191505061052b565b50809250505092915050565b8160006004600083815260200190815260200160002054141561059c57600080fd5b6000801b600560008381526020019081526020016000205414156105bf57600080fd5b826000801b6003600083815260200190815260200160002054146105e257600080fd5b600160009054906101000a900473ffffffffffffffffffffffffffffffffffffffff1673ffffffffffffffffffffffffffffffffffffffff163373ffffffffffffffffffffffffffffffffffffffff1614610672576040517f08c379a000000000000000000000000000000000000000000000000000000000815260040161066990612476565b60405180910390fd5b6000801b6003600086815260200190815260200160002054146106ca576040517f08c379a00000000000000000000000000000000000000000000000000000000081526004016106c1906124b6565b60405180910390fd5b82600360008681526020019081526020016000208190555050505050565b600781815481106106f557fe5b906000526020600020016000915054906101000a900473ffffffffffffffffffffffffffffffffffffffff1681565b60056020528060005260406000206000915090505481565b600160009054906101000a900473ffffffffffffffffffffffffffffffffffffffff1673ffffffffffffffffffffffffffffffffffffffff163373ffffffffffffffffffffffffffffffffffffffff16146107cc576040517f08c379a00000000000000000000000000000000000000000000000000000000081526004016107c390612476565b60405180910390fd5b80600015156107da82610443565b1515146107e657600080fd5b8173ffffffffffffffffffffffffffffffffffffffff16633336419760016040518263ffffffff1660e01b815260040161082091906123e0565b600060405180830381600087803b15801561083a57600080fd5b505af115801561084e573d6000803e3d6000fd5b505050506007829080600181540180825580915050600190039060005260206000200160009091909190916101000a81548173ffffffffffffffffffffffffffffffffffffffff021916908373ffffffffffffffffffffffffffffffffffffffff1602179055507fb48a62163a7d747c16a177c1eb529841e700a0bb4a1e787d7d293eaaf7716d4d826040516108e491906122ff565b60405180910390a15050565b600160009054906101000a900473ffffffffffffffffffffffffffffffffffffffff1673ffffffffffffffffffffffffffffffffffffffff163373ffffffffffffffffffffffffffffffffffffffff1614610980576040517f08c379a000000000000000000000000000000000000000000000000000000000815260040161097790612476565b60405180910390fd5b6000811115610a1c578173ffffffffffffffffffffffffffffffffffffffff1663867904b430836040518363ffffffff1660e01b81526004016109c4929190612351565b602060405180830381600087803b1580156109de57600080fd5b505af11580156109f2573d6000803e3d6000fd5b505050506040513d601f19601f82011682018060405250610a169190810190611cc0565b50610a57565b6040517f08c379a0000000000000000000000000000000000000000000000000000000008152600401610a4e906124d6565b60405180910390fd5b5050565b600160009054906101000a900473ffffffffffffffffffffffffffffffffffffffff1673ffffffffffffffffffffffffffffffffffffffff163373ffffffffffffffffffffffffffffffffffffffff1614610aeb576040517f08c379a0000000000000000000000000000000000000000000000000000000008152600401610ae290612476565b60405180910390fd5b816004600085815260200190815260200160002081905550806005600085815260200190815260200160002081905550600254831115610b2d57826002819055505b505050565b600160009054906101000a900473ffffffffffffffffffffffffffffffffffffffff1681565b60046020528060005260406000206000915090505481565b6000808383604051602001610b869291906122a7565b60405160208183030381529060405280519060200120905062015180810691508191505092915050565b6000809054906101000a900473ffffffffffffffffffffffffffffffffffffffff1681565b6060806001604051908082528060200260200182016040528015610c085781602001602082028038833980820191505090505b50905060078054905060001415610c26576060905080915050610d0a565b60006007805490509050606081604051908082528060200260200182016040528015610c615781602001602082028038833980820191505090505b50905060008090505b600780549050811015610d025760078181548110610c8457fe5b9060005260206000200160009054906101000a900473ffffffffffffffffffffffffffffffffffffffff16828281518110610cbb57fe5b602002602001019073ffffffffffffffffffffffffffffffffffffffff16908173ffffffffffffffffffffffffffffffffffffffff16815250508080600101915050610c6a565b508093505050505b90565b60036020528060005260406000206000915090505481565b610d2d611841565b606060008090505b83518110156110f557838181518110610d4a57fe5b6020026020010151925060025483600001511115610d9d576040517f08c379a0000000000000000000000000000000000000000000000000000000008152600401610d9490612496565b60405180910390fd5b60006004600085600001518152602001908152602001600020541415610dc257600080fd5b6000801b6005600085600001518152602001908152602001600020541415610de957600080fd5b60025483600001511415610e4357610e0385600254611629565b610e42576040517f08c379a0000000000000000000000000000000000000000000000000000000008152600401610e3990612456565b60405180910390fd5b5b600660008460000151815260200190815260200160002060008673ffffffffffffffffffffffffffffffffffffffff1673ffffffffffffffffffffffffffffffffffffffff1681526020019081526020016000206000846020015173ffffffffffffffffffffffffffffffffffffffff1673ffffffffffffffffffffffffffffffffffffffff16815260200190815260200160002060009054906101000a900460ff1615610ef057600080fd5b610f0d85846000015185602001518660400151876060015161146f565b610f4c576040517f08c379a0000000000000000000000000000000000000000000000000000000008152600401610f4390612416565b60405180910390fd5b600060086000856020015173ffffffffffffffffffffffffffffffffffffffff1673ffffffffffffffffffffffffffffffffffffffff168152602001908152602001600020541415610fe557826020015182835181518110610faa57fe5b602002602001019073ffffffffffffffffffffffffffffffffffffffff16908173ffffffffffffffffffffffffffffffffffffffff16815250505b826040015160086000856020015173ffffffffffffffffffffffffffffffffffffffff1673ffffffffffffffffffffffffffffffffffffffff168152602001908152602001600020600082825401925050819055506001600660008560000151815260200190815260200160002060008773ffffffffffffffffffffffffffffffffffffffff1673ffffffffffffffffffffffffffffffffffffffff1681526020019081526020016000206000856020015173ffffffffffffffffffffffffffffffffffffffff1673ffffffffffffffffffffffffffffffffffffffff16815260200190815260200160002060006101000a81548160ff0219169083151502179055508080600101915050610d35565b5060008090505b81518110156111d8576111758583838151811061111557fe5b60200260200101516008600086868151811061112d57fe5b602002602001015173ffffffffffffffffffffffffffffffffffffffff1673ffffffffffffffffffffffffffffffffffffffff1681526020019081526020016000205461167e565b6008600083838151811061118557fe5b602002602001015173ffffffffffffffffffffffffffffffffffffffff1673ffffffffffffffffffffffffffffffffffffffff1681526020019081526020016000206000905580806001019150506110fc565b506060905050505050565b83600254811115611229576040517f08c379a000000000000000000000000000000000000000000000000000000000815260040161122090612496565b60405180910390fd5b8460006004600083815260200190815260200160002054141561124b57600080fd5b6000801b6005600083815260200190815260200160002054141561126e57600080fd5b6002548614156112c45761128487600254611629565b6112c3576040517f08c379a00000000000000000000000000000000000000000000000000000000081526004016112ba90612456565b60405180910390fd5b5b6006600087815260200190815260200160002060008873ffffffffffffffffffffffffffffffffffffffff1673ffffffffffffffffffffffffffffffffffffffff16815260200190815260200160002060008673ffffffffffffffffffffffffffffffffffffffff1673ffffffffffffffffffffffffffffffffffffffff16815260200190815260200160002060009054906101000a900460ff161561136957600080fd5b611376878787878761146f565b6113b5576040517f08c379a00000000000000000000000000000000000000000000000000000000081526004016113ac90612416565b60405180910390fd5b60016006600088815260200190815260200160002060008973ffffffffffffffffffffffffffffffffffffffff1673ffffffffffffffffffffffffffffffffffffffff16815260200190815260200160002060008773ffffffffffffffffffffffffffffffffffffffff1673ffffffffffffffffffffffffffffffffffffffff16815260200190815260200160002060006101000a81548160ff02191690831515021790555061146687868661167e565b50505050505050565b6000808685856040516020016114879392919061226a565b6040516020818303038152906040528051906020012090506114bd83600360008981526020019081526020016000205483611795565b91505095945050505050565b6060600083836001010390506060816040519080825280602002602001820160405280156115065781602001602082028038833980820191505090505b50905060008090505b828110156115df5760066000828801815260200190815260200160002060008973ffffffffffffffffffffffffffffffffffffffff1673ffffffffffffffffffffffffffffffffffffffff16815260200190815260200160002060008873ffffffffffffffffffffffffffffffffffffffff1673ffffffffffffffffffffffffffffffffffffffff16815260200190815260200160002060009054906101000a900460ff168282815181106115c057fe5b602002602001019015159081151581525050808060010191505061150f565b508092505050949350505050565b6006602052826000526040600020602052816000526040600020602052806000526040600020600092509250509054906101000a900460ff1681565b6000806005600084815260200190815260200160002054905060006004600085815260200190815260200160002054905060006116668684610b70565b90506000818301905042811094505050505092915050565b6000811115611755578173ffffffffffffffffffffffffffffffffffffffff1663a9059cbb84836040518363ffffffff1660e01b81526004016116c2929190612351565b602060405180830381600087803b1580156116dc57600080fd5b505af11580156116f0573d6000803e3d6000fd5b505050506040513d601f19601f820116820180604052506117149190810190611cc0565b507ff7a40077ff7a04c7e61f6f26fb13774259ddf1b6bce9ecf26a8276cdd39926838383836040516117489392919061231a565b60405180910390a1611790565b6040517f08c379a000000000000000000000000000000000000000000000000000000000815260040161178790612436565b60405180910390fd5b505050565b60008082905060008090505b85518110156118335760008682815181106117b857fe5b602002602001015190508083116117f95782816040516020016117dc9291906122d3565b604051602081830303815290604052805190602001209250611825565b808360405160200161180c9291906122d3565b6040516020818303038152906040528051906020012092505b5080806001019150506117a1565b508381149150509392505050565b604051806080016040528060008152602001600073ffffffffffffffffffffffffffffffffffffffff16815260200160008152602001606081525090565b60008135905061188e81612709565b92915050565b600082601f8301126118a557600080fd5b81356118b86118b38261253e565b612511565b915081818352602084019350602081019050838560208402820111156118dd57600080fd5b60005b8381101561190d57816118f38882611a23565b8452602084019350602083019250506001810190506118e0565b5050505092915050565b600082601f83011261192857600080fd5b813561193b61193682612566565b612511565b9150818183526020840193506020810190508385602084028201111561196057600080fd5b60005b8381101561199057816119768882611a23565b845260208401935060208301925050600181019050611963565b5050505092915050565b600082601f8301126119ab57600080fd5b81356119be6119b98261258e565b612511565b9150818183526020840193506020810190508360005b83811015611a0457813586016119ea8882611a38565b8452602084019350602083019250506001810190506119d4565b5050505092915050565b600081519050611a1d81612720565b92915050565b600081359050611a3281612737565b92915050565b600060808284031215611a4a57600080fd5b611a546080612511565b90506000611a6484828501611ac4565b6000830152506020611a788482850161187f565b6020830152506040611a8c84828501611ac4565b604083015250606082013567ffffffffffffffff811115611aac57600080fd5b611ab884828501611894565b60608301525092915050565b600081359050611ad38161274e565b92915050565b600060208284031215611aeb57600080fd5b6000611af98482850161187f565b91505092915050565b60008060008060808587031215611b1857600080fd5b6000611b268782880161187f565b9450506020611b378782880161187f565b9350506040611b4887828801611ac4565b9250506060611b5987828801611ac4565b91505092959194509250565b60008060408385031215611b7857600080fd5b6000611b868582860161187f565b925050602083013567ffffffffffffffff811115611ba357600080fd5b611baf8582860161199a565b9150509250929050565b60008060408385031215611bcc57600080fd5b6000611bda8582860161187f565b9250506020611beb85828601611a23565b9150509250929050565b60008060408385031215611c0857600080fd5b6000611c168582860161187f565b9250506020611c2785828601611ac4565b9150509250929050565b600080600080600060a08688031215611c4957600080fd5b6000611c578882890161187f565b9550506020611c6888828901611ac4565b9450506040611c798882890161187f565b9350506060611c8a88828901611ac4565b925050608086013567ffffffffffffffff811115611ca757600080fd5b611cb388828901611917565b9150509295509295909350565b600060208284031215611cd257600080fd5b6000611ce084828501611a0e565b91505092915050565b600060208284031215611cfb57600080fd5b6000611d0984828501611ac4565b91505092915050565b600080600060608486031215611d2757600080fd5b6000611d3586828701611ac4565b9350506020611d468682870161187f565b9250506040611d578682870161187f565b9150509250925092565b60008060408385031215611d7457600080fd5b6000611d8285828601611ac4565b9250506020611d9385828601611a23565b9150509250929050565b60008060408385031215611db057600080fd5b6000611dbe85828601611ac4565b9250506020611dcf85828601611ac4565b9150509250929050565b600080600060608486031215611dee57600080fd5b6000611dfc86828701611ac4565b9350506020611e0d86828701611ac4565b9250506040611e1e86828701611a23565b9150509250925092565b6000611e348383611e70565b60208301905092915050565b6000611e4c8383611fbf565b60208301905092915050565b6000611e648383611fdd565b60208301905092915050565b611e7981612672565b82525050565b611e8881612672565b82525050565b611e9f611e9a82612672565b6126c4565b82525050565b6000611eb0826125e6565b611eba818561262e565b9350611ec5836125b6565b8060005b83811015611ef6578151611edd8882611e28565b9750611ee883612607565b925050600181019050611ec9565b5085935050505092915050565b6000611f0e826125f1565b611f18818561263f565b9350611f23836125c6565b8060005b83811015611f54578151611f3b8882611e40565b9750611f4683612614565b925050600181019050611f27565b5085935050505092915050565b6000611f6c826125fc565b611f768185612650565b9350611f81836125d6565b8060005b83811015611fb2578151611f998882611e58565b9750611fa483612621565b925050600181019050611f85565b5085935050505092915050565b611fc881612684565b82525050565b611fd781612684565b82525050565b611fe681612690565b82525050565b611ff581612690565b82525050565b61200c61200782612690565b6126d6565b82525050565b600061201f601683612661565b91507f496e636f7272656374206d65726b6c652070726f6f66000000000000000000006000830152602082019050919050565b600061205f603983612661565b91507f4e6f2062616c616e636520776f756c64206265207472616e736665726564202d60008301527f206e6f7420676f6e6e6120776173746520796f757220676173000000000000006020830152604082019050919050565b60006120c5602e83612661565b91507f497420697320746f6f206561726c7920746f20636c61696d20666f722074686560008301527f2063757272656e742065706f63680000000000000000000000000000000000006020830152604082019050919050565b600061212b601a83612661565b91507f4d7573742062652074686520636f6e7472616374206f776e65720000000000006000830152602082019050919050565b600061216b601d83612661565b91507f45706f63682063616e6e6f7420626520696e20746865206675747572650000006000830152602082019050919050565b60006121ab601a83612661565b91507f63616e6e6f742072657772697465206d65726b6c6520726f6f740000000000006000830152602082019050919050565b60006121eb603483612661565b91507f4e6f20616d6f756e7420776f756c64206265206d696e746564202d206e6f742060008301527f676f6e6e6120776173746520796f7572206761730000000000000000000000006020830152604082019050919050565b61224d816126ba565b82525050565b61226461225f826126ba565b6126f2565b82525050565b60006122768286611e8e565b6014820191506122868285611e8e565b6014820191506122968284612253565b602082019150819050949350505050565b60006122b38285611e8e565b6014820191506122c38284611ffb565b6020820191508190509392505050565b60006122df8285611ffb565b6020820191506122ef8284611ffb565b6020820191508190509392505050565b60006020820190506123146000830184611e7f565b92915050565b600060608201905061232f6000830186611e7f565b61233c6020830185611e7f565b6123496040830184612244565b949350505050565b60006040820190506123666000830185611e7f565b6123736020830184612244565b9392505050565b600060208201905081810360008301526123948184611ea5565b905092915050565b600060208201905081810360008301526123b68184611f03565b905092915050565b600060208201905081810360008301526123d88184611f61565b905092915050565b60006020820190506123f56000830184611fce565b92915050565b60006020820190506124106000830184611fec565b92915050565b6000602082019050818103600083015261242f81612012565b9050919050565b6000602082019050818103600083015261244f81612052565b9050919050565b6000602082019050818103600083015261246f816120b8565b9050919050565b6000602082019050818103600083015261248f8161211e565b9050919050565b600060208201905081810360008301526124af8161215e565b9050919050565b600060208201905081810360008301526124cf8161219e565b9050919050565b600060208201905081810360008301526124ef816121de565b9050919050565b600060208201905061250b6000830184612244565b92915050565b6000604051905081810181811067ffffffffffffffff8211171561253457600080fd5b8060405250919050565b600067ffffffffffffffff82111561255557600080fd5b602082029050602081019050919050565b600067ffffffffffffffff82111561257d57600080fd5b602082029050602081019050919050565b600067ffffffffffffffff8211156125a557600080fd5b602082029050602081019050919050565b6000819050602082019050919050565b6000819050602082019050919050565b6000819050602082019050919050565b600081519050919050565b600081519050919050565b600081519050919050565b6000602082019050919050565b6000602082019050919050565b6000602082019050919050565b600082825260208201905092915050565b600082825260208201905092915050565b600082825260208201905092915050565b600082825260208201905092915050565b600061267d8261269a565b9050919050565b60008115159050919050565b6000819050919050565b600073ffffffffffffffffffffffffffffffffffffffff82169050919050565b6000819050919050565b60006126cf826126e0565b9050919050565b6000819050919050565b60006126eb826126fc565b9050919050565b6000819050919050565b60008160601b9050919050565b61271281612672565b811461271d57600080fd5b50565b61272981612684565b811461273457600080fd5b50565b61274081612690565b811461274b57600080fd5b50565b612757816126ba565b811461276257600080fd5b5056fea2646970667358221220c8cd461f47b3e3d7b1b06503f53a95dbf4fb775b6dc9df318520191061a7846d64736f6c63430006000033",
  "source": "pragma solidity 0.6.0;\npragma experimental ABIEncoderV2;\n\nimport \"@openzeppelin/contracts/cryptography/MerkleProof.sol\";\nimport \"./IERC20.sol\";\nimport \"./ISwapXToken.sol\";\n\ncontract MerkleRedeem {\n    address public tokenAddress;\n    address public owner;\n\n    event Claimed(address _claimant, address _token, uint256 _balance);\n    event VerifiedToken(address _token);\n\n    // Recorded epochs\n    uint256 latestEpoch;\n    mapping(uint256 => bytes32) public epochMerkleRoots;\n    mapping(uint256 => uint256) public epochTimestamps;\n    mapping(uint256 => bytes32) public epochBlockHashes;\n    mapping(uint256 => mapping(address => mapping(address => bool)))\n        public claimed;\n\n    address[] public _verifiedTokens;\n\n    constructor() public {\n        owner = msg.sender;\n    }\n\n    modifier onlyOwner() {\n        require(msg.sender == owner, \"Must be the contract owner\");\n        _;\n    }\n\n    modifier requireEpochInPast(uint256 epoch) {\n        require(epoch <= latestEpoch, \"Epoch cannot be in the future\");\n        _;\n    }\n\n    modifier requireEpochRecorded(uint256 _epoch) {\n        require(epochTimestamps[_epoch] != 0);\n        require(epochBlockHashes[_epoch] != 0);\n        _;\n    }\n\n    modifier requireMerkleRootUnset(uint256 _epoch) {\n        require(epochMerkleRoots[_epoch] == bytes32(0));\n        _;\n    }\n\n    modifier requireUnverified(address _token) {\n        require(verified(_token) == false);\n        _;\n    }\n\n    function verify(address _token)\n        external\n        onlyOwner\n        requireUnverified(_token)\n    {\n        ISwapXToken(_token).verify(true);\n        _verifiedTokens.push(_token);\n        emit VerifiedToken(_token);\n    }\n\n    function verified(address _token) public view returns (bool) {\n        for (uint256 i = 0; i < _verifiedTokens.length; i++) {\n            if (_token == _verifiedTokens[i]) {\n                return true;\n            }\n        }\n        return false;\n    }\n\n    function verifiedTokens() public view returns (address[] memory) {\n        address[] memory result = new address[](1);\n        if (0 == _verifiedTokens.length) {\n            delete result;\n            return result;\n        }\n        uint256 len = _verifiedTokens.length;\n        address[] memory results = new address[](len);\n        for (uint256 i = 0; i < _verifiedTokens.length; i++) {\n            results[i] = _verifiedTokens[i];\n        }\n\n        return results;\n    }\n\n    function issue(address _token, uint256 amount) external onlyOwner {\n        if (amount > 0) {\n            ISwapXToken(_token).issue(address(this), amount);\n        } else {\n            revert(\"No amount would be minted - not gonna waste your gas\");\n        }\n    }\n\n    function disburse(\n        address _liquidityProvider,\n        address _token,\n        uint256 _balance\n    ) private {\n        if (_balance > 0) {\n            IERC20(_token).transfer(_liquidityProvider, _balance);\n            emit Claimed(_liquidityProvider, _token, _balance);\n        } else {\n            revert(\"No balance would be transfered - not gonna waste your gas\");\n        }\n    }\n\n    function offsetRequirementMet(address user, uint256 _epoch)\n        public\n        view\n        returns (bool)\n    {\n        bytes32 blockHash = epochBlockHashes[_epoch];\n        uint256 timestamp = epochTimestamps[_epoch];\n        uint256 offsetSeconds = userEpochOffset(user, blockHash);\n\n        uint256 earliestClaimableTimestamp = timestamp + offsetSeconds;\n        return earliestClaimableTimestamp < block.timestamp;\n    }\n\n    function claimEpoch(\n        address _liquidityProvider,\n        uint256 _epoch,\n        address _token,\n        uint256 _claimedBalance,\n        bytes32[] memory _merkleProof\n    ) public requireEpochInPast(_epoch) requireEpochRecorded(_epoch) {\n        // if trying to claim for the current epoch\n        if (_epoch == latestEpoch) {\n            require(\n                offsetRequirementMet(_liquidityProvider, latestEpoch),\n                \"It is too early to claim for the current epoch\"\n            );\n        }\n\n        require(!claimed[_epoch][_liquidityProvider][_token]);\n        require(\n            verifyClaim(\n                _liquidityProvider,\n                _epoch,\n                _token,\n                _claimedBalance,\n                _merkleProof\n            ),\n            \"Incorrect merkle proof\"\n        );\n\n        claimed[_epoch][_liquidityProvider][_token] = true;\n        disburse(_liquidityProvider, _token, _claimedBalance);\n    }\n\n    struct Claim {\n        uint256 epoch;\n        address token;\n        uint256 balance;\n        bytes32[] merkleProof;\n    }\n\n    mapping(address => uint256) tokenTotalBalances; //temp mapping\n\n    function claimEpochs(address _liquidityProvider, Claim[] memory claims)\n        public\n    {\n        Claim memory claim;\n        address[] memory _tokens;\n        for (uint256 i = 0; i < claims.length; i++) {\n            claim = claims[i];\n            require(\n                claim.epoch <= latestEpoch,\n                \"Epoch cannot be in the future\"\n            );\n            require(epochTimestamps[claim.epoch] != 0);\n            require(epochBlockHashes[claim.epoch] != 0);\n\n            // if trying to claim for the current epoch\n            if (claim.epoch == latestEpoch) {\n                require(\n                    offsetRequirementMet(_liquidityProvider, latestEpoch),\n                    \"It is too early to claim for the current epoch\"\n                );\n            }\n\n            require(!claimed[claim.epoch][_liquidityProvider][claim.token]);\n            require(\n                verifyClaim(\n                    _liquidityProvider,\n                    claim.epoch,\n                    claim.token,\n                    claim.balance,\n                    claim.merkleProof\n                ),\n                \"Incorrect merkle proof\"\n            );\n\n            if (tokenTotalBalances[claim.token] == uint256(0)) {\n                _tokens[_tokens.length] = claim.token;\n            }\n\n            tokenTotalBalances[claim.token] += claim.balance;\n\n            claimed[claim.epoch][_liquidityProvider][claim.token] = true;\n        }\n\n        for (uint256 i = 0; i < _tokens.length; i++) {\n            disburse(\n                _liquidityProvider,\n                _tokens[i],\n                tokenTotalBalances[_tokens[i]]\n            );\n\n            delete tokenTotalBalances[_tokens[i]];\n        }\n        delete _tokens;\n    }\n\n    function claimStatus(\n        address _liquidityProvider,\n        address _token,\n        uint256 _begin,\n        uint256 _end\n    ) public view returns (bool[] memory) {\n        uint256 size = 1 + _end - _begin;\n        bool[] memory arr = new bool[](size);\n        for (uint256 i = 0; i < size; i++) {\n            arr[i] = claimed[_begin + i][_liquidityProvider][_token];\n        }\n        return arr;\n    }\n\n    function merkleRoots(uint256 _begin, uint256 _end)\n        public\n        view\n        returns (bytes32[] memory)\n    {\n        uint256 size = 1 + _end - _begin;\n        bytes32[] memory arr = new bytes32[](size);\n        for (uint256 i = 0; i < size; i++) {\n            arr[i] = epochMerkleRoots[_begin + i];\n        }\n        return arr;\n    }\n\n    function verifyClaim(\n        address _liquidityProvider,\n        uint256 _epoch,\n        address _token,\n        uint256 _claimedBalance,\n        bytes32[] memory _merkleProof\n    ) public view returns (bool valid) {\n        bytes32 leaf = keccak256(\n            abi.encodePacked(_liquidityProvider, _token, _claimedBalance)\n        );\n        return MerkleProof.verify(_merkleProof, epochMerkleRoots[_epoch], leaf);\n    }\n\n    function userEpochOffset(\n        address _liquidityProvider,\n        bytes32 _epochBlockHash\n    ) public pure returns (uint256 offset) {\n        bytes32 hash = keccak256(\n            abi.encodePacked(_liquidityProvider, _epochBlockHash)\n        );\n        assembly {\n            offset := mod(\n                hash,\n                86400 // seconds in a epoch\n            )\n        }\n        return offset;\n    }\n\n    function finishEpoch(\n        uint256 _epoch,\n        uint256 _timestamp,\n        bytes32 _blockHash\n    ) public onlyOwner {\n        epochTimestamps[_epoch] = _timestamp;\n        epochBlockHashes[_epoch] = _blockHash;\n        if (_epoch > latestEpoch) {\n            // just in case we get these out of order\n            latestEpoch = _epoch;\n        }\n    }\n\n    function seedAllocations(uint256 _epoch, bytes32 _merkleRoot)\n        external\n        requireEpochRecorded(_epoch)\n        requireMerkleRootUnset(_epoch)\n        onlyOwner\n    {\n        require(\n            epochMerkleRoots[_epoch] == bytes32(0),\n            \"cannot rewrite merkle root\"\n        );\n        epochMerkleRoots[_epoch] = _merkleRoot;\n    }\n}\n",
  "sourcePath": "/Users/lisheng/Downloads/defi/balancer/erc20-redeemable-master/merkle/contracts/MerkleRedeem.sol",
  "compiler": {
    "name": "solc",
    "version": "0.6.0+commit.26b70077.Emscripten.clang"
  },
  "schemaVersion": "3.2.3",
  "updatedAt": "2020-08-29T06:39:07.264Z",
  "devdoc": {
    "methods": {}
  },
  "userdoc": {
    "methods": {}
  }
}