{
  "contractName": "MerkleRedeemHelper",
  "abi": [
    {
      "inputs": [],
      "stateMutability": "nonpayable",
      "type": "constructor"
    },
    {
      "inputs": [],
      "name": "merkleRedeemAddress",
      "outputs": [
        {
          "internalType": "address",
          "name": "",
          "type": "address"
        }
      ],
      "stateMutability": "view",
      "type": "function"
    },
    {
      "inputs": [],
      "name": "owner",
      "outputs": [
        {
          "internalType": "address",
          "name": "",
          "type": "address"
        }
      ],
      "stateMutability": "view",
      "type": "function"
    },
    {
      "inputs": [
        {
          "internalType": "address",
          "name": "redeem",
          "type": "address"
        }
      ],
      "name": "setAddress",
      "outputs": [],
      "stateMutability": "nonpayable",
      "type": "function"
    },
    {
      "inputs": [
        {
          "internalType": "address",
          "name": "_liquidityProvider",
          "type": "address"
        },
        {
          "components": [
            {
              "internalType": "uint256",
              "name": "epoch",
              "type": "uint256"
            },
            {
              "internalType": "address",
              "name": "token",
              "type": "address"
            },
            {
              "internalType": "uint256",
              "name": "balance",
              "type": "uint256"
            },
            {
              "internalType": "bytes32[]",
              "name": "merkleProof",
              "type": "bytes32[]"
            }
          ],
          "internalType": "struct MerkleRedeemHelper.Claim[]",
          "name": "claims",
          "type": "tuple[]"
        }
      ],
      "name": "claimEpochs",
      "outputs": [],
      "stateMutability": "nonpayable",
      "type": "function"
    }
  ],
  "bytecode": "0x608060405234801561001057600080fd5b5033600160006101000a81548173ffffffffffffffffffffffffffffffffffffffff021916908373ffffffffffffffffffffffffffffffffffffffff160217905550610a7b806100616000396000f3fe608060405234801561001057600080fd5b506004361061004c5760003560e01c80638da5cb5b14610051578063903ed6971461006f578063c44faa3f1461008d578063e30081a0146100a9575b600080fd5b6100596100c5565b604051610066919061081e565b60405180910390f35b6100776100eb565b604051610084919061081e565b60405180910390f35b6100a760048036036100a2919081019061061b565b610110565b005b6100c360048036036100be91908101906105f2565b61028b565b005b600160009054906101000a900473ffffffffffffffffffffffffffffffffffffffff1681565b6000809054906101000a900473ffffffffffffffffffffffffffffffffffffffff1681565b600073ffffffffffffffffffffffffffffffffffffffff166000809054906101000a900473ffffffffffffffffffffffffffffffffffffffff1673ffffffffffffffffffffffffffffffffffffffff1614156101a1576040517f08c379a0000000000000000000000000000000000000000000000000000000008152600401610198906108b3565b60405180910390fd5b60008060009054906101000a900473ffffffffffffffffffffffffffffffffffffffff1690506101cf6103f2565b60008090505b8351811015610284578381815181106101ea57fe5b602002602001015191508273ffffffffffffffffffffffffffffffffffffffff1663c8c89cf28684600001518560200151866040015187606001516040518663ffffffff1660e01b8152600401610245959493929190610839565b600060405180830381600087803b15801561025f57600080fd5b505af1158015610273573d6000803e3d6000fd5b5050505080806001019150506101d5565b5050505050565b600160009054906101000a900473ffffffffffffffffffffffffffffffffffffffff1673ffffffffffffffffffffffffffffffffffffffff163373ffffffffffffffffffffffffffffffffffffffff161461031b576040517f08c379a000000000000000000000000000000000000000000000000000000000815260040161031290610893565b60405180910390fd5b8073ffffffffffffffffffffffffffffffffffffffff166000809054906101000a900473ffffffffffffffffffffffffffffffffffffffff1673ffffffffffffffffffffffffffffffffffffffff16146103b457806000806101000a81548173ffffffffffffffffffffffffffffffffffffffff021916908373ffffffffffffffffffffffffffffffffffffffff1602179055506103ef565b6040517f08c379a00000000000000000000000000000000000000000000000000000000081526004016103e6906108d3565b60405180910390fd5b50565b604051806080016040528060008152602001600073ffffffffffffffffffffffffffffffffffffffff16815260200160008152602001606081525090565b60008135905061043f81610a00565b92915050565b600082601f83011261045657600080fd5b813561046961046482610920565b6108f3565b9150818183526020840193506020810190508385602084028201111561048e57600080fd5b60005b838110156104be57816104a4888261053c565b845260208401935060208301925050600181019050610491565b5050505092915050565b600082601f8301126104d957600080fd5b81356104ec6104e782610948565b6108f3565b9150818183526020840193506020810190508360005b8381101561053257813586016105188882610551565b845260208401935060208301925050600181019050610502565b5050505092915050565b60008135905061054b81610a17565b92915050565b60006080828403121561056357600080fd5b61056d60806108f3565b9050600061057d848285016105dd565b600083015250602061059184828501610430565b60208301525060406105a5848285016105dd565b604083015250606082013567ffffffffffffffff8111156105c557600080fd5b6105d184828501610445565b60608301525092915050565b6000813590506105ec81610a2e565b92915050565b60006020828403121561060457600080fd5b600061061284828501610430565b91505092915050565b6000806040838503121561062e57600080fd5b600061063c85828601610430565b925050602083013567ffffffffffffffff81111561065957600080fd5b610665858286016104c8565b9150509250929050565b600061067b83836106f4565b60208301905092915050565b610690816109ba565b82525050565b60006106a182610980565b6106ab8185610998565b93506106b683610970565b8060005b838110156106e75781516106ce888261066f565b97506106d98361098b565b9250506001810190506106ba565b5085935050505092915050565b6106fd816109cc565b82525050565b6000610710601a836109a9565b91507f4d7573742062652074686520636f6e7472616374206f776e65720000000000006000830152602082019050919050565b60006107506023836109a9565b91507f6d65726b6c6572656465656d20616464726573732063616e6e6f74206265207a60008301527f65726f00000000000000000000000000000000000000000000000000000000006020830152604082019050919050565b60006107b66034836109a9565b91507f4e6f20616d6f756e7420776f756c64206265206d696e746564202d206e6f742060008301527f676f6e6e6120776173746520796f7572206761730000000000000000000000006020830152604082019050919050565b610818816109f6565b82525050565b60006020820190506108336000830184610687565b92915050565b600060a08201905061084e6000830188610687565b61085b602083018761080f565b6108686040830186610687565b610875606083018561080f565b81810360808301526108878184610696565b90509695505050505050565b600060208201905081810360008301526108ac81610703565b9050919050565b600060208201905081810360008301526108cc81610743565b9050919050565b600060208201905081810360008301526108ec816107a9565b9050919050565b6000604051905081810181811067ffffffffffffffff8211171561091657600080fd5b8060405250919050565b600067ffffffffffffffff82111561093757600080fd5b602082029050602081019050919050565b600067ffffffffffffffff82111561095f57600080fd5b602082029050602081019050919050565b6000819050602082019050919050565b600081519050919050565b6000602082019050919050565b600082825260208201905092915050565b600082825260208201905092915050565b60006109c5826109d6565b9050919050565b6000819050919050565b600073ffffffffffffffffffffffffffffffffffffffff82169050919050565b6000819050919050565b610a09816109ba565b8114610a1457600080fd5b50565b610a20816109cc565b8114610a2b57600080fd5b50565b610a37816109f6565b8114610a4257600080fd5b5056fea2646970667358221220a748a7b334dbf3a786199741dd16b616aa76a351e284419f5294f8c6c65d13a564736f6c63430006000033",
  "source": "pragma solidity 0.6.0;\npragma experimental ABIEncoderV2;\n\nimport \"./MerkleRedeem.sol\";\n\ncontract MerkleRedeemHelper {\n    address public merkleRedeemAddress;\n    address public owner;\n\n    constructor() public {\n        owner = msg.sender;\n    }\n\n    modifier onlyOwner() {\n        require(msg.sender == owner, \"Must be the contract owner\");\n        _;\n    }\n\n    function setAddress(address redeem) external onlyOwner {\n        if (merkleRedeemAddress != redeem) {\n            merkleRedeemAddress = redeem;\n        } else {\n            revert(\"No amount would be minted - not gonna waste your gas\");\n        }\n    }\n\n    struct Claim {\n        uint256 epoch;\n        address token;\n        uint256 balance;\n        bytes32[] merkleProof;\n    }\n\n    function claimEpochs(address _liquidityProvider, Claim[] memory claims)\n        public\n    {\n        require(\n            merkleRedeemAddress != address(0),\n            \"merkleredeem address cannot be zero\"\n        );\n\n        MerkleRedeem merkleRedeem = MerkleRedeem(merkleRedeemAddress);\n\n        Claim memory claim;\n        for (uint256 i = 0; i < claims.length; i++) {\n            claim = claims[i];\n\n            merkleRedeem.claimEpoch(\n                _liquidityProvider,\n                claim.epoch,\n                claim.token,\n                claim.balance,\n                claim.merkleProof\n            );\n        }\n    }\n}\n",
  "sourcePath": "/Users/lisheng/Downloads/defi/balancer/erc20-redeemable-master/merkle/contracts/MerkleRedeemHelper.sol",
  "compiler": {
    "name": "solc",
    "version": "0.6.0+commit.26b70077.Emscripten.clang"
  },
  "schemaVersion": "3.2.3",
  "updatedAt": "2020-09-21T01:42:13.816Z",
  "devdoc": {
    "methods": {}
  },
  "userdoc": {
    "methods": {}
  }
}